{
  "contractName": "Controller",
  "abi": [
    {
      "constant": true,
      "inputs": [
        {
          "name": "",
          "type": "address"
        }
      ],
      "name": "globalConstraintsRegisterPre",
      "outputs": [
        {
          "name": "isRegistered",
          "type": "bool"
        },
        {
          "name": "index",
          "type": "uint256"
        }
      ],
      "payable": false,
      "stateMutability": "view",
      "type": "function"
    },
    {
      "constant": true,
      "inputs": [],
      "name": "newController",
      "outputs": [
        {
          "name": "",
          "type": "address"
        }
      ],
      "payable": false,
      "stateMutability": "view",
      "type": "function"
    },
    {
      "constant": true,
      "inputs": [
        {
          "name": "",
          "type": "uint256"
        }
      ],
      "name": "globalConstraintsPre",
      "outputs": [
        {
          "name": "gcAddress",
          "type": "address"
        },
        {
          "name": "params",
          "type": "bytes32"
        }
      ],
      "payable": false,
      "stateMutability": "view",
      "type": "function"
    },
    {
      "constant": true,
      "inputs": [],
      "name": "avatar",
      "outputs": [
        {
          "name": "",
          "type": "address"
        }
      ],
      "payable": false,
      "stateMutability": "view",
      "type": "function"
    },
    {
      "constant": true,
      "inputs": [
        {
          "name": "",
          "type": "address"
        }
      ],
      "name": "globalConstraintsRegisterPost",
      "outputs": [
        {
          "name": "isRegistered",
          "type": "bool"
        },
        {
          "name": "index",
          "type": "uint256"
        }
      ],
      "payable": false,
      "stateMutability": "view",
      "type": "function"
    },
    {
      "constant": true,
      "inputs": [],
      "name": "nativeReputation",
      "outputs": [
        {
          "name": "",
          "type": "address"
        }
      ],
      "payable": false,
      "stateMutability": "view",
      "type": "function"
    },
    {
      "constant": true,
      "inputs": [
        {
          "name": "",
          "type": "address"
        }
      ],
      "name": "schemes",
      "outputs": [
        {
          "name": "paramsHash",
          "type": "bytes32"
        },
        {
          "name": "permissions",
          "type": "bytes4"
        }
      ],
      "payable": false,
      "stateMutability": "view",
      "type": "function"
    },
    {
      "constant": true,
      "inputs": [],
      "name": "nativeToken",
      "outputs": [
        {
          "name": "",
          "type": "address"
        }
      ],
      "payable": false,
      "stateMutability": "view",
      "type": "function"
    },
    {
      "constant": true,
      "inputs": [
        {
          "name": "",
          "type": "uint256"
        }
      ],
      "name": "globalConstraintsPost",
      "outputs": [
        {
          "name": "gcAddress",
          "type": "address"
        },
        {
          "name": "params",
          "type": "bytes32"
        }
      ],
      "payable": false,
      "stateMutability": "view",
      "type": "function"
    },
    {
      "inputs": [
        {
          "name": "_avatar",
          "type": "address"
        }
      ],
      "payable": false,
      "stateMutability": "nonpayable",
      "type": "constructor"
    },
    {
      "payable": false,
      "stateMutability": "nonpayable",
      "type": "fallback"
    },
    {
      "anonymous": false,
      "inputs": [
        {
          "indexed": true,
          "name": "_sender",
          "type": "address"
        },
        {
          "indexed": true,
          "name": "_to",
          "type": "address"
        },
        {
          "indexed": false,
          "name": "_amount",
          "type": "uint256"
        }
      ],
      "name": "MintReputation",
      "type": "event"
    },
    {
      "anonymous": false,
      "inputs": [
        {
          "indexed": true,
          "name": "_sender",
          "type": "address"
        },
        {
          "indexed": true,
          "name": "_from",
          "type": "address"
        },
        {
          "indexed": false,
          "name": "_amount",
          "type": "uint256"
        }
      ],
      "name": "BurnReputation",
      "type": "event"
    },
    {
      "anonymous": false,
      "inputs": [
        {
          "indexed": true,
          "name": "_sender",
          "type": "address"
        },
        {
          "indexed": true,
          "name": "_beneficiary",
          "type": "address"
        },
        {
          "indexed": false,
          "name": "_amount",
          "type": "uint256"
        }
      ],
      "name": "MintTokens",
      "type": "event"
    },
    {
      "anonymous": false,
      "inputs": [
        {
          "indexed": true,
          "name": "_sender",
          "type": "address"
        },
        {
          "indexed": true,
          "name": "_scheme",
          "type": "address"
        }
      ],
      "name": "RegisterScheme",
      "type": "event"
    },
    {
      "anonymous": false,
      "inputs": [
        {
          "indexed": true,
          "name": "_sender",
          "type": "address"
        },
        {
          "indexed": true,
          "name": "_scheme",
          "type": "address"
        }
      ],
      "name": "UnregisterScheme",
      "type": "event"
    },
    {
      "anonymous": false,
      "inputs": [
        {
          "indexed": true,
          "name": "_oldController",
          "type": "address"
        },
        {
          "indexed": false,
          "name": "_newController",
          "type": "address"
        }
      ],
      "name": "UpgradeController",
      "type": "event"
    },
    {
      "anonymous": false,
      "inputs": [
        {
          "indexed": true,
          "name": "_globalConstraint",
          "type": "address"
        },
        {
          "indexed": false,
          "name": "_params",
          "type": "bytes32"
        },
        {
          "indexed": false,
          "name": "_when",
          "type": "uint8"
        }
      ],
      "name": "AddGlobalConstraint",
      "type": "event"
    },
    {
      "anonymous": false,
      "inputs": [
        {
          "indexed": true,
          "name": "_globalConstraint",
          "type": "address"
        },
        {
          "indexed": false,
          "name": "_index",
          "type": "uint256"
        },
        {
          "indexed": false,
          "name": "_isPre",
          "type": "bool"
        }
      ],
      "name": "RemoveGlobalConstraint",
      "type": "event"
    },
    {
      "constant": false,
      "inputs": [
        {
          "name": "_amount",
          "type": "uint256"
        },
        {
          "name": "_to",
          "type": "address"
        },
        {
          "name": "_avatar",
          "type": "address"
        }
      ],
      "name": "mintReputation",
      "outputs": [
        {
          "name": "",
          "type": "bool"
        }
      ],
      "payable": false,
      "stateMutability": "nonpayable",
      "type": "function"
    },
    {
      "constant": false,
      "inputs": [
        {
          "name": "_amount",
          "type": "uint256"
        },
        {
          "name": "_from",
          "type": "address"
        },
        {
          "name": "_avatar",
          "type": "address"
        }
      ],
      "name": "burnReputation",
      "outputs": [
        {
          "name": "",
          "type": "bool"
        }
      ],
      "payable": false,
      "stateMutability": "nonpayable",
      "type": "function"
    },
    {
      "constant": false,
      "inputs": [
        {
          "name": "_amount",
          "type": "uint256"
        },
        {
          "name": "_beneficiary",
          "type": "address"
        },
        {
          "name": "_avatar",
          "type": "address"
        }
      ],
      "name": "mintTokens",
      "outputs": [
        {
          "name": "",
          "type": "bool"
        }
      ],
      "payable": false,
      "stateMutability": "nonpayable",
      "type": "function"
    },
    {
      "constant": false,
      "inputs": [
        {
          "name": "_scheme",
          "type": "address"
        },
        {
          "name": "_paramsHash",
          "type": "bytes32"
        },
        {
          "name": "_permissions",
          "type": "bytes4"
        },
        {
          "name": "_avatar",
          "type": "address"
        }
      ],
      "name": "registerScheme",
      "outputs": [
        {
          "name": "",
          "type": "bool"
        }
      ],
      "payable": false,
      "stateMutability": "nonpayable",
      "type": "function"
    },
    {
      "constant": false,
      "inputs": [
        {
          "name": "_scheme",
          "type": "address"
        },
        {
          "name": "_avatar",
          "type": "address"
        }
      ],
      "name": "unregisterScheme",
      "outputs": [
        {
          "name": "",
          "type": "bool"
        }
      ],
      "payable": false,
      "stateMutability": "nonpayable",
      "type": "function"
    },
    {
      "constant": false,
      "inputs": [
        {
          "name": "_avatar",
          "type": "address"
        }
      ],
      "name": "unregisterSelf",
      "outputs": [
        {
          "name": "",
          "type": "bool"
        }
      ],
      "payable": false,
      "stateMutability": "nonpayable",
      "type": "function"
    },
    {
      "constant": true,
      "inputs": [
        {
          "name": "_scheme",
          "type": "address"
        },
        {
          "name": "_avatar",
          "type": "address"
        }
      ],
      "name": "isSchemeRegistered",
      "outputs": [
        {
          "name": "",
          "type": "bool"
        }
      ],
      "payable": false,
      "stateMutability": "view",
      "type": "function"
    },
    {
      "constant": true,
      "inputs": [
        {
          "name": "_scheme",
          "type": "address"
        },
        {
          "name": "_avatar",
          "type": "address"
        }
      ],
      "name": "getSchemeParameters",
      "outputs": [
        {
          "name": "",
          "type": "bytes32"
        }
      ],
      "payable": false,
      "stateMutability": "view",
      "type": "function"
    },
    {
      "constant": true,
      "inputs": [
        {
          "name": "_scheme",
          "type": "address"
        },
        {
          "name": "_avatar",
          "type": "address"
        }
      ],
      "name": "getSchemePermissions",
      "outputs": [
        {
          "name": "",
          "type": "bytes4"
        }
      ],
      "payable": false,
      "stateMutability": "view",
      "type": "function"
    },
    {
      "constant": true,
      "inputs": [
        {
          "name": "_globalConstraint",
          "type": "address"
        },
        {
          "name": "",
          "type": "address"
        }
      ],
      "name": "getGlobalConstraintParameters",
      "outputs": [
        {
          "name": "",
          "type": "bytes32"
        }
      ],
      "payable": false,
      "stateMutability": "view",
      "type": "function"
    },
    {
      "constant": true,
      "inputs": [
        {
          "name": "_avatar",
          "type": "address"
        }
      ],
      "name": "globalConstraintsCount",
      "outputs": [
        {
          "name": "",
          "type": "uint256"
        },
        {
          "name": "",
          "type": "uint256"
        }
      ],
      "payable": false,
      "stateMutability": "view",
      "type": "function"
    },
    {
      "constant": true,
      "inputs": [
        {
          "name": "_globalConstraint",
          "type": "address"
        },
        {
          "name": "_avatar",
          "type": "address"
        }
      ],
      "name": "isGlobalConstraintRegistered",
      "outputs": [
        {
          "name": "",
          "type": "bool"
        }
      ],
      "payable": false,
      "stateMutability": "view",
      "type": "function"
    },
    {
      "constant": false,
      "inputs": [
        {
          "name": "_globalConstraint",
          "type": "address"
        },
        {
          "name": "_params",
          "type": "bytes32"
        },
        {
          "name": "_avatar",
          "type": "address"
        }
      ],
      "name": "addGlobalConstraint",
      "outputs": [
        {
          "name": "",
          "type": "bool"
        }
      ],
      "payable": false,
      "stateMutability": "nonpayable",
      "type": "function"
    },
    {
      "constant": false,
      "inputs": [
        {
          "name": "_globalConstraint",
          "type": "address"
        },
        {
          "name": "_avatar",
          "type": "address"
        }
      ],
      "name": "removeGlobalConstraint",
      "outputs": [
        {
          "name": "",
          "type": "bool"
        }
      ],
      "payable": false,
      "stateMutability": "nonpayable",
      "type": "function"
    },
    {
      "constant": false,
      "inputs": [
        {
          "name": "_newController",
          "type": "address"
        },
        {
          "name": "_avatar",
          "type": "address"
        }
      ],
      "name": "upgradeController",
      "outputs": [
        {
          "name": "",
          "type": "bool"
        }
      ],
      "payable": false,
      "stateMutability": "nonpayable",
      "type": "function"
    },
    {
      "constant": false,
      "inputs": [
        {
          "name": "_contract",
          "type": "address"
        },
        {
          "name": "_data",
          "type": "bytes"
        },
        {
          "name": "_avatar",
          "type": "address"
        }
      ],
      "name": "genericCall",
      "outputs": [
        {
          "name": "returnValue",
          "type": "bytes32"
        }
      ],
      "payable": false,
      "stateMutability": "nonpayable",
      "type": "function"
    },
    {
      "constant": false,
      "inputs": [
        {
          "name": "_amountInWei",
          "type": "uint256"
        },
        {
          "name": "_to",
          "type": "address"
        },
        {
          "name": "_avatar",
          "type": "address"
        }
      ],
      "name": "sendEther",
      "outputs": [
        {
          "name": "",
          "type": "bool"
        }
      ],
      "payable": false,
      "stateMutability": "nonpayable",
      "type": "function"
    },
    {
      "constant": false,
      "inputs": [
        {
          "name": "_externalToken",
          "type": "address"
        },
        {
          "name": "_to",
          "type": "address"
        },
        {
          "name": "_value",
          "type": "uint256"
        },
        {
          "name": "_avatar",
          "type": "address"
        }
      ],
      "name": "externalTokenTransfer",
      "outputs": [
        {
          "name": "",
          "type": "bool"
        }
      ],
      "payable": false,
      "stateMutability": "nonpayable",
      "type": "function"
    },
    {
      "constant": false,
      "inputs": [
        {
          "name": "_externalToken",
          "type": "address"
        },
        {
          "name": "_from",
          "type": "address"
        },
        {
          "name": "_to",
          "type": "address"
        },
        {
          "name": "_value",
          "type": "uint256"
        },
        {
          "name": "_avatar",
          "type": "address"
        }
      ],
      "name": "externalTokenTransferFrom",
      "outputs": [
        {
          "name": "",
          "type": "bool"
        }
      ],
      "payable": false,
      "stateMutability": "nonpayable",
      "type": "function"
    },
    {
      "constant": false,
      "inputs": [
        {
          "name": "_externalToken",
          "type": "address"
        },
        {
          "name": "_spender",
          "type": "address"
        },
        {
          "name": "_addedValue",
          "type": "uint256"
        },
        {
          "name": "_avatar",
          "type": "address"
        }
      ],
      "name": "externalTokenIncreaseApproval",
      "outputs": [
        {
          "name": "",
          "type": "bool"
        }
      ],
      "payable": false,
      "stateMutability": "nonpayable",
      "type": "function"
    },
    {
      "constant": false,
      "inputs": [
        {
          "name": "_externalToken",
          "type": "address"
        },
        {
          "name": "_spender",
          "type": "address"
        },
        {
          "name": "_subtractedValue",
          "type": "uint256"
        },
        {
          "name": "_avatar",
          "type": "address"
        }
      ],
      "name": "externalTokenDecreaseApproval",
      "outputs": [
        {
          "name": "",
          "type": "bool"
        }
      ],
      "payable": false,
      "stateMutability": "nonpayable",
      "type": "function"
    },
    {
      "constant": true,
      "inputs": [
        {
          "name": "_avatar",
          "type": "address"
        }
      ],
      "name": "getNativeReputation",
      "outputs": [
        {
          "name": "",
          "type": "address"
        }
      ],
      "payable": false,
      "stateMutability": "view",
      "type": "function"
    }
  ],
  "bytecode": "0x60806040523480156200001157600080fd5b5060405160208062007d2a8339810180604052810190808051906020019092919050505080600160006101000a81548173ffffffffffffffffffffffffffffffffffffffff021916908373ffffffffffffffffffffffffffffffffffffffff160217905550600160009054906101000a900473ffffffffffffffffffffffffffffffffffffffff1673ffffffffffffffffffffffffffffffffffffffff1663e1758bd86040518163ffffffff167c0100000000000000000000000000000000000000000000000000000000028152600401602060405180830381600087803b158015620000fd57600080fd5b505af115801562000112573d6000803e3d6000fd5b505050506040513d60208110156200012957600080fd5b8101908080519060200190929190505050600260006101000a81548173ffffffffffffffffffffffffffffffffffffffff021916908373ffffffffffffffffffffffffffffffffffffffff160217905550600160009054906101000a900473ffffffffffffffffffffffffffffffffffffffff1673ffffffffffffffffffffffffffffffffffffffff166389ae1c906040518163ffffffff167c0100000000000000000000000000000000000000000000000000000000028152600401602060405180830381600087803b1580156200020157600080fd5b505af115801562000216573d6000803e3d6000fd5b505050506040513d60208110156200022d57600080fd5b8101908080519060200190929190505050600360006101000a81548173ffffffffffffffffffffffffffffffffffffffff021916908373ffffffffffffffffffffffffffffffffffffffff16021790555060408051908101604052806000600102600019168152602001601f7c0100000000000000000000000000000000000000000000000000000000027bffffffffffffffffffffffffffffffffffffffffffffffffffffffff19168152506000803373ffffffffffffffffffffffffffffffffffffffff1673ffffffffffffffffffffffffffffffffffffffff1681526020019081526020016000206000820151816000019060001916905560208201518160010160006101000a81548163ffffffff02191690837c010000000000000000000000000000000000000000000000000000000090040217905550905050506179ad806200037d6000396000f30060806040526004361061018b576000357c0100000000000000000000000000000000000000000000000000000000900463ffffffff168063039de01d1461019d578063177eebb0146102185780631c4d56081461027a57806320204fb7146102f95780633a02263c1461039057806342427bf8146103e75780634422d372146104625780634f52b5be146104de5780635aef7de614610559578063634965da146105b05780636407e43214610635578063644b98ed146106ba5780636c525b131461075f5780636e94d278146107ba578063814784f61461083f578063824f2f1f146108a157806389ae1c90146108ff5780638da03997146109565780639b51e35a146109d95780639be2faed14610a8e578063b9a04cdd14610b09578063c6ab78b914610bae578063db6149ce14610c53578063e08738da14610cf7578063e1758bd814610d76578063e4537a7414610dcd578063e869d45f14610e56578063e8c98b2214610f08578063eaf994b214610f84578063f76488be14611009578063fb4856a214611084575b34801561019757600080fd5b50600080fd5b3480156101a957600080fd5b506101fe600480360381019080803573ffffffffffffffffffffffffffffffffffffffff169060200190929190803573ffffffffffffffffffffffffffffffffffffffff169060200190929190505050611149565b604051808215151515815260200191505060405180910390f35b34801561022457600080fd5b50610259600480360381019080803573ffffffffffffffffffffffffffffffffffffffff1690602001909291905050506118ea565b60405180831515151581526020018281526020019250505060405180910390f35b34801561028657600080fd5b506102db600480360381019080803573ffffffffffffffffffffffffffffffffffffffff169060200190929190803573ffffffffffffffffffffffffffffffffffffffff16906020019092919050505061191b565b60405180826000191660001916815260200191505060405180910390f35b34801561030557600080fd5b50610372600480360381019080803573ffffffffffffffffffffffffffffffffffffffff169060200190929190803590602001908201803590602001919091929391929390803573ffffffffffffffffffffffffffffffffffffffff1690602001909291905050506119c5565b60405180826000191660001916815260200191505060405180910390f35b34801561039c57600080fd5b506103a5611f44565b604051808273ffffffffffffffffffffffffffffffffffffffff1673ffffffffffffffffffffffffffffffffffffffff16815260200191505060405180910390f35b3480156103f357600080fd5b50610448600480360381019080803573ffffffffffffffffffffffffffffffffffffffff169060200190929190803573ffffffffffffffffffffffffffffffffffffffff169060200190929190505050611f6a565b604051808215151515815260200191505060405180910390f35b34801561046e57600080fd5b5061048d60048036038101908080359060200190929190505050612999565b604051808373ffffffffffffffffffffffffffffffffffffffff1673ffffffffffffffffffffffffffffffffffffffff16815260200182600019166000191681526020019250505060405180910390f35b3480156104ea57600080fd5b5061053f600480360381019080803573ffffffffffffffffffffffffffffffffffffffff169060200190929190803573ffffffffffffffffffffffffffffffffffffffff1690602001909291905050506129ec565b604051808215151515815260200191505060405180910390f35b34801561056557600080fd5b5061056e6131e3565b604051808273ffffffffffffffffffffffffffffffffffffffff1673ffffffffffffffffffffffffffffffffffffffff16815260200191505060405180910390f35b3480156105bc57600080fd5b5061061b60048036038101908080359060200190929190803573ffffffffffffffffffffffffffffffffffffffff169060200190929190803573ffffffffffffffffffffffffffffffffffffffff169060200190929190505050613209565b604051808215151515815260200191505060405180910390f35b34801561064157600080fd5b506106a060048036038101908080359060200190929190803573ffffffffffffffffffffffffffffffffffffffff169060200190929190803573ffffffffffffffffffffffffffffffffffffffff16906020019092919050505061378e565b604051808215151515815260200191505060405180910390f35b3480156106c657600080fd5b50610745600480360381019080803573ffffffffffffffffffffffffffffffffffffffff169060200190929190803573ffffffffffffffffffffffffffffffffffffffff16906020019092919080359060200190929190803573ffffffffffffffffffffffffffffffffffffffff169060200190929190505050613d78565b604051808215151515815260200191505060405180910390f35b34801561076b57600080fd5b506107a0600480360381019080803573ffffffffffffffffffffffffffffffffffffffff169060200190929190505050614332565b604051808215151515815260200191505060405180910390f35b3480156107c657600080fd5b5061082560048036038101908080359060200190929190803573ffffffffffffffffffffffffffffffffffffffff169060200190929190803573ffffffffffffffffffffffffffffffffffffffff169060200190929190505050614475565b604051808215151515815260200191505060405180910390f35b34801561084b57600080fd5b50610880600480360381019080803573ffffffffffffffffffffffffffffffffffffffff169060200190929190505050614a5f565b60405180831515151581526020018281526020019250505060405180910390f35b3480156108ad57600080fd5b506108e2600480360381019080803573ffffffffffffffffffffffffffffffffffffffff169060200190929190505050614a90565b604051808381526020018281526020019250505060405180910390f35b34801561090b57600080fd5b50610914614b06565b604051808273ffffffffffffffffffffffffffffffffffffffff1673ffffffffffffffffffffffffffffffffffffffff16815260200191505060405180910390f35b34801561096257600080fd5b50610997600480360381019080803573ffffffffffffffffffffffffffffffffffffffff169060200190929190505050614b2c565b604051808273ffffffffffffffffffffffffffffffffffffffff1673ffffffffffffffffffffffffffffffffffffffff16815260200191505060405180910390f35b3480156109e557600080fd5b50610a3a600480360381019080803573ffffffffffffffffffffffffffffffffffffffff169060200190929190803573ffffffffffffffffffffffffffffffffffffffff169060200190929190505050614bb6565b60405180827bffffffffffffffffffffffffffffffffffffffffffffffffffffffff19167bffffffffffffffffffffffffffffffffffffffffffffffffffffffff1916815260200191505060405180910390f35b348015610a9a57600080fd5b50610aef600480360381019080803573ffffffffffffffffffffffffffffffffffffffff169060200190929190803573ffffffffffffffffffffffffffffffffffffffff169060200190929190505050614c89565b604051808215151515815260200191505060405180910390f35b348015610b1557600080fd5b50610b94600480360381019080803573ffffffffffffffffffffffffffffffffffffffff169060200190929190803573ffffffffffffffffffffffffffffffffffffffff16906020019092919080359060200190929190803573ffffffffffffffffffffffffffffffffffffffff169060200190929190505050614cfb565b604051808215151515815260200191505060405180910390f35b348015610bba57600080fd5b50610c39600480360381019080803573ffffffffffffffffffffffffffffffffffffffff169060200190929190803573ffffffffffffffffffffffffffffffffffffffff16906020019092919080359060200190929190803573ffffffffffffffffffffffffffffffffffffffff1690602001909291905050506152b5565b604051808215151515815260200191505060405180910390f35b348015610c5f57600080fd5b50610c94600480360381019080803573ffffffffffffffffffffffffffffffffffffffff16906020019092919050505061586f565b604051808360001916600019168152602001827bffffffffffffffffffffffffffffffffffffffffffffffffffffffff19167bffffffffffffffffffffffffffffffffffffffffffffffffffffffff191681526020019250505060405180910390f35b348015610d0357600080fd5b50610d58600480360381019080803573ffffffffffffffffffffffffffffffffffffffff169060200190929190803573ffffffffffffffffffffffffffffffffffffffff1690602001909291905050506158bc565b60405180826000191660001916815260200191505060405180910390f35b348015610d8257600080fd5b50610d8b615a1c565b604051808273ffffffffffffffffffffffffffffffffffffffff1673ffffffffffffffffffffffffffffffffffffffff16815260200191505060405180910390f35b348015610dd957600080fd5b50610e3c600480360381019080803573ffffffffffffffffffffffffffffffffffffffff1690602001909291908035600019169060200190929190803573ffffffffffffffffffffffffffffffffffffffff169060200190929190505050615a42565b604051808215151515815260200191505060405180910390f35b348015610e6257600080fd5b50610eee600480360381019080803573ffffffffffffffffffffffffffffffffffffffff169060200190929190803560001916906020019092919080357bffffffffffffffffffffffffffffffffffffffffffffffffffffffff19169060200190929190803573ffffffffffffffffffffffffffffffffffffffff169060200190929190505050616146565b604051808215151515815260200191505060405180910390f35b348015610f1457600080fd5b50610f33600480360381019080803590602001909291905050506169e5565b604051808373ffffffffffffffffffffffffffffffffffffffff1673ffffffffffffffffffffffffffffffffffffffff16815260200182600019166000191681526020019250505060405180910390f35b348015610f9057600080fd5b50610fef60048036038101908080359060200190929190803573ffffffffffffffffffffffffffffffffffffffff169060200190929190803573ffffffffffffffffffffffffffffffffffffffff169060200190929190505050616a38565b604051808215151515815260200191505060405180910390f35b34801561101557600080fd5b5061106a600480360381019080803573ffffffffffffffffffffffffffffffffffffffff169060200190929190803573ffffffffffffffffffffffffffffffffffffffff169060200190929190505050617022565b604051808215151515815260200191505060405180910390f35b34801561109057600080fd5b5061112f600480360381019080803573ffffffffffffffffffffffffffffffffffffffff169060200190929190803573ffffffffffffffffffffffffffffffffffffffff169060200190929190803573ffffffffffffffffffffffffffffffffffffffff16906020019092919080359060200190929190803573ffffffffffffffffffffffffffffffffffffffff169060200190929190505050617131565b604051808215151515815260200191505060405180910390f35b600060027c0100000000000000000000000000000000000000000000000000000000027bffffffffffffffffffffffffffffffffffffffffffffffffffffffff191660027c0100000000000000000000000000000000000000000000000000000000026000803373ffffffffffffffffffffffffffffffffffffffff1673ffffffffffffffffffffffffffffffffffffffff16815260200190815260200160002060010160009054906101000a90047c010000000000000000000000000000000000000000000000000000000002167bffffffffffffffffffffffffffffffffffffffffffffffffffffffff191614151561124357600080fd5b7f756e7265676973746572536368656d650000000000000000000000000000000060008090505b6005805490508110156113e55760058181548110151561128657fe5b906000526020600020906002020160000160009054906101000a900473ffffffffffffffffffffffffffffffffffffffff1673ffffffffffffffffffffffffffffffffffffffff1663c1786ab2336005848154811015156112e357fe5b906000526020600020906002020160010154856040518463ffffffff167c0100000000000000000000000000000000000000000000000000000000028152600401808473ffffffffffffffffffffffffffffffffffffffff1673ffffffffffffffffffffffffffffffffffffffff168152602001836000191660001916815260200182600019166000191681526020019350505050602060405180830381600087803b15801561139257600080fd5b505af11580156113a6573d6000803e3d6000fd5b505050506040513d60208110156113bc57600080fd5b810190808051906020019092919050505015156113d857600080fd5b808060010191505061126a565b83600160009054906101000a900473ffffffffffffffffffffffffffffffffffffffff1673ffffffffffffffffffffffffffffffffffffffff168173ffffffffffffffffffffffffffffffffffffffff1614151561144257600080fd5b60007c0100000000000000000000000000000000000000000000000000000000027bffffffffffffffffffffffffffffffffffffffffffffffffffffffff191660017c0100000000000000000000000000000000000000000000000000000000026000808973ffffffffffffffffffffffffffffffffffffffff1673ffffffffffffffffffffffffffffffffffffffff16815260200190815260200160002060010160009054906101000a90047c010000000000000000000000000000000000000000000000000000000002167bffffffffffffffffffffffffffffffffffffffffffffffffffffffff1916141561153d5760009350611761565b60007c0100000000000000000000000000000000000000000000000000000000027bffffffffffffffffffffffffffffffffffffffffffffffffffffffff19166000803373ffffffffffffffffffffffffffffffffffffffff1673ffffffffffffffffffffffffffffffffffffffff16815260200190815260200160002060010160009054906101000a90047c010000000000000000000000000000000000000000000000000000000002196000808973ffffffffffffffffffffffffffffffffffffffff1673ffffffffffffffffffffffffffffffffffffffff16815260200190815260200160002060010160009054906101000a90047c01000000000000000000000000000000000000000000000000000000000216601f7c010000000000000000000000000000000000000000000000000000000002167bffffffffffffffffffffffffffffffffffffffffffffffffffffffff19161415156116a257600080fd5b8573ffffffffffffffffffffffffffffffffffffffff163373ffffffffffffffffffffffffffffffffffffffff167f10bb2cf04cb8b902a8e736d494f1a51003be6d4b16ef6fb95ce62c38445023bf60405160405180910390a36000808773ffffffffffffffffffffffffffffffffffffffff1673ffffffffffffffffffffffffffffffffffffffff1681526020019081526020016000206000808201600090556001820160006101000a81549063ffffffff02191690555050600193505b50600090505b6006805490508110156118e25760068181548110151561178357fe5b906000526020600020906002020160000160009054906101000a900473ffffffffffffffffffffffffffffffffffffffff1673ffffffffffffffffffffffffffffffffffffffff16638043154d336006848154811015156117e057fe5b906000526020600020906002020160010154856040518463ffffffff167c0100000000000000000000000000000000000000000000000000000000028152600401808473ffffffffffffffffffffffffffffffffffffffff1673ffffffffffffffffffffffffffffffffffffffff168152602001836000191660001916815260200182600019166000191681526020019350505050602060405180830381600087803b15801561188f57600080fd5b505af11580156118a3573d6000803e3d6000fd5b505050506040513d60208110156118b957600080fd5b810190808051906020019092919050505015156118d557600080fd5b8080600101915050611767565b505092915050565b60076020528060005260406000206000915090508060000160009054906101000a900460ff16908060010154905082565b600081600160009054906101000a900473ffffffffffffffffffffffffffffffffffffffff1673ffffffffffffffffffffffffffffffffffffffff168173ffffffffffffffffffffffffffffffffffffffff1614151561197a57600080fd5b6000808573ffffffffffffffffffffffffffffffffffffffff1673ffffffffffffffffffffffffffffffffffffffff1681526020019081526020016000206000015491505092915050565b600060107c0100000000000000000000000000000000000000000000000000000000027bffffffffffffffffffffffffffffffffffffffffffffffffffffffff191660107c0100000000000000000000000000000000000000000000000000000000026000803373ffffffffffffffffffffffffffffffffffffffff1673ffffffffffffffffffffffffffffffffffffffff16815260200190815260200160002060010160009054906101000a90047c010000000000000000000000000000000000000000000000000000000002167bffffffffffffffffffffffffffffffffffffffffffffffffffffffff1916141515611abf57600080fd5b7f67656e6572696343616c6c00000000000000000000000000000000000000000060008090505b600580549050811015611c6157600581815481101515611b0257fe5b906000526020600020906002020160000160009054906101000a900473ffffffffffffffffffffffffffffffffffffffff1673ffffffffffffffffffffffffffffffffffffffff1663c1786ab233600584815481101515611b5f57fe5b906000526020600020906002020160010154856040518463ffffffff167c0100000000000000000000000000000000000000000000000000000000028152600401808473ffffffffffffffffffffffffffffffffffffffff1673ffffffffffffffffffffffffffffffffffffffff168152602001836000191660001916815260200182600019166000191681526020019350505050602060405180830381600087803b158015611c0e57600080fd5b505af1158015611c22573d6000803e3d6000fd5b505050506040513d6020811015611c3857600080fd5b81019080805190602001909291905050501515611c5457600080fd5b8080600101915050611ae6565b83600160009054906101000a900473ffffffffffffffffffffffffffffffffffffffff1673ffffffffffffffffffffffffffffffffffffffff168173ffffffffffffffffffffffffffffffffffffffff16141515611cbe57600080fd5b600160009054906101000a900473ffffffffffffffffffffffffffffffffffffffff1673ffffffffffffffffffffffffffffffffffffffff16634650c3088989896040518463ffffffff167c0100000000000000000000000000000000000000000000000000000000028152600401808473ffffffffffffffffffffffffffffffffffffffff1673ffffffffffffffffffffffffffffffffffffffff1681526020018060200182810382528484828181526020019250808284378201915050945050505050600060405180830381600087803b158015611d9d57600080fd5b505af1158015611db1573d6000803e3d6000fd5b505050503d6000853e602084f35b600680549050811015611f3a57600681815481101515611ddb57fe5b906000526020600020906002020160000160009054906101000a900473ffffffffffffffffffffffffffffffffffffffff1673ffffffffffffffffffffffffffffffffffffffff16638043154d33600684815481101515611e3857fe5b906000526020600020906002020160010154856040518463ffffffff167c0100000000000000000000000000000000000000000000000000000000028152600401808473ffffffffffffffffffffffffffffffffffffffff1673ffffffffffffffffffffffffffffffffffffffff168152602001836000191660001916815260200182600019166000191681526020019350505050602060405180830381600087803b158015611ee757600080fd5b505af1158015611efb573d6000803e3d6000fd5b505050506040513d6020811015611f1157600080fd5b81019080805190602001909291905050501515611f2d57600080fd5b8080600101915050611dbf565b5050949350505050565b600460009054906101000a900473ffffffffffffffffffffffffffffffffffffffff1681565b600060087c0100000000000000000000000000000000000000000000000000000000027bffffffffffffffffffffffffffffffffffffffffffffffffffffffff191660087c0100000000000000000000000000000000000000000000000000000000026000803373ffffffffffffffffffffffffffffffffffffffff1673ffffffffffffffffffffffffffffffffffffffff16815260200190815260200160002060010160009054906101000a90047c010000000000000000000000000000000000000000000000000000000002167bffffffffffffffffffffffffffffffffffffffffffffffffffffffff191614151561206457600080fd5b81600160009054906101000a900473ffffffffffffffffffffffffffffffffffffffff1673ffffffffffffffffffffffffffffffffffffffff168173ffffffffffffffffffffffffffffffffffffffff161415156120c157600080fd5b600073ffffffffffffffffffffffffffffffffffffffff16600460009054906101000a900473ffffffffffffffffffffffffffffffffffffffff1673ffffffffffffffffffffffffffffffffffffffff1614151561211e57600080fd5b600073ffffffffffffffffffffffffffffffffffffffff168473ffffffffffffffffffffffffffffffffffffffff161415151561215a57600080fd5b83600460006101000a81548173ffffffffffffffffffffffffffffffffffffffff021916908373ffffffffffffffffffffffffffffffffffffffff160217905550600160009054906101000a900473ffffffffffffffffffffffffffffffffffffffff1673ffffffffffffffffffffffffffffffffffffffff1663f2fde38b856040518263ffffffff167c0100000000000000000000000000000000000000000000000000000000028152600401808273ffffffffffffffffffffffffffffffffffffffff1673ffffffffffffffffffffffffffffffffffffffff168152602001915050600060405180830381600087803b15801561225857600080fd5b505af115801561226c573d6000803e3d6000fd5b505050508373ffffffffffffffffffffffffffffffffffffffff16600160009054906101000a900473ffffffffffffffffffffffffffffffffffffffff1673ffffffffffffffffffffffffffffffffffffffff16638da5cb5b6040518163ffffffff167c0100000000000000000000000000000000000000000000000000000000028152600401602060405180830381600087803b15801561230d57600080fd5b505af1158015612321573d6000803e3d6000fd5b505050506040513d602081101561233757600080fd5b810190808051906020019092919050505073ffffffffffffffffffffffffffffffffffffffff1614151561236a57600080fd5b3073ffffffffffffffffffffffffffffffffffffffff16600260009054906101000a900473ffffffffffffffffffffffffffffffffffffffff1673ffffffffffffffffffffffffffffffffffffffff16638da5cb5b6040518163ffffffff167c0100000000000000000000000000000000000000000000000000000000028152600401602060405180830381600087803b15801561240757600080fd5b505af115801561241b573d6000803e3d6000fd5b505050506040513d602081101561243157600080fd5b810190808051906020019092919050505073ffffffffffffffffffffffffffffffffffffffff16141561262e57600260009054906101000a900473ffffffffffffffffffffffffffffffffffffffff1673ffffffffffffffffffffffffffffffffffffffff1663f2fde38b856040518263ffffffff167c0100000000000000000000000000000000000000000000000000000000028152600401808273ffffffffffffffffffffffffffffffffffffffff1673ffffffffffffffffffffffffffffffffffffffff168152602001915050600060405180830381600087803b15801561251b57600080fd5b505af115801561252f573d6000803e3d6000fd5b505050508373ffffffffffffffffffffffffffffffffffffffff16600260009054906101000a900473ffffffffffffffffffffffffffffffffffffffff1673ffffffffffffffffffffffffffffffffffffffff16638da5cb5b6040518163ffffffff167c0100000000000000000000000000000000000000000000000000000000028152600401602060405180830381600087803b1580156125d057600080fd5b505af11580156125e4573d6000803e3d6000fd5b505050506040513d60208110156125fa57600080fd5b810190808051906020019092919050505073ffffffffffffffffffffffffffffffffffffffff1614151561262d57600080fd5b5b3073ffffffffffffffffffffffffffffffffffffffff16600360009054906101000a900473ffffffffffffffffffffffffffffffffffffffff1673ffffffffffffffffffffffffffffffffffffffff16638da5cb5b6040518163ffffffff167c0100000000000000000000000000000000000000000000000000000000028152600401602060405180830381600087803b1580156126cb57600080fd5b505af11580156126df573d6000803e3d6000fd5b505050506040513d60208110156126f557600080fd5b810190808051906020019092919050505073ffffffffffffffffffffffffffffffffffffffff1614156128f257600360009054906101000a900473ffffffffffffffffffffffffffffffffffffffff1673ffffffffffffffffffffffffffffffffffffffff1663f2fde38b856040518263ffffffff167c0100000000000000000000000000000000000000000000000000000000028152600401808273ffffffffffffffffffffffffffffffffffffffff1673ffffffffffffffffffffffffffffffffffffffff168152602001915050600060405180830381600087803b1580156127df57600080fd5b505af11580156127f3573d6000803e3d6000fd5b505050508373ffffffffffffffffffffffffffffffffffffffff16600360009054906101000a900473ffffffffffffffffffffffffffffffffffffffff1673ffffffffffffffffffffffffffffffffffffffff16638da5cb5b6040518163ffffffff167c0100000000000000000000000000000000000000000000000000000000028152600401602060405180830381600087803b15801561289457600080fd5b505af11580156128a8573d6000803e3d6000fd5b505050506040513d60208110156128be57600080fd5b810190808051906020019092919050505073ffffffffffffffffffffffffffffffffffffffff161415156128f157600080fd5b5b3073ffffffffffffffffffffffffffffffffffffffff167fdb7cbacf8df312d794506c0cc9af07f64d29ca075796ea2e950a3832cc9a63dd600460009054906101000a900473ffffffffffffffffffffffffffffffffffffffff16604051808273ffffffffffffffffffffffffffffffffffffffff1673ffffffffffffffffffffffffffffffffffffffff16815260200191505060405180910390a2600191505092915050565b6005818154811015156129a857fe5b90600052602060002090600202016000915090508060000160009054906101000a900473ffffffffffffffffffffffffffffffffffffffff16908060010154905082565b60006129f6617876565b6129fe617892565b60008060047c0100000000000000000000000000000000000000000000000000000000027bffffffffffffffffffffffffffffffffffffffffffffffffffffffff191660047c0100000000000000000000000000000000000000000000000000000000026000803373ffffffffffffffffffffffffffffffffffffffff1673ffffffffffffffffffffffffffffffffffffffff16815260200190815260200160002060010160009054906101000a90047c010000000000000000000000000000000000000000000000000000000002167bffffffffffffffffffffffffffffffffffffffffffffffffffffffff1916141515612af957600080fd5b85600160009054906101000a900473ffffffffffffffffffffffffffffffffffffffff1673ffffffffffffffffffffffffffffffffffffffff168173ffffffffffffffffffffffffffffffffffffffff16141515612b5657600080fd5b8773ffffffffffffffffffffffffffffffffffffffff1663e2b0caef6040518163ffffffff167c0100000000000000000000000000000000000000000000000000000000028152600401602060405180830381600087803b158015612bba57600080fd5b505af1158015612bce573d6000803e3d6000fd5b505050506040513d6020811015612be457600080fd5b810190808051906020019092919050505092506000915060006002811115612c0857fe5b836002811115612c1457fe5b1480612c355750600280811115612c2757fe5b836002811115612c3357fe5b145b15612ea957600760008973ffffffffffffffffffffffffffffffffffffffff1673ffffffffffffffffffffffffffffffffffffffff1681526020019081526020016000206040805190810160405290816000820160009054906101000a900460ff161515151581526020016001820154815250509450846000015115612ea85760016005805490500385602001511015612e2f576005600160058054905003815481101515612ce057fe5b90600052602060002090600202016040805190810160405290816000820160009054906101000a900473ffffffffffffffffffffffffffffffffffffffff1673ffffffffffffffffffffffffffffffffffffffff1673ffffffffffffffffffffffffffffffffffffffff168152602001600182015460001916600019168152505093508360058660200151815481101515612d7757fe5b906000526020600020906002020160008201518160000160006101000a81548173ffffffffffffffffffffffffffffffffffffffff021916908373ffffffffffffffffffffffffffffffffffffffff16021790555060208201518160010190600019169055905050846020015160076000866000015173ffffffffffffffffffffffffffffffffffffffff1673ffffffffffffffffffffffffffffffffffffffff168152602001908152602001600020600101819055505b6005805480919060019003612e4491906178c5565b50600760008973ffffffffffffffffffffffffffffffffffffffff1673ffffffffffffffffffffffffffffffffffffffff168152602001908152602001600020600080820160006101000a81549060ff021916905560018201600090555050600191505b5b60016002811115612eb657fe5b836002811115612ec257fe5b1480612ee35750600280811115612ed557fe5b836002811115612ee157fe5b145b1561315757600860008973ffffffffffffffffffffffffffffffffffffffff1673ffffffffffffffffffffffffffffffffffffffff1681526020019081526020016000206040805190810160405290816000820160009054906101000a900460ff16151515158152602001600182015481525050945084600001511561315657600160068054905003856020015110156130dd576006600160068054905003815481101515612f8e57fe5b90600052602060002090600202016040805190810160405290816000820160009054906101000a900473ffffffffffffffffffffffffffffffffffffffff1673ffffffffffffffffffffffffffffffffffffffff1673ffffffffffffffffffffffffffffffffffffffff16815260200160018201546000191660001916815250509350836006866020015181548110151561302557fe5b906000526020600020906002020160008201518160000160006101000a81548173ffffffffffffffffffffffffffffffffffffffff021916908373ffffffffffffffffffffffffffffffffffffffff16021790555060208201518160010190600019169055905050846020015160086000866000015173ffffffffffffffffffffffffffffffffffffffff1673ffffffffffffffffffffffffffffffffffffffff168152602001908152602001600020600101819055505b60068054809190600190036130f291906178c5565b50600860008973ffffffffffffffffffffffffffffffffffffffff1673ffffffffffffffffffffffffffffffffffffffff168152602001908152602001600020600080820160006101000a81549060ff021916905560018201600090555050600191505b5b81156131d5578773ffffffffffffffffffffffffffffffffffffffff167fcdf1a50ea6b7de555bd409f8a4a53ea43c6dc6b4caa961889da9e005f21bbaa98660200151600060028111156131a757fe5b8660028111156131b357fe5b1460405180838152602001821515151581526020019250505060405180910390a25b819550505050505092915050565b600160009054906101000a900473ffffffffffffffffffffffffffffffffffffffff1681565b600060017c0100000000000000000000000000000000000000000000000000000000027bffffffffffffffffffffffffffffffffffffffffffffffffffffffff191660017c0100000000000000000000000000000000000000000000000000000000026000803373ffffffffffffffffffffffffffffffffffffffff1673ffffffffffffffffffffffffffffffffffffffff16815260200190815260200160002060010160009054906101000a90047c010000000000000000000000000000000000000000000000000000000002167bffffffffffffffffffffffffffffffffffffffffffffffffffffffff191614151561330357600080fd5b7f73656e644574686572000000000000000000000000000000000000000000000060008090505b6005805490508110156134a55760058181548110151561334657fe5b906000526020600020906002020160000160009054906101000a900473ffffffffffffffffffffffffffffffffffffffff1673ffffffffffffffffffffffffffffffffffffffff1663c1786ab2336005848154811015156133a357fe5b906000526020600020906002020160010154856040518463ffffffff167c0100000000000000000000000000000000000000000000000000000000028152600401808473ffffffffffffffffffffffffffffffffffffffff1673ffffffffffffffffffffffffffffffffffffffff168152602001836000191660001916815260200182600019166000191681526020019350505050602060405180830381600087803b15801561345257600080fd5b505af1158015613466573d6000803e3d6000fd5b505050506040513d602081101561347c57600080fd5b8101908080519060200190929190505050151561349857600080fd5b808060010191505061332a565b83600160009054906101000a900473ffffffffffffffffffffffffffffffffffffffff1673ffffffffffffffffffffffffffffffffffffffff168173ffffffffffffffffffffffffffffffffffffffff1614151561350257600080fd5b600160009054906101000a900473ffffffffffffffffffffffffffffffffffffffff1673ffffffffffffffffffffffffffffffffffffffff1663cb16d4a288886040518363ffffffff167c0100000000000000000000000000000000000000000000000000000000028152600401808381526020018273ffffffffffffffffffffffffffffffffffffffff1673ffffffffffffffffffffffffffffffffffffffff16815260200192505050602060405180830381600087803b1580156135c757600080fd5b505af11580156135db573d6000803e3d6000fd5b505050506040513d60208110156135f157600080fd5b8101908080519060200190929190505050935050600090505b6006805490508110156137855760068181548110151561362657fe5b906000526020600020906002020160000160009054906101000a900473ffffffffffffffffffffffffffffffffffffffff1673ffffffffffffffffffffffffffffffffffffffff16638043154d3360068481548110151561368357fe5b906000526020600020906002020160010154856040518463ffffffff167c0100000000000000000000000000000000000000000000000000000000028152600401808473ffffffffffffffffffffffffffffffffffffffff1673ffffffffffffffffffffffffffffffffffffffff168152602001836000191660001916815260200182600019166000191681526020019350505050602060405180830381600087803b15801561373257600080fd5b505af1158015613746573d6000803e3d6000fd5b505050506040513d602081101561375c57600080fd5b8101908080519060200190929190505050151561377857600080fd5b808060010191505061360a565b50509392505050565b600060017c0100000000000000000000000000000000000000000000000000000000027bffffffffffffffffffffffffffffffffffffffffffffffffffffffff191660017c0100000000000000000000000000000000000000000000000000000000026000803373ffffffffffffffffffffffffffffffffffffffff1673ffffffffffffffffffffffffffffffffffffffff16815260200190815260200160002060010160009054906101000a90047c010000000000000000000000000000000000000000000000000000000002167bffffffffffffffffffffffffffffffffffffffffffffffffffffffff191614151561388857600080fd5b7f6d696e74546f6b656e730000000000000000000000000000000000000000000060008090505b600580549050811015613a2a576005818154811015156138cb57fe5b906000526020600020906002020160000160009054906101000a900473ffffffffffffffffffffffffffffffffffffffff1673ffffffffffffffffffffffffffffffffffffffff1663c1786ab23360058481548110151561392857fe5b906000526020600020906002020160010154856040518463ffffffff167c0100000000000000000000000000000000000000000000000000000000028152600401808473ffffffffffffffffffffffffffffffffffffffff1673ffffffffffffffffffffffffffffffffffffffff168152602001836000191660001916815260200182600019166000191681526020019350505050602060405180830381600087803b1580156139d757600080fd5b505af11580156139eb573d6000803e3d6000fd5b505050506040513d6020811015613a0157600080fd5b81019080805190602001909291905050501515613a1d57600080fd5b80806001019150506138af565b83600160009054906101000a900473ffffffffffffffffffffffffffffffffffffffff1673ffffffffffffffffffffffffffffffffffffffff168173ffffffffffffffffffffffffffffffffffffffff16141515613a8757600080fd5b8573ffffffffffffffffffffffffffffffffffffffff163373ffffffffffffffffffffffffffffffffffffffff167f21f9c9a1a1f9a311a50f15fec5c1faa9e21fc9edf964f0fdecba5bd490484c5e896040518082815260200191505060405180910390a3600260009054906101000a900473ffffffffffffffffffffffffffffffffffffffff1673ffffffffffffffffffffffffffffffffffffffff166340c10f1987896040518363ffffffff167c0100000000000000000000000000000000000000000000000000000000028152600401808373ffffffffffffffffffffffffffffffffffffffff1673ffffffffffffffffffffffffffffffffffffffff16815260200182815260200192505050602060405180830381600087803b158015613bb157600080fd5b505af1158015613bc5573d6000803e3d6000fd5b505050506040513d6020811015613bdb57600080fd5b8101908080519060200190929190505050935050600090505b600680549050811015613d6f57600681815481101515613c1057fe5b906000526020600020906002020160000160009054906101000a900473ffffffffffffffffffffffffffffffffffffffff1673ffffffffffffffffffffffffffffffffffffffff16638043154d33600684815481101515613c6d57fe5b906000526020600020906002020160010154856040518463ffffffff167c0100000000000000000000000000000000000000000000000000000000028152600401808473ffffffffffffffffffffffffffffffffffffffff1673ffffffffffffffffffffffffffffffffffffffff168152602001836000191660001916815260200182600019166000191681526020019350505050602060405180830381600087803b158015613d1c57600080fd5b505af1158015613d30573d6000803e3d6000fd5b505050506040513d6020811015613d4657600080fd5b81019080805190602001909291905050501515613d6257600080fd5b8080600101915050613bf4565b50509392505050565b600060017c0100000000000000000000000000000000000000000000000000000000027bffffffffffffffffffffffffffffffffffffffffffffffffffffffff191660017c0100000000000000000000000000000000000000000000000000000000026000803373ffffffffffffffffffffffffffffffffffffffff1673ffffffffffffffffffffffffffffffffffffffff16815260200190815260200160002060010160009054906101000a90047c010000000000000000000000000000000000000000000000000000000002167bffffffffffffffffffffffffffffffffffffffffffffffffffffffff1916141515613e7257600080fd5b7f65787465726e616c546f6b656e496e637265617365417070726f76616c00000060008090505b60058054905081101561401457600581815481101515613eb557fe5b906000526020600020906002020160000160009054906101000a900473ffffffffffffffffffffffffffffffffffffffff1673ffffffffffffffffffffffffffffffffffffffff1663c1786ab233600584815481101515613f1257fe5b906000526020600020906002020160010154856040518463ffffffff167c0100000000000000000000000000000000000000000000000000000000028152600401808473ffffffffffffffffffffffffffffffffffffffff1673ffffffffffffffffffffffffffffffffffffffff168152602001836000191660001916815260200182600019166000191681526020019350505050602060405180830381600087803b158015613fc157600080fd5b505af1158015613fd5573d6000803e3d6000fd5b505050506040513d6020811015613feb57600080fd5b8101908080519060200190929190505050151561400757600080fd5b8080600101915050613e99565b83600160009054906101000a900473ffffffffffffffffffffffffffffffffffffffff1673ffffffffffffffffffffffffffffffffffffffff168173ffffffffffffffffffffffffffffffffffffffff1614151561407157600080fd5b600160009054906101000a900473ffffffffffffffffffffffffffffffffffffffff1673ffffffffffffffffffffffffffffffffffffffff16638cf1355c8989896040518463ffffffff167c0100000000000000000000000000000000000000000000000000000000028152600401808473ffffffffffffffffffffffffffffffffffffffff1673ffffffffffffffffffffffffffffffffffffffff1681526020018373ffffffffffffffffffffffffffffffffffffffff1673ffffffffffffffffffffffffffffffffffffffff1681526020018281526020019350505050602060405180830381600087803b15801561416a57600080fd5b505af115801561417e573d6000803e3d6000fd5b505050506040513d602081101561419457600080fd5b8101908080519060200190929190505050935050600090505b600680549050811015614328576006818154811015156141c957fe5b906000526020600020906002020160000160009054906101000a900473ffffffffffffffffffffffffffffffffffffffff1673ffffffffffffffffffffffffffffffffffffffff16638043154d3360068481548110151561422657fe5b906000526020600020906002020160010154856040518463ffffffff167c0100000000000000000000000000000000000000000000000000000000028152600401808473ffffffffffffffffffffffffffffffffffffffff1673ffffffffffffffffffffffffffffffffffffffff168152602001836000191660001916815260200182600019166000191681526020019350505050602060405180830381600087803b1580156142d557600080fd5b505af11580156142e9573d6000803e3d6000fd5b505050506040513d60208110156142ff57600080fd5b8101908080519060200190929190505050151561431b57600080fd5b80806001019150506141ad565b5050949350505050565b600081600160009054906101000a900473ffffffffffffffffffffffffffffffffffffffff1673ffffffffffffffffffffffffffffffffffffffff168173ffffffffffffffffffffffffffffffffffffffff1614151561439157600080fd5b6000151561439f3385617720565b151514156143b0576000915061446f565b6000803373ffffffffffffffffffffffffffffffffffffffff1673ffffffffffffffffffffffffffffffffffffffff1681526020019081526020016000206000808201600090556001820160006101000a81549063ffffffff021916905550503373ffffffffffffffffffffffffffffffffffffffff163373ffffffffffffffffffffffffffffffffffffffff167f10bb2cf04cb8b902a8e736d494f1a51003be6d4b16ef6fb95ce62c38445023bf60405160405180910390a3600191505b50919050565b600060017c0100000000000000000000000000000000000000000000000000000000027bffffffffffffffffffffffffffffffffffffffffffffffffffffffff191660017c0100000000000000000000000000000000000000000000000000000000026000803373ffffffffffffffffffffffffffffffffffffffff1673ffffffffffffffffffffffffffffffffffffffff16815260200190815260200160002060010160009054906101000a90047c010000000000000000000000000000000000000000000000000000000002167bffffffffffffffffffffffffffffffffffffffffffffffffffffffff191614151561456f57600080fd5b7f6275726e52657075746174696f6e00000000000000000000000000000000000060008090505b600580549050811015614711576005818154811015156145b257fe5b906000526020600020906002020160000160009054906101000a900473ffffffffffffffffffffffffffffffffffffffff1673ffffffffffffffffffffffffffffffffffffffff1663c1786ab23360058481548110151561460f57fe5b906000526020600020906002020160010154856040518463ffffffff167c0100000000000000000000000000000000000000000000000000000000028152600401808473ffffffffffffffffffffffffffffffffffffffff1673ffffffffffffffffffffffffffffffffffffffff168152602001836000191660001916815260200182600019166000191681526020019350505050602060405180830381600087803b1580156146be57600080fd5b505af11580156146d2573d6000803e3d6000fd5b505050506040513d60208110156146e857600080fd5b8101908080519060200190929190505050151561470457600080fd5b8080600101915050614596565b83600160009054906101000a900473ffffffffffffffffffffffffffffffffffffffff1673ffffffffffffffffffffffffffffffffffffffff168173ffffffffffffffffffffffffffffffffffffffff1614151561476e57600080fd5b8573ffffffffffffffffffffffffffffffffffffffff163373ffffffffffffffffffffffffffffffffffffffff167f186d8887e1b22f9d9b16849c36baa748950d09d9c9b67a4a6ea140eaad00c21c896040518082815260200191505060405180910390a3600360009054906101000a900473ffffffffffffffffffffffffffffffffffffffff1673ffffffffffffffffffffffffffffffffffffffff16639dc29fac87896040518363ffffffff167c0100000000000000000000000000000000000000000000000000000000028152600401808373ffffffffffffffffffffffffffffffffffffffff1673ffffffffffffffffffffffffffffffffffffffff16815260200182815260200192505050602060405180830381600087803b15801561489857600080fd5b505af11580156148ac573d6000803e3d6000fd5b505050506040513d60208110156148c257600080fd5b8101908080519060200190929190505050935050600090505b600680549050811015614a56576006818154811015156148f757fe5b906000526020600020906002020160000160009054906101000a900473ffffffffffffffffffffffffffffffffffffffff1673ffffffffffffffffffffffffffffffffffffffff16638043154d3360068481548110151561495457fe5b906000526020600020906002020160010154856040518463ffffffff167c0100000000000000000000000000000000000000000000000000000000028152600401808473ffffffffffffffffffffffffffffffffffffffff1673ffffffffffffffffffffffffffffffffffffffff168152602001836000191660001916815260200182600019166000191681526020019350505050602060405180830381600087803b158015614a0357600080fd5b505af1158015614a17573d6000803e3d6000fd5b505050506040513d6020811015614a2d57600080fd5b81019080805190602001909291905050501515614a4957600080fd5b80806001019150506148db565b50509392505050565b60086020528060005260406000206000915090508060000160009054906101000a900460ff16908060010154905082565b60008082600160009054906101000a900473ffffffffffffffffffffffffffffffffffffffff1673ffffffffffffffffffffffffffffffffffffffff168173ffffffffffffffffffffffffffffffffffffffff16141515614af057600080fd5b6005805490506006805490509250925050915091565b600360009054906101000a900473ffffffffffffffffffffffffffffffffffffffff1681565b600081600160009054906101000a900473ffffffffffffffffffffffffffffffffffffffff1673ffffffffffffffffffffffffffffffffffffffff168173ffffffffffffffffffffffffffffffffffffffff16141515614b8b57600080fd5b600360009054906101000a900473ffffffffffffffffffffffffffffffffffffffff16915050919050565b600081600160009054906101000a900473ffffffffffffffffffffffffffffffffffffffff1673ffffffffffffffffffffffffffffffffffffffff168173ffffffffffffffffffffffffffffffffffffffff16141515614c1557600080fd5b6000808573ffffffffffffffffffffffffffffffffffffffff1673ffffffffffffffffffffffffffffffffffffffff16815260200190815260200160002060010160009054906101000a90047c01000000000000000000000000000000000000000000000000000000000291505092915050565b600081600160009054906101000a900473ffffffffffffffffffffffffffffffffffffffff1673ffffffffffffffffffffffffffffffffffffffff168173ffffffffffffffffffffffffffffffffffffffff16141515614ce857600080fd5b614cf28484617720565b91505092915050565b600060017c0100000000000000000000000000000000000000000000000000000000027bffffffffffffffffffffffffffffffffffffffffffffffffffffffff191660017c0100000000000000000000000000000000000000000000000000000000026000803373ffffffffffffffffffffffffffffffffffffffff1673ffffffffffffffffffffffffffffffffffffffff16815260200190815260200160002060010160009054906101000a90047c010000000000000000000000000000000000000000000000000000000002167bffffffffffffffffffffffffffffffffffffffffffffffffffffffff1916141515614df557600080fd5b7f65787465726e616c546f6b656e5472616e73666572000000000000000000000060008090505b600580549050811015614f9757600581815481101515614e3857fe5b906000526020600020906002020160000160009054906101000a900473ffffffffffffffffffffffffffffffffffffffff1673ffffffffffffffffffffffffffffffffffffffff1663c1786ab233600584815481101515614e9557fe5b906000526020600020906002020160010154856040518463ffffffff167c0100000000000000000000000000000000000000000000000000000000028152600401808473ffffffffffffffffffffffffffffffffffffffff1673ffffffffffffffffffffffffffffffffffffffff168152602001836000191660001916815260200182600019166000191681526020019350505050602060405180830381600087803b158015614f4457600080fd5b505af1158015614f58573d6000803e3d6000fd5b505050506040513d6020811015614f6e57600080fd5b81019080805190602001909291905050501515614f8a57600080fd5b8080600101915050614e1c565b83600160009054906101000a900473ffffffffffffffffffffffffffffffffffffffff1673ffffffffffffffffffffffffffffffffffffffff168173ffffffffffffffffffffffffffffffffffffffff16141515614ff457600080fd5b600160009054906101000a900473ffffffffffffffffffffffffffffffffffffffff1673ffffffffffffffffffffffffffffffffffffffff1663dab0efff8989896040518463ffffffff167c0100000000000000000000000000000000000000000000000000000000028152600401808473ffffffffffffffffffffffffffffffffffffffff1673ffffffffffffffffffffffffffffffffffffffff1681526020018373ffffffffffffffffffffffffffffffffffffffff1673ffffffffffffffffffffffffffffffffffffffff1681526020018281526020019350505050602060405180830381600087803b1580156150ed57600080fd5b505af1158015615101573d6000803e3d6000fd5b505050506040513d602081101561511757600080fd5b8101908080519060200190929190505050935050600090505b6006805490508110156152ab5760068181548110151561514c57fe5b906000526020600020906002020160000160009054906101000a900473ffffffffffffffffffffffffffffffffffffffff1673ffffffffffffffffffffffffffffffffffffffff16638043154d336006848154811015156151a957fe5b906000526020600020906002020160010154856040518463ffffffff167c0100000000000000000000000000000000000000000000000000000000028152600401808473ffffffffffffffffffffffffffffffffffffffff1673ffffffffffffffffffffffffffffffffffffffff168152602001836000191660001916815260200182600019166000191681526020019350505050602060405180830381600087803b15801561525857600080fd5b505af115801561526c573d6000803e3d6000fd5b505050506040513d602081101561528257600080fd5b8101908080519060200190929190505050151561529e57600080fd5b8080600101915050615130565b5050949350505050565b600060017c0100000000000000000000000000000000000000000000000000000000027bffffffffffffffffffffffffffffffffffffffffffffffffffffffff191660017c0100000000000000000000000000000000000000000000000000000000026000803373ffffffffffffffffffffffffffffffffffffffff1673ffffffffffffffffffffffffffffffffffffffff16815260200190815260200160002060010160009054906101000a90047c010000000000000000000000000000000000000000000000000000000002167bffffffffffffffffffffffffffffffffffffffffffffffffffffffff19161415156153af57600080fd5b7f65787465726e616c546f6b656e4465637265617365417070726f76616c00000060008090505b600580549050811015615551576005818154811015156153f257fe5b906000526020600020906002020160000160009054906101000a900473ffffffffffffffffffffffffffffffffffffffff1673ffffffffffffffffffffffffffffffffffffffff1663c1786ab23360058481548110151561544f57fe5b906000526020600020906002020160010154856040518463ffffffff167c0100000000000000000000000000000000000000000000000000000000028152600401808473ffffffffffffffffffffffffffffffffffffffff1673ffffffffffffffffffffffffffffffffffffffff168152602001836000191660001916815260200182600019166000191681526020019350505050602060405180830381600087803b1580156154fe57600080fd5b505af1158015615512573d6000803e3d6000fd5b505050506040513d602081101561552857600080fd5b8101908080519060200190929190505050151561554457600080fd5b80806001019150506153d6565b83600160009054906101000a900473ffffffffffffffffffffffffffffffffffffffff1673ffffffffffffffffffffffffffffffffffffffff168173ffffffffffffffffffffffffffffffffffffffff161415156155ae57600080fd5b600160009054906101000a900473ffffffffffffffffffffffffffffffffffffffff1673ffffffffffffffffffffffffffffffffffffffff1663d29ab9c48989896040518463ffffffff167c0100000000000000000000000000000000000000000000000000000000028152600401808473ffffffffffffffffffffffffffffffffffffffff1673ffffffffffffffffffffffffffffffffffffffff1681526020018373ffffffffffffffffffffffffffffffffffffffff1673ffffffffffffffffffffffffffffffffffffffff1681526020018281526020019350505050602060405180830381600087803b1580156156a757600080fd5b505af11580156156bb573d6000803e3d6000fd5b505050506040513d60208110156156d157600080fd5b8101908080519060200190929190505050935050600090505b6006805490508110156158655760068181548110151561570657fe5b906000526020600020906002020160000160009054906101000a900473ffffffffffffffffffffffffffffffffffffffff1673ffffffffffffffffffffffffffffffffffffffff16638043154d3360068481548110151561576357fe5b906000526020600020906002020160010154856040518463ffffffff167c0100000000000000000000000000000000000000000000000000000000028152600401808473ffffffffffffffffffffffffffffffffffffffff1673ffffffffffffffffffffffffffffffffffffffff168152602001836000191660001916815260200182600019166000191681526020019350505050602060405180830381600087803b15801561581257600080fd5b505af1158015615826573d6000803e3d6000fd5b505050506040513d602081101561583c57600080fd5b8101908080519060200190929190505050151561585857600080fd5b80806001019150506156ea565b5050949350505050565b60006020528060005260406000206000915090508060000154908060010160009054906101000a90047c010000000000000000000000000000000000000000000000000000000002905082565b60006158c6617876565b600760008573ffffffffffffffffffffffffffffffffffffffff1673ffffffffffffffffffffffffffffffffffffffff1681526020019081526020016000206040805190810160405290816000820160009054906101000a900460ff16151515158152602001600182015481525050905080600001511561596d576005816020015181548110151561595457fe5b9060005260206000209060020201600101549150615a15565b600860008573ffffffffffffffffffffffffffffffffffffffff1673ffffffffffffffffffffffffffffffffffffffff1681526020019081526020016000206040805190810160405290816000820160009054906101000a900460ff161515151581526020016001820154815250509050806000015115615a1457600681602001518154811015156159fb57fe5b9060005260206000209060020201600101549150615a15565b5b5092915050565b600260009054906101000a900473ffffffffffffffffffffffffffffffffffffffff1681565b60008060047c0100000000000000000000000000000000000000000000000000000000027bffffffffffffffffffffffffffffffffffffffffffffffffffffffff191660047c0100000000000000000000000000000000000000000000000000000000026000803373ffffffffffffffffffffffffffffffffffffffff1673ffffffffffffffffffffffffffffffffffffffff16815260200190815260200160002060010160009054906101000a90047c010000000000000000000000000000000000000000000000000000000002167bffffffffffffffffffffffffffffffffffffffffffffffffffffffff1916141515615b3d57600080fd5b82600160009054906101000a900473ffffffffffffffffffffffffffffffffffffffff1673ffffffffffffffffffffffffffffffffffffffff168173ffffffffffffffffffffffffffffffffffffffff16141515615b9a57600080fd5b8573ffffffffffffffffffffffffffffffffffffffff1663e2b0caef6040518163ffffffff167c0100000000000000000000000000000000000000000000000000000000028152600401602060405180830381600087803b158015615bfe57600080fd5b505af1158015615c12573d6000803e3d6000fd5b505050506040513d6020811015615c2857600080fd5b8101908080519060200190929190505050915060006002811115615c4857fe5b826002811115615c5457fe5b1480615c755750600280811115615c6757fe5b826002811115615c7357fe5b145b15615e8457600760008773ffffffffffffffffffffffffffffffffffffffff1673ffffffffffffffffffffffffffffffffffffffff16815260200190815260200160002060000160009054906101000a900460ff161515615e1757600560408051908101604052808873ffffffffffffffffffffffffffffffffffffffff16815260200187600019168152509080600181540180825580915050906001820390600052602060002090600202016000909192909190915060008201518160000160006101000a81548173ffffffffffffffffffffffffffffffffffffffff021916908373ffffffffffffffffffffffffffffffffffffffff160217905550602082015181600101906000191690555050506040805190810160405280600115158152602001600160058054905003815250600760008873ffffffffffffffffffffffffffffffffffffffff1673ffffffffffffffffffffffffffffffffffffffff16815260200190815260200160002060008201518160000160006101000a81548160ff02191690831515021790555060208201518160010155905050615e83565b846005600760008973ffffffffffffffffffffffffffffffffffffffff1673ffffffffffffffffffffffffffffffffffffffff16815260200190815260200160002060010154815481101515615e6957fe5b906000526020600020906002020160010181600019169055505b5b60016002811115615e9157fe5b826002811115615e9d57fe5b1480615ebe5750600280811115615eb057fe5b826002811115615ebc57fe5b145b156160cd57600860008773ffffffffffffffffffffffffffffffffffffffff1673ffffffffffffffffffffffffffffffffffffffff16815260200190815260200160002060000160009054906101000a900460ff16151561606057600660408051908101604052808873ffffffffffffffffffffffffffffffffffffffff16815260200187600019168152509080600181540180825580915050906001820390600052602060002090600202016000909192909190915060008201518160000160006101000a81548173ffffffffffffffffffffffffffffffffffffffff021916908373ffffffffffffffffffffffffffffffffffffffff160217905550602082015181600101906000191690555050506040805190810160405280600115158152602001600160068054905003815250600860008873ffffffffffffffffffffffffffffffffffffffff1673ffffffffffffffffffffffffffffffffffffffff16815260200190815260200160002060008201518160000160006101000a81548160ff021916908315150217905550602082015181600101559050506160cc565b846006600860008973ffffffffffffffffffffffffffffffffffffffff1673ffffffffffffffffffffffffffffffffffffffff168152602001908152602001600020600101548154811015156160b257fe5b906000526020600020906002020160010181600019169055505b5b8573ffffffffffffffffffffffffffffffffffffffff167f78800d7333b8d0174a0845569e3913b7ce4a3c03ca444dd9904172fc14f2fdad868460405180836000191660001916815260200182600281111561612557fe5b60ff1681526020019250505060405180910390a26001925050509392505050565b60006161506178f7565b60027c0100000000000000000000000000000000000000000000000000000000027bffffffffffffffffffffffffffffffffffffffffffffffffffffffff191660027c0100000000000000000000000000000000000000000000000000000000026000803373ffffffffffffffffffffffffffffffffffffffff1673ffffffffffffffffffffffffffffffffffffffff16815260200190815260200160002060010160009054906101000a90047c010000000000000000000000000000000000000000000000000000000002167bffffffffffffffffffffffffffffffffffffffffffffffffffffffff191614151561624857600080fd5b7f7265676973746572536368656d6500000000000000000000000000000000000060008090505b6005805490508110156163ea5760058181548110151561628b57fe5b906000526020600020906002020160000160009054906101000a900473ffffffffffffffffffffffffffffffffffffffff1673ffffffffffffffffffffffffffffffffffffffff1663c1786ab2336005848154811015156162e857fe5b906000526020600020906002020160010154856040518463ffffffff167c0100000000000000000000000000000000000000000000000000000000028152600401808473ffffffffffffffffffffffffffffffffffffffff1673ffffffffffffffffffffffffffffffffffffffff168152602001836000191660001916815260200182600019166000191681526020019350505050602060405180830381600087803b15801561639757600080fd5b505af11580156163ab573d6000803e3d6000fd5b505050506040513d60208110156163c157600080fd5b810190808051906020019092919050505015156163dd57600080fd5b808060010191505061626f565b84600160009054906101000a900473ffffffffffffffffffffffffffffffffffffffff1673ffffffffffffffffffffffffffffffffffffffff168173ffffffffffffffffffffffffffffffffffffffff1614151561644757600080fd5b6000808a73ffffffffffffffffffffffffffffffffffffffff1673ffffffffffffffffffffffffffffffffffffffff1681526020019081526020016000206040805190810160405290816000820154600019166000191681526020016001820160009054906101000a90047c0100000000000000000000000000000000000000000000000000000000027bffffffffffffffffffffffffffffffffffffffffffffffffffffffff19167bffffffffffffffffffffffffffffffffffffffffffffffffffffffff191681525050935060007c0100000000000000000000000000000000000000000000000000000000027bffffffffffffffffffffffffffffffffffffffffffffffffffffffff19166000803373ffffffffffffffffffffffffffffffffffffffff1673ffffffffffffffffffffffffffffffffffffffff16815260200190815260200160002060010160009054906101000a90047c0100000000000000000000000000000000000000000000000000000000021985602001518918601f7c01000000000000000000000000000000000000000000000000000000000216167bffffffffffffffffffffffffffffffffffffffffffffffffffffffff191614151561661657600080fd5b60007c0100000000000000000000000000000000000000000000000000000000027bffffffffffffffffffffffffffffffffffffffffffffffffffffffff19166000803373ffffffffffffffffffffffffffffffffffffffff1673ffffffffffffffffffffffffffffffffffffffff16815260200190815260200160002060010160009054906101000a90047c01000000000000000000000000000000000000000000000000000000000219856020015116601f7c010000000000000000000000000000000000000000000000000000000002167bffffffffffffffffffffffffffffffffffffffffffffffffffffffff191614151561671557600080fd5b876000808b73ffffffffffffffffffffffffffffffffffffffff1673ffffffffffffffffffffffffffffffffffffffff168152602001908152602001600020600001816000191690555060017c01000000000000000000000000000000000000000000000000000000000287176000808b73ffffffffffffffffffffffffffffffffffffffff1673ffffffffffffffffffffffffffffffffffffffff16815260200190815260200160002060010160006101000a81548163ffffffff02191690837c0100000000000000000000000000000000000000000000000000000000900402179055508873ffffffffffffffffffffffffffffffffffffffff163373ffffffffffffffffffffffffffffffffffffffff167f546816e99403df442acb68ef69562682a50762c20a3fb6b472f7af9923736cfc60405160405180910390a36001945050600090505b6006805490508110156169da5760068181548110151561687b57fe5b906000526020600020906002020160000160009054906101000a900473ffffffffffffffffffffffffffffffffffffffff1673ffffffffffffffffffffffffffffffffffffffff16638043154d336006848154811015156168d857fe5b906000526020600020906002020160010154856040518463ffffffff167c0100000000000000000000000000000000000000000000000000000000028152600401808473ffffffffffffffffffffffffffffffffffffffff1673ffffffffffffffffffffffffffffffffffffffff168152602001836000191660001916815260200182600019166000191681526020019350505050602060405180830381600087803b15801561698757600080fd5b505af115801561699b573d6000803e3d6000fd5b505050506040513d60208110156169b157600080fd5b810190808051906020019092919050505015156169cd57600080fd5b808060010191505061685f565b505050949350505050565b6006818154811015156169f457fe5b90600052602060002090600202016000915090508060000160009054906101000a900473ffffffffffffffffffffffffffffffffffffffff16908060010154905082565b600060017c0100000000000000000000000000000000000000000000000000000000027bffffffffffffffffffffffffffffffffffffffffffffffffffffffff191660017c0100000000000000000000000000000000000000000000000000000000026000803373ffffffffffffffffffffffffffffffffffffffff1673ffffffffffffffffffffffffffffffffffffffff16815260200190815260200160002060010160009054906101000a90047c010000000000000000000000000000000000000000000000000000000002167bffffffffffffffffffffffffffffffffffffffffffffffffffffffff1916141515616b3257600080fd5b7f6d696e7452657075746174696f6e00000000000000000000000000000000000060008090505b600580549050811015616cd457600581815481101515616b7557fe5b906000526020600020906002020160000160009054906101000a900473ffffffffffffffffffffffffffffffffffffffff1673ffffffffffffffffffffffffffffffffffffffff1663c1786ab233600584815481101515616bd257fe5b906000526020600020906002020160010154856040518463ffffffff167c0100000000000000000000000000000000000000000000000000000000028152600401808473ffffffffffffffffffffffffffffffffffffffff1673ffffffffffffffffffffffffffffffffffffffff168152602001836000191660001916815260200182600019166000191681526020019350505050602060405180830381600087803b158015616c8157600080fd5b505af1158015616c95573d6000803e3d6000fd5b505050506040513d6020811015616cab57600080fd5b81019080805190602001909291905050501515616cc757600080fd5b8080600101915050616b59565b83600160009054906101000a900473ffffffffffffffffffffffffffffffffffffffff1673ffffffffffffffffffffffffffffffffffffffff168173ffffffffffffffffffffffffffffffffffffffff16141515616d3157600080fd5b8573ffffffffffffffffffffffffffffffffffffffff163373ffffffffffffffffffffffffffffffffffffffff167f837f2931e3df0592458212be4e470025f197feb7a8e39deb5b7f1f1d42e6f262896040518082815260200191505060405180910390a3600360009054906101000a900473ffffffffffffffffffffffffffffffffffffffff1673ffffffffffffffffffffffffffffffffffffffff166340c10f1987896040518363ffffffff167c0100000000000000000000000000000000000000000000000000000000028152600401808373ffffffffffffffffffffffffffffffffffffffff1673ffffffffffffffffffffffffffffffffffffffff16815260200182815260200192505050602060405180830381600087803b158015616e5b57600080fd5b505af1158015616e6f573d6000803e3d6000fd5b505050506040513d6020811015616e8557600080fd5b8101908080519060200190929190505050935050600090505b60068054905081101561701957600681815481101515616eba57fe5b906000526020600020906002020160000160009054906101000a900473ffffffffffffffffffffffffffffffffffffffff1673ffffffffffffffffffffffffffffffffffffffff16638043154d33600684815481101515616f1757fe5b906000526020600020906002020160010154856040518463ffffffff167c0100000000000000000000000000000000000000000000000000000000028152600401808473ffffffffffffffffffffffffffffffffffffffff1673ffffffffffffffffffffffffffffffffffffffff168152602001836000191660001916815260200182600019166000191681526020019350505050602060405180830381600087803b158015616fc657600080fd5b505af1158015616fda573d6000803e3d6000fd5b505050506040513d6020811015616ff057600080fd5b8101908080519060200190929190505050151561700c57600080fd5b8080600101915050616e9e565b50509392505050565b600081600160009054906101000a900473ffffffffffffffffffffffffffffffffffffffff1673ffffffffffffffffffffffffffffffffffffffff168173ffffffffffffffffffffffffffffffffffffffff1614151561708157600080fd5b600760008573ffffffffffffffffffffffffffffffffffffffff1673ffffffffffffffffffffffffffffffffffffffff16815260200190815260200160002060000160009054906101000a900460ff16806171285750600860008573ffffffffffffffffffffffffffffffffffffffff1673ffffffffffffffffffffffffffffffffffffffff16815260200190815260200160002060000160009054906101000a900460ff165b91505092915050565b600060017c0100000000000000000000000000000000000000000000000000000000027bffffffffffffffffffffffffffffffffffffffffffffffffffffffff191660017c0100000000000000000000000000000000000000000000000000000000026000803373ffffffffffffffffffffffffffffffffffffffff1673ffffffffffffffffffffffffffffffffffffffff16815260200190815260200160002060010160009054906101000a90047c010000000000000000000000000000000000000000000000000000000002167bffffffffffffffffffffffffffffffffffffffffffffffffffffffff191614151561722b57600080fd5b7f65787465726e616c546f6b656e5472616e7366657246726f6d0000000000000060008090505b6005805490508110156173cd5760058181548110151561726e57fe5b906000526020600020906002020160000160009054906101000a900473ffffffffffffffffffffffffffffffffffffffff1673ffffffffffffffffffffffffffffffffffffffff1663c1786ab2336005848154811015156172cb57fe5b906000526020600020906002020160010154856040518463ffffffff167c0100000000000000000000000000000000000000000000000000000000028152600401808473ffffffffffffffffffffffffffffffffffffffff1673ffffffffffffffffffffffffffffffffffffffff168152602001836000191660001916815260200182600019166000191681526020019350505050602060405180830381600087803b15801561737a57600080fd5b505af115801561738e573d6000803e3d6000fd5b505050506040513d60208110156173a457600080fd5b810190808051906020019092919050505015156173c057600080fd5b8080600101915050617252565b83600160009054906101000a900473ffffffffffffffffffffffffffffffffffffffff1673ffffffffffffffffffffffffffffffffffffffff168173ffffffffffffffffffffffffffffffffffffffff1614151561742a57600080fd5b600160009054906101000a900473ffffffffffffffffffffffffffffffffffffffff1673ffffffffffffffffffffffffffffffffffffffff1663b756d5a28a8a8a8a6040518563ffffffff167c0100000000000000000000000000000000000000000000000000000000028152600401808573ffffffffffffffffffffffffffffffffffffffff1673ffffffffffffffffffffffffffffffffffffffff1681526020018473ffffffffffffffffffffffffffffffffffffffff1673ffffffffffffffffffffffffffffffffffffffff1681526020018373ffffffffffffffffffffffffffffffffffffffff1673ffffffffffffffffffffffffffffffffffffffff168152602001828152602001945050505050602060405180830381600087803b15801561755757600080fd5b505af115801561756b573d6000803e3d6000fd5b505050506040513d602081101561758157600080fd5b8101908080519060200190929190505050935050600090505b600680549050811015617715576006818154811015156175b657fe5b906000526020600020906002020160000160009054906101000a900473ffffffffffffffffffffffffffffffffffffffff1673ffffffffffffffffffffffffffffffffffffffff16638043154d3360068481548110151561761357fe5b906000526020600020906002020160010154856040518463ffffffff167c0100000000000000000000000000000000000000000000000000000000028152600401808473ffffffffffffffffffffffffffffffffffffffff1673ffffffffffffffffffffffffffffffffffffffff168152602001836000191660001916815260200182600019166000191681526020019350505050602060405180830381600087803b1580156176c257600080fd5b505af11580156176d6573d6000803e3d6000fd5b505050506040513d60208110156176ec57600080fd5b8101908080519060200190929190505050151561770857600080fd5b808060010191505061759a565b505095945050505050565b600081600160009054906101000a900473ffffffffffffffffffffffffffffffffffffffff1673ffffffffffffffffffffffffffffffffffffffff168173ffffffffffffffffffffffffffffffffffffffff1614151561777f57600080fd5b60007c0100000000000000000000000000000000000000000000000000000000027bffffffffffffffffffffffffffffffffffffffffffffffffffffffff191660017c0100000000000000000000000000000000000000000000000000000000026000808773ffffffffffffffffffffffffffffffffffffffff1673ffffffffffffffffffffffffffffffffffffffff16815260200190815260200160002060010160009054906101000a90047c010000000000000000000000000000000000000000000000000000000002167bffffffffffffffffffffffffffffffffffffffffffffffffffffffff1916141591505092915050565b6040805190810160405280600015158152602001600081525090565b6040805190810160405280600073ffffffffffffffffffffffffffffffffffffffff168152602001600080191681525090565b8154818355818111156178f2576002028160020283600052602060002091820191016178f19190617933565b5b505050565b60408051908101604052806000801916815260200160007bffffffffffffffffffffffffffffffffffffffffffffffffffffffff191681525090565b61797e91905b8082111561797a57600080820160006101000a81549073ffffffffffffffffffffffffffffffffffffffff0219169055600182016000905550600201617939565b5090565b905600a165627a7a72305820d35841ec1a2f69a00da25772327b8e0f5edc612d3cae4ed1e8b8ba368fecc24c0029",
  "source": "pragma solidity ^0.4.25;\n\nimport \"./Avatar.sol\";\nimport \"../globalConstraints/GlobalConstraintInterface.sol\";\nimport \"./ControllerInterface.sol\";\n\n\n/**\n * @title Controller contract\n * @dev A controller controls the organizations tokens,reputation and avatar.\n * It is subject to a set of schemes and constraints that determine its behavior.\n * Each scheme has it own parameters and operation permissions.\n */\ncontract Controller is ControllerInterface {\n\n    struct Scheme {\n        bytes32 paramsHash;  // a hash \"configuration\" of the scheme\n        bytes4  permissions; // A bitwise flags of permissions,\n                             // All 0: Not registered,\n                             // 1st bit: Flag if the scheme is registered,\n                             // 2nd bit: Scheme can register other schemes\n                             // 3rd bit: Scheme can add/remove global constraints\n                             // 4th bit: Scheme can upgrade the controller\n                             // 5th bit: Scheme can call genericCall on behalf of\n                             //          the organization avatar\n    }\n\n    struct GlobalConstraint {\n        address gcAddress;\n        bytes32 params;\n    }\n\n    struct GlobalConstraintRegister {\n        bool isRegistered; //is registered\n        uint index;    //index at globalConstraints\n    }\n\n    mapping(address=>Scheme) public schemes;\n\n    Avatar public avatar;\n    DAOToken public nativeToken;\n    Reputation public nativeReputation;\n  // newController will point to the new controller after the present controller is upgraded\n    address public newController;\n  // globalConstraintsPre that determine pre conditions for all actions on the controller\n\n    GlobalConstraint[] public globalConstraintsPre;\n  // globalConstraintsPost that determine post conditions for all actions on the controller\n    GlobalConstraint[] public globalConstraintsPost;\n  // globalConstraintsRegisterPre indicate if a globalConstraints is registered as a pre global constraint\n    mapping(address=>GlobalConstraintRegister) public globalConstraintsRegisterPre;\n  // globalConstraintsRegisterPost indicate if a globalConstraints is registered as a post global constraint\n    mapping(address=>GlobalConstraintRegister) public globalConstraintsRegisterPost;\n\n    event MintReputation (address indexed _sender, address indexed _to, uint256 _amount);\n    event BurnReputation (address indexed _sender, address indexed _from, uint256 _amount);\n    event MintTokens (address indexed _sender, address indexed _beneficiary, uint256 _amount);\n    event RegisterScheme (address indexed _sender, address indexed _scheme);\n    event UnregisterScheme (address indexed _sender, address indexed _scheme);\n    event UpgradeController(address indexed _oldController,address _newController);\n    event AddGlobalConstraint(address indexed _globalConstraint, bytes32 _params,GlobalConstraintInterface.CallPhase _when);\n    event RemoveGlobalConstraint(address indexed _globalConstraint ,uint256 _index,bool _isPre);\n\n    constructor( Avatar _avatar) public\n    {\n        avatar = _avatar;\n        nativeToken = avatar.nativeToken();\n        nativeReputation = avatar.nativeReputation();\n        schemes[msg.sender] = Scheme({paramsHash: bytes32(0),permissions: bytes4(0x1F)});\n    }\n\n  // Do not allow mistaken calls:\n    function() external {\n        revert();\n    }\n\n  // Modifiers:\n    modifier onlyRegisteredScheme() {\n        require(schemes[msg.sender].permissions&bytes4(1) == bytes4(1));\n        _;\n    }\n\n    modifier onlyRegisteringSchemes() {\n        require(schemes[msg.sender].permissions&bytes4(2) == bytes4(2));\n        _;\n    }\n\n    modifier onlyGlobalConstraintsScheme() {\n        require(schemes[msg.sender].permissions&bytes4(4) == bytes4(4));\n        _;\n    }\n\n    modifier onlyUpgradingScheme() {\n        require(schemes[msg.sender].permissions&bytes4(8) == bytes4(8));\n        _;\n    }\n\n    modifier onlyGenericCallScheme() {\n        require(schemes[msg.sender].permissions&bytes4(16) == bytes4(16));\n        _;\n    }\n\n    modifier onlySubjectToConstraint(bytes32 func) {\n        uint idx;\n        for (idx = 0;idx<globalConstraintsPre.length;idx++) {\n            require((GlobalConstraintInterface(globalConstraintsPre[idx].gcAddress)).pre(msg.sender,globalConstraintsPre[idx].params,func));\n        }\n        _;\n        for (idx = 0;idx<globalConstraintsPost.length;idx++) {\n            require((GlobalConstraintInterface(globalConstraintsPost[idx].gcAddress)).post(msg.sender,globalConstraintsPost[idx].params,func));\n        }\n    }\n\n    modifier isAvatarValid(address _avatar) {\n        require(_avatar == address(avatar));\n        _;\n    }\n\n    /**\n     * @dev Mint `_amount` of reputation that are assigned to `_to` .\n     * @param  _amount amount of reputation to mint\n     * @param _to beneficiary address\n     * @return bool which represents a success\n     */\n    function mintReputation(uint256 _amount, address _to,address _avatar)\n    external\n    onlyRegisteredScheme\n    onlySubjectToConstraint(\"mintReputation\")\n    isAvatarValid(_avatar)\n    returns(bool)\n    {\n        emit MintReputation(msg.sender, _to, _amount);\n        return nativeReputation.mint(_to, _amount);\n    }\n\n    /**\n     * @dev Burns `_amount` of reputation from `_from`\n     * @param _amount amount of reputation to burn\n     * @param _from The address that will lose the reputation\n     * @return bool which represents a success\n     */\n    function burnReputation(uint256 _amount, address _from,address _avatar)\n    external\n    onlyRegisteredScheme\n    onlySubjectToConstraint(\"burnReputation\")\n    isAvatarValid(_avatar)\n    returns(bool)\n    {\n        emit BurnReputation(msg.sender, _from, _amount);\n        return nativeReputation.burn(_from, _amount);\n    }\n\n    /**\n     * @dev mint tokens .\n     * @param  _amount amount of token to mint\n     * @param _beneficiary beneficiary address\n     * @return bool which represents a success\n     */\n    function mintTokens(uint256 _amount, address _beneficiary,address _avatar)\n    external\n    onlyRegisteredScheme\n    onlySubjectToConstraint(\"mintTokens\")\n    isAvatarValid(_avatar)\n    returns(bool)\n    {\n        emit MintTokens(msg.sender, _beneficiary, _amount);\n        return nativeToken.mint(_beneficiary, _amount);\n    }\n\n  /**\n   * @dev register a scheme\n   * @param _scheme the address of the scheme\n   * @param _paramsHash a hashed configuration of the usage of the scheme\n   * @param _permissions the permissions the new scheme will have\n   * @return bool which represents a success\n   */\n    function registerScheme(address _scheme, bytes32 _paramsHash, bytes4 _permissions,address _avatar)\n    external\n    onlyRegisteringSchemes\n    onlySubjectToConstraint(\"registerScheme\")\n    isAvatarValid(_avatar)\n    returns(bool)\n    {\n\n        Scheme memory scheme = schemes[_scheme];\n\n    // Check scheme has at least the permissions it is changing, and at least the current permissions:\n    // Implementation is a bit messy. One must recall logic-circuits ^^\n\n    // produces non-zero if sender does not have all of the perms that are changing between old and new\n        require(bytes4(0x1F)&(_permissions^scheme.permissions)&(~schemes[msg.sender].permissions) == bytes4(0));\n\n    // produces non-zero if sender does not have all of the perms in the old scheme\n        require(bytes4(0x1F)&(scheme.permissions&(~schemes[msg.sender].permissions)) == bytes4(0));\n\n    // Add or change the scheme:\n        schemes[_scheme].paramsHash = _paramsHash;\n        schemes[_scheme].permissions = _permissions|bytes4(1);\n        emit RegisterScheme(msg.sender, _scheme);\n        return true;\n    }\n\n    /**\n     * @dev unregister a scheme\n     * @param _scheme the address of the scheme\n     * @return bool which represents a success\n     */\n    function unregisterScheme( address _scheme,address _avatar)\n    external\n    onlyRegisteringSchemes\n    onlySubjectToConstraint(\"unregisterScheme\")\n    isAvatarValid(_avatar)\n    returns(bool)\n    {\n    //check if the scheme is registered\n        if (schemes[_scheme].permissions&bytes4(1) == bytes4(0)) {\n            return false;\n          }\n    // Check the unregistering scheme has enough permissions:\n        require(bytes4(0x1F)&(schemes[_scheme].permissions&(~schemes[msg.sender].permissions)) == bytes4(0));\n\n    // Unregister:\n        emit UnregisterScheme(msg.sender, _scheme);\n        delete schemes[_scheme];\n        return true;\n    }\n\n    /**\n     * @dev unregister the caller's scheme\n     * @return bool which represents a success\n     */\n    function unregisterSelf(address _avatar) external isAvatarValid(_avatar) returns(bool) {\n        if (_isSchemeRegistered(msg.sender,_avatar) == false) {\n            return false;\n        }\n        delete schemes[msg.sender];\n        emit UnregisterScheme(msg.sender, msg.sender);\n        return true;\n    }\n\n    function isSchemeRegistered(address _scheme,address _avatar) external isAvatarValid(_avatar) view returns(bool) {\n        return _isSchemeRegistered(_scheme,_avatar);\n    }\n\n    function getSchemeParameters(address _scheme,address _avatar) external isAvatarValid(_avatar) view returns(bytes32) {\n        return schemes[_scheme].paramsHash;\n    }\n\n    function getSchemePermissions(address _scheme,address _avatar) external isAvatarValid(_avatar) view returns(bytes4) {\n        return schemes[_scheme].permissions;\n    }\n\n    function getGlobalConstraintParameters(address _globalConstraint,address) external view returns(bytes32) {\n\n        GlobalConstraintRegister memory register = globalConstraintsRegisterPre[_globalConstraint];\n\n        if (register.isRegistered) {\n            return globalConstraintsPre[register.index].params;\n        }\n\n        register = globalConstraintsRegisterPost[_globalConstraint];\n\n        if (register.isRegistered) {\n            return globalConstraintsPost[register.index].params;\n        }\n    }\n\n   /**\n    * @dev globalConstraintsCount return the global constraint pre and post count\n    * @return uint globalConstraintsPre count.\n    * @return uint globalConstraintsPost count.\n    */\n    function globalConstraintsCount(address _avatar)\n        external\n        isAvatarValid(_avatar)\n        view\n        returns(uint,uint)\n        {\n        return (globalConstraintsPre.length,globalConstraintsPost.length);\n    }\n\n    function isGlobalConstraintRegistered(address _globalConstraint,address _avatar)\n        external\n        isAvatarValid(_avatar)\n        view\n        returns(bool)\n        {\n        return (globalConstraintsRegisterPre[_globalConstraint].isRegistered || globalConstraintsRegisterPost[_globalConstraint].isRegistered);\n    }\n\n    /**\n     * @dev add or update Global Constraint\n     * @param _globalConstraint the address of the global constraint to be added.\n     * @param _params the constraint parameters hash.\n     * @return bool which represents a success\n     */\n    function addGlobalConstraint(address _globalConstraint, bytes32 _params,address _avatar)\n    external\n    onlyGlobalConstraintsScheme\n    isAvatarValid(_avatar)\n    returns(bool)\n    {\n        GlobalConstraintInterface.CallPhase when = GlobalConstraintInterface(_globalConstraint).when();\n        if ((when == GlobalConstraintInterface.CallPhase.Pre)||(when == GlobalConstraintInterface.CallPhase.PreAndPost)) {\n            if (!globalConstraintsRegisterPre[_globalConstraint].isRegistered) {\n                globalConstraintsPre.push(GlobalConstraint(_globalConstraint,_params));\n                globalConstraintsRegisterPre[_globalConstraint] = GlobalConstraintRegister(true,globalConstraintsPre.length-1);\n            }else {\n                globalConstraintsPre[globalConstraintsRegisterPre[_globalConstraint].index].params = _params;\n            }\n        }\n        if ((when == GlobalConstraintInterface.CallPhase.Post)||(when == GlobalConstraintInterface.CallPhase.PreAndPost)) {\n            if (!globalConstraintsRegisterPost[_globalConstraint].isRegistered) {\n                globalConstraintsPost.push(GlobalConstraint(_globalConstraint,_params));\n                globalConstraintsRegisterPost[_globalConstraint] = GlobalConstraintRegister(true,globalConstraintsPost.length-1);\n            }else {\n                globalConstraintsPost[globalConstraintsRegisterPost[_globalConstraint].index].params = _params;\n            }\n        }\n        emit AddGlobalConstraint(_globalConstraint, _params,when);\n        return true;\n    }\n\n    /**\n     * @dev remove Global Constraint\n     * @param _globalConstraint the address of the global constraint to be remove.\n     * @return bool which represents a success\n     */\n    function removeGlobalConstraint (address _globalConstraint,address _avatar)\n    external\n    onlyGlobalConstraintsScheme\n    isAvatarValid(_avatar)\n    returns(bool)\n    {\n        GlobalConstraintRegister memory globalConstraintRegister;\n        GlobalConstraint memory globalConstraint;\n        GlobalConstraintInterface.CallPhase when = GlobalConstraintInterface(_globalConstraint).when();\n        bool retVal = false;\n\n        if ((when == GlobalConstraintInterface.CallPhase.Pre)||(when == GlobalConstraintInterface.CallPhase.PreAndPost)) {\n            globalConstraintRegister = globalConstraintsRegisterPre[_globalConstraint];\n            if (globalConstraintRegister.isRegistered) {\n                if (globalConstraintRegister.index < globalConstraintsPre.length-1) {\n                    globalConstraint = globalConstraintsPre[globalConstraintsPre.length-1];\n                    globalConstraintsPre[globalConstraintRegister.index] = globalConstraint;\n                    globalConstraintsRegisterPre[globalConstraint.gcAddress].index = globalConstraintRegister.index;\n                }\n                globalConstraintsPre.length--;\n                delete globalConstraintsRegisterPre[_globalConstraint];\n                retVal = true;\n            }\n        }\n        if ((when == GlobalConstraintInterface.CallPhase.Post)||(when == GlobalConstraintInterface.CallPhase.PreAndPost)) {\n            globalConstraintRegister = globalConstraintsRegisterPost[_globalConstraint];\n            if (globalConstraintRegister.isRegistered) {\n                if (globalConstraintRegister.index < globalConstraintsPost.length-1) {\n                    globalConstraint = globalConstraintsPost[globalConstraintsPost.length-1];\n                    globalConstraintsPost[globalConstraintRegister.index] = globalConstraint;\n                    globalConstraintsRegisterPost[globalConstraint.gcAddress].index = globalConstraintRegister.index;\n                }\n                globalConstraintsPost.length--;\n                delete globalConstraintsRegisterPost[_globalConstraint];\n                retVal = true;\n            }\n        }\n        if (retVal) {\n            emit RemoveGlobalConstraint(_globalConstraint,globalConstraintRegister.index,when == GlobalConstraintInterface.CallPhase.Pre);\n        }\n        return retVal;\n    }\n\n  /**\n    * @dev upgrade the Controller\n    *      The function will trigger an event 'UpgradeController'.\n    * @param  _newController the address of the new controller.\n    * @return bool which represents a success\n    */\n    function upgradeController(address _newController,address _avatar)\n    external\n    onlyUpgradingScheme\n    isAvatarValid(_avatar)\n    returns(bool)\n    {\n        require(newController == address(0));   // so the upgrade could be done once for a contract.\n        require(_newController != address(0));\n        newController = _newController;\n        avatar.transferOwnership(_newController);\n        require(avatar.owner()==_newController);\n        if (nativeToken.owner() == address(this)) {\n            nativeToken.transferOwnership(_newController);\n            require(nativeToken.owner()==_newController);\n        }\n        if (nativeReputation.owner() == address(this)) {\n            nativeReputation.transferOwnership(_newController);\n            require(nativeReputation.owner()==_newController);\n        }\n        emit UpgradeController(this,newController);\n        return true;\n    }\n\n    /**\n    * @dev perform a generic call to an arbitrary contract\n    * @param _contract  the contract's address to call\n    * @param _data ABI-encoded contract call to call `_contract` address.\n    * @param _avatar the controller's avatar address\n    * @return bytes32  - the return value of the called _contract's function.\n    */\n    function genericCall(address _contract,bytes _data,address _avatar)\n    external\n    onlyGenericCallScheme\n    onlySubjectToConstraint(\"genericCall\")\n    isAvatarValid(_avatar)\n    returns (bytes32 returnValue)\n    {\n        avatar.genericCall(_contract, _data);\n        // solium-disable-next-line security/no-inline-assembly\n        assembly {\n        // Copy the returned data.\n        returndatacopy(returnValue, 0, returndatasize)\n        return(returnValue, 0x20)\n        }\n    }\n\n  /**\n   * @dev send some ether\n   * @param _amountInWei the amount of ether (in Wei) to send\n   * @param _to address of the beneficiary\n   * @return bool which represents a success\n   */\n    function sendEther(uint _amountInWei, address _to,address _avatar)\n    external\n    onlyRegisteredScheme\n    onlySubjectToConstraint(\"sendEther\")\n    isAvatarValid(_avatar)\n    returns(bool)\n    {\n        return avatar.sendEther(_amountInWei, _to);\n    }\n\n    /**\n    * @dev send some amount of arbitrary ERC20 Tokens\n    * @param _externalToken the address of the Token Contract\n    * @param _to address of the beneficiary\n    * @param _value the amount of ether (in Wei) to send\n    * @return bool which represents a success\n    */\n    function externalTokenTransfer(StandardToken _externalToken, address _to, uint _value,address _avatar)\n    external\n    onlyRegisteredScheme\n    onlySubjectToConstraint(\"externalTokenTransfer\")\n    isAvatarValid(_avatar)\n    returns(bool)\n    {\n        return avatar.externalTokenTransfer(_externalToken, _to, _value);\n    }\n\n    /**\n    * @dev transfer token \"from\" address \"to\" address\n    *      One must to approve the amount of tokens which can be spend from the\n    *      \"from\" account.This can be done using externalTokenApprove.\n    * @param _externalToken the address of the Token Contract\n    * @param _from address of the account to send from\n    * @param _to address of the beneficiary\n    * @param _value the amount of ether (in Wei) to send\n    * @return bool which represents a success\n    */\n    function externalTokenTransferFrom(StandardToken _externalToken, address _from, address _to, uint _value,address _avatar)\n    external\n    onlyRegisteredScheme\n    onlySubjectToConstraint(\"externalTokenTransferFrom\")\n    isAvatarValid(_avatar)\n    returns(bool)\n    {\n        return avatar.externalTokenTransferFrom(_externalToken, _from, _to, _value);\n    }\n\n    /**\n    * @dev increase approval for the spender address to spend a specified amount of tokens\n    *      on behalf of msg.sender.\n    * @param _externalToken the address of the Token Contract\n    * @param _spender address\n    * @param _addedValue the amount of ether (in Wei) which the approval is referring to.\n    * @return bool which represents a success\n    */\n    function externalTokenIncreaseApproval(StandardToken _externalToken, address _spender, uint _addedValue,address _avatar)\n    external\n    onlyRegisteredScheme\n    onlySubjectToConstraint(\"externalTokenIncreaseApproval\")\n    isAvatarValid(_avatar)\n    returns(bool)\n    {\n        return avatar.externalTokenIncreaseApproval(_externalToken, _spender, _addedValue);\n    }\n\n    /**\n    * @dev decrease approval for the spender address to spend a specified amount of tokens\n    *      on behalf of msg.sender.\n    * @param _externalToken the address of the Token Contract\n    * @param _spender address\n    * @param _subtractedValue the amount of ether (in Wei) which the approval is referring to.\n    * @return bool which represents a success\n    */\n    function externalTokenDecreaseApproval(StandardToken _externalToken, address _spender, uint _subtractedValue,address _avatar)\n    external\n    onlyRegisteredScheme\n    onlySubjectToConstraint(\"externalTokenDecreaseApproval\")\n    isAvatarValid(_avatar)\n    returns(bool)\n    {\n        return avatar.externalTokenDecreaseApproval(_externalToken, _spender, _subtractedValue);\n    }\n\n    /**\n     * @dev getNativeReputation\n     * @param _avatar the organization avatar.\n     * @return organization native reputation\n     */\n    function getNativeReputation(address _avatar) external isAvatarValid(_avatar) view returns(address) {\n        return address(nativeReputation);\n    }\n\n    function _isSchemeRegistered(address _scheme,address _avatar) private isAvatarValid(_avatar) view returns(bool) {\n        return (schemes[_scheme].permissions&bytes4(1) != bytes4(0));\n    }\n}\n",
  "sourcePath": "@daostack/arc/contracts/controller/Controller.sol",
  "compiler": {
    "name": "solc",
    "version": "0.4.25+commit.59dbf8f1.Emscripten.clang"
  },
  "schemaVersion": "3.0.0-beta.1",
  "updatedAt": "2019-06-15T11:27:26.723Z"
}