{
  "contractName": "GenesisProtocol",
  "abi": [
    {
      "constant": true,
      "inputs": [
        {
          "name": "",
          "type": "bytes32"
        }
      ],
      "name": "parameters",
      "outputs": [
        {
          "name": "preBoostedVoteRequiredPercentage",
          "type": "uint256"
        },
        {
          "name": "preBoostedVotePeriodLimit",
          "type": "uint256"
        },
        {
          "name": "boostedVotePeriodLimit",
          "type": "uint256"
        },
        {
          "name": "thresholdConstA",
          "type": "uint256"
        },
        {
          "name": "thresholdConstB",
          "type": "uint256"
        },
        {
          "name": "minimumStakingFee",
          "type": "uint256"
        },
        {
          "name": "quietEndingPeriod",
          "type": "uint256"
        },
        {
          "name": "proposingRepRewardConstA",
          "type": "uint256"
        },
        {
          "name": "proposingRepRewardConstB",
          "type": "uint256"
        },
        {
          "name": "stakerFeeRatioForVoters",
          "type": "uint256"
        },
        {
          "name": "votersReputationLossRatio",
          "type": "uint256"
        },
        {
          "name": "votersGainRepRatioFromLostRep",
          "type": "uint256"
        },
        {
          "name": "voteOnBehalf",
          "type": "address"
        }
      ],
      "payable": false,
      "stateMutability": "view",
      "type": "function"
    },
    {
      "constant": true,
      "inputs": [],
      "name": "NO",
      "outputs": [
        {
          "name": "",
          "type": "uint256"
        }
      ],
      "payable": false,
      "stateMutability": "view",
      "type": "function"
    },
    {
      "constant": true,
      "inputs": [],
      "name": "proposalsCnt",
      "outputs": [
        {
          "name": "",
          "type": "uint256"
        }
      ],
      "payable": false,
      "stateMutability": "view",
      "type": "function"
    },
    {
      "constant": true,
      "inputs": [],
      "name": "DELEGATION_HASH_EIP712",
      "outputs": [
        {
          "name": "",
          "type": "bytes32"
        }
      ],
      "payable": false,
      "stateMutability": "view",
      "type": "function"
    },
    {
      "constant": true,
      "inputs": [
        {
          "name": "",
          "type": "bytes32"
        }
      ],
      "name": "proposals",
      "outputs": [
        {
          "name": "organizationId",
          "type": "bytes32"
        },
        {
          "name": "callbacks",
          "type": "address"
        },
        {
          "name": "numOfChoices",
          "type": "uint256"
        },
        {
          "name": "votersStakes",
          "type": "uint256"
        },
        {
          "name": "submittedTime",
          "type": "uint256"
        },
        {
          "name": "boostedPhaseTime",
          "type": "uint256"
        },
        {
          "name": "state",
          "type": "uint8"
        },
        {
          "name": "winningVote",
          "type": "uint256"
        },
        {
          "name": "proposer",
          "type": "address"
        },
        {
          "name": "currentBoostedVotePeriodLimit",
          "type": "uint256"
        },
        {
          "name": "paramsHash",
          "type": "bytes32"
        },
        {
          "name": "daoBountyRemain",
          "type": "uint256"
        }
      ],
      "payable": false,
      "stateMutability": "view",
      "type": "function"
    },
    {
      "constant": true,
      "inputs": [],
      "name": "stakingToken",
      "outputs": [
        {
          "name": "",
          "type": "address"
        }
      ],
      "payable": false,
      "stateMutability": "view",
      "type": "function"
    },
    {
      "constant": true,
      "inputs": [],
      "name": "ETH_SIGN_PREFIX",
      "outputs": [
        {
          "name": "",
          "type": "string"
        }
      ],
      "payable": false,
      "stateMutability": "view",
      "type": "function"
    },
    {
      "constant": true,
      "inputs": [],
      "name": "NUM_OF_CHOICES",
      "outputs": [
        {
          "name": "",
          "type": "uint256"
        }
      ],
      "payable": false,
      "stateMutability": "view",
      "type": "function"
    },
    {
      "constant": true,
      "inputs": [],
      "name": "YES",
      "outputs": [
        {
          "name": "",
          "type": "uint256"
        }
      ],
      "payable": false,
      "stateMutability": "view",
      "type": "function"
    },
    {
      "constant": true,
      "inputs": [
        {
          "name": "",
          "type": "bytes32"
        }
      ],
      "name": "organizations",
      "outputs": [
        {
          "name": "",
          "type": "address"
        }
      ],
      "payable": false,
      "stateMutability": "view",
      "type": "function"
    },
    {
      "constant": true,
      "inputs": [
        {
          "name": "",
          "type": "bytes32"
        }
      ],
      "name": "orgBoostedProposalsCnt",
      "outputs": [
        {
          "name": "",
          "type": "uint256"
        }
      ],
      "payable": false,
      "stateMutability": "view",
      "type": "function"
    },
    {
      "inputs": [
        {
          "name": "_stakingToken",
          "type": "address"
        }
      ],
      "payable": false,
      "stateMutability": "nonpayable",
      "type": "constructor"
    },
    {
      "anonymous": false,
      "inputs": [
        {
          "indexed": true,
          "name": "_proposalId",
          "type": "bytes32"
        },
        {
          "indexed": true,
          "name": "_organization",
          "type": "address"
        },
        {
          "indexed": true,
          "name": "_staker",
          "type": "address"
        },
        {
          "indexed": false,
          "name": "_vote",
          "type": "uint256"
        },
        {
          "indexed": false,
          "name": "_amount",
          "type": "uint256"
        }
      ],
      "name": "Stake",
      "type": "event"
    },
    {
      "anonymous": false,
      "inputs": [
        {
          "indexed": true,
          "name": "_proposalId",
          "type": "bytes32"
        },
        {
          "indexed": true,
          "name": "_organization",
          "type": "address"
        },
        {
          "indexed": true,
          "name": "_beneficiary",
          "type": "address"
        },
        {
          "indexed": false,
          "name": "_amount",
          "type": "uint256"
        }
      ],
      "name": "Redeem",
      "type": "event"
    },
    {
      "anonymous": false,
      "inputs": [
        {
          "indexed": true,
          "name": "_proposalId",
          "type": "bytes32"
        },
        {
          "indexed": true,
          "name": "_organization",
          "type": "address"
        },
        {
          "indexed": true,
          "name": "_beneficiary",
          "type": "address"
        },
        {
          "indexed": false,
          "name": "_amount",
          "type": "uint256"
        }
      ],
      "name": "RedeemDaoBounty",
      "type": "event"
    },
    {
      "anonymous": false,
      "inputs": [
        {
          "indexed": true,
          "name": "_proposalId",
          "type": "bytes32"
        },
        {
          "indexed": true,
          "name": "_organization",
          "type": "address"
        },
        {
          "indexed": true,
          "name": "_beneficiary",
          "type": "address"
        },
        {
          "indexed": false,
          "name": "_amount",
          "type": "uint256"
        }
      ],
      "name": "RedeemReputation",
      "type": "event"
    },
    {
      "anonymous": false,
      "inputs": [
        {
          "indexed": true,
          "name": "_proposalId",
          "type": "bytes32"
        },
        {
          "indexed": false,
          "name": "_executionState",
          "type": "uint8"
        }
      ],
      "name": "GPExecuteProposal",
      "type": "event"
    },
    {
      "anonymous": false,
      "inputs": [
        {
          "indexed": true,
          "name": "_proposalId",
          "type": "bytes32"
        },
        {
          "indexed": true,
          "name": "_organization",
          "type": "address"
        },
        {
          "indexed": false,
          "name": "_numOfChoices",
          "type": "uint256"
        },
        {
          "indexed": false,
          "name": "_proposer",
          "type": "address"
        },
        {
          "indexed": false,
          "name": "_paramsHash",
          "type": "bytes32"
        }
      ],
      "name": "NewProposal",
      "type": "event"
    },
    {
      "anonymous": false,
      "inputs": [
        {
          "indexed": true,
          "name": "_proposalId",
          "type": "bytes32"
        },
        {
          "indexed": true,
          "name": "_organization",
          "type": "address"
        },
        {
          "indexed": false,
          "name": "_decision",
          "type": "uint256"
        },
        {
          "indexed": false,
          "name": "_totalReputation",
          "type": "uint256"
        }
      ],
      "name": "ExecuteProposal",
      "type": "event"
    },
    {
      "anonymous": false,
      "inputs": [
        {
          "indexed": true,
          "name": "_proposalId",
          "type": "bytes32"
        },
        {
          "indexed": true,
          "name": "_organization",
          "type": "address"
        },
        {
          "indexed": true,
          "name": "_voter",
          "type": "address"
        },
        {
          "indexed": false,
          "name": "_vote",
          "type": "uint256"
        },
        {
          "indexed": false,
          "name": "_reputation",
          "type": "uint256"
        }
      ],
      "name": "VoteProposal",
      "type": "event"
    },
    {
      "anonymous": false,
      "inputs": [
        {
          "indexed": true,
          "name": "_proposalId",
          "type": "bytes32"
        },
        {
          "indexed": true,
          "name": "_organization",
          "type": "address"
        }
      ],
      "name": "CancelProposal",
      "type": "event"
    },
    {
      "anonymous": false,
      "inputs": [
        {
          "indexed": true,
          "name": "_proposalId",
          "type": "bytes32"
        },
        {
          "indexed": true,
          "name": "_organization",
          "type": "address"
        },
        {
          "indexed": true,
          "name": "_voter",
          "type": "address"
        }
      ],
      "name": "CancelVoting",
      "type": "event"
    },
    {
      "constant": false,
      "inputs": [
        {
          "name": "_numOfChoices",
          "type": "uint256"
        },
        {
          "name": "_paramsHash",
          "type": "bytes32"
        },
        {
          "name": "_proposer",
          "type": "address"
        },
        {
          "name": "_organization",
          "type": "address"
        }
      ],
      "name": "propose",
      "outputs": [
        {
          "name": "",
          "type": "bytes32"
        }
      ],
      "payable": false,
      "stateMutability": "nonpayable",
      "type": "function"
    },
    {
      "constant": false,
      "inputs": [
        {
          "name": "",
          "type": "bytes32"
        }
      ],
      "name": "cancelProposal",
      "outputs": [
        {
          "name": "",
          "type": "bool"
        }
      ],
      "payable": false,
      "stateMutability": "nonpayable",
      "type": "function"
    },
    {
      "constant": false,
      "inputs": [
        {
          "name": "_proposalId",
          "type": "bytes32"
        },
        {
          "name": "_vote",
          "type": "uint256"
        },
        {
          "name": "_amount",
          "type": "uint256"
        }
      ],
      "name": "stake",
      "outputs": [
        {
          "name": "",
          "type": "bool"
        }
      ],
      "payable": false,
      "stateMutability": "nonpayable",
      "type": "function"
    },
    {
      "constant": false,
      "inputs": [
        {
          "name": "_proposalId",
          "type": "bytes32"
        },
        {
          "name": "_vote",
          "type": "uint256"
        },
        {
          "name": "_amount",
          "type": "uint256"
        },
        {
          "name": "_nonce",
          "type": "uint256"
        },
        {
          "name": "_signatureType",
          "type": "uint256"
        },
        {
          "name": "_signature",
          "type": "bytes"
        }
      ],
      "name": "stakeWithSignature",
      "outputs": [
        {
          "name": "",
          "type": "bool"
        }
      ],
      "payable": false,
      "stateMutability": "nonpayable",
      "type": "function"
    },
    {
      "constant": false,
      "inputs": [
        {
          "name": "_proposalId",
          "type": "bytes32"
        },
        {
          "name": "_vote",
          "type": "uint256"
        },
        {
          "name": "_voter",
          "type": "address"
        }
      ],
      "name": "vote",
      "outputs": [
        {
          "name": "",
          "type": "bool"
        }
      ],
      "payable": false,
      "stateMutability": "nonpayable",
      "type": "function"
    },
    {
      "constant": false,
      "inputs": [
        {
          "name": "",
          "type": "bytes32"
        },
        {
          "name": "",
          "type": "uint256"
        },
        {
          "name": "",
          "type": "address"
        }
      ],
      "name": "ownerVote",
      "outputs": [
        {
          "name": "",
          "type": "bool"
        }
      ],
      "payable": false,
      "stateMutability": "nonpayable",
      "type": "function"
    },
    {
      "constant": false,
      "inputs": [
        {
          "name": "_proposalId",
          "type": "bytes32"
        },
        {
          "name": "_vote",
          "type": "uint256"
        },
        {
          "name": "_rep",
          "type": "uint256"
        },
        {
          "name": "",
          "type": "uint256"
        },
        {
          "name": "_voter",
          "type": "address"
        }
      ],
      "name": "voteWithSpecifiedAmounts",
      "outputs": [
        {
          "name": "",
          "type": "bool"
        }
      ],
      "payable": false,
      "stateMutability": "nonpayable",
      "type": "function"
    },
    {
      "constant": false,
      "inputs": [
        {
          "name": "_proposalId",
          "type": "bytes32"
        }
      ],
      "name": "cancelVote",
      "outputs": [],
      "payable": false,
      "stateMutability": "nonpayable",
      "type": "function"
    },
    {
      "constant": true,
      "inputs": [
        {
          "name": "_proposalId",
          "type": "bytes32"
        }
      ],
      "name": "getNumberOfChoices",
      "outputs": [
        {
          "name": "",
          "type": "uint256"
        }
      ],
      "payable": false,
      "stateMutability": "view",
      "type": "function"
    },
    {
      "constant": true,
      "inputs": [
        {
          "name": "_proposalId",
          "type": "bytes32"
        },
        {
          "name": "_voter",
          "type": "address"
        }
      ],
      "name": "voteInfo",
      "outputs": [
        {
          "name": "",
          "type": "uint256"
        },
        {
          "name": "",
          "type": "uint256"
        }
      ],
      "payable": false,
      "stateMutability": "view",
      "type": "function"
    },
    {
      "constant": true,
      "inputs": [
        {
          "name": "_proposalId",
          "type": "bytes32"
        },
        {
          "name": "_choice",
          "type": "uint256"
        }
      ],
      "name": "voteStatus",
      "outputs": [
        {
          "name": "",
          "type": "uint256"
        }
      ],
      "payable": false,
      "stateMutability": "view",
      "type": "function"
    },
    {
      "constant": true,
      "inputs": [
        {
          "name": "_proposalId",
          "type": "bytes32"
        }
      ],
      "name": "isVotable",
      "outputs": [
        {
          "name": "",
          "type": "bool"
        }
      ],
      "payable": false,
      "stateMutability": "view",
      "type": "function"
    },
    {
      "constant": true,
      "inputs": [
        {
          "name": "_proposalId",
          "type": "bytes32"
        }
      ],
      "name": "proposalStatus",
      "outputs": [
        {
          "name": "",
          "type": "uint256"
        },
        {
          "name": "",
          "type": "uint256"
        },
        {
          "name": "",
          "type": "uint256"
        },
        {
          "name": "",
          "type": "uint256"
        },
        {
          "name": "",
          "type": "uint256"
        },
        {
          "name": "",
          "type": "uint256"
        }
      ],
      "payable": false,
      "stateMutability": "view",
      "type": "function"
    },
    {
      "constant": true,
      "inputs": [
        {
          "name": "_proposalId",
          "type": "bytes32"
        }
      ],
      "name": "getProposalOrganization",
      "outputs": [
        {
          "name": "",
          "type": "bytes32"
        }
      ],
      "payable": false,
      "stateMutability": "view",
      "type": "function"
    },
    {
      "constant": true,
      "inputs": [
        {
          "name": "_proposalId",
          "type": "bytes32"
        },
        {
          "name": "_staker",
          "type": "address"
        }
      ],
      "name": "getStaker",
      "outputs": [
        {
          "name": "",
          "type": "uint256"
        },
        {
          "name": "",
          "type": "uint256"
        }
      ],
      "payable": false,
      "stateMutability": "view",
      "type": "function"
    },
    {
      "constant": true,
      "inputs": [
        {
          "name": "_proposalId",
          "type": "bytes32"
        },
        {
          "name": "_vote",
          "type": "uint256"
        }
      ],
      "name": "voteStake",
      "outputs": [
        {
          "name": "",
          "type": "uint256"
        }
      ],
      "payable": false,
      "stateMutability": "view",
      "type": "function"
    },
    {
      "constant": true,
      "inputs": [
        {
          "name": "_proposalId",
          "type": "bytes32"
        }
      ],
      "name": "winningVote",
      "outputs": [
        {
          "name": "",
          "type": "uint256"
        }
      ],
      "payable": false,
      "stateMutability": "view",
      "type": "function"
    },
    {
      "constant": true,
      "inputs": [
        {
          "name": "_proposalId",
          "type": "bytes32"
        }
      ],
      "name": "state",
      "outputs": [
        {
          "name": "",
          "type": "uint8"
        }
      ],
      "payable": false,
      "stateMutability": "view",
      "type": "function"
    },
    {
      "constant": true,
      "inputs": [],
      "name": "isAbstainAllow",
      "outputs": [
        {
          "name": "",
          "type": "bool"
        }
      ],
      "payable": false,
      "stateMutability": "pure",
      "type": "function"
    },
    {
      "constant": true,
      "inputs": [],
      "name": "getAllowedRangeOfChoices",
      "outputs": [
        {
          "name": "min",
          "type": "uint256"
        },
        {
          "name": "max",
          "type": "uint256"
        }
      ],
      "payable": false,
      "stateMutability": "pure",
      "type": "function"
    },
    {
      "constant": false,
      "inputs": [
        {
          "name": "_proposalId",
          "type": "bytes32"
        }
      ],
      "name": "execute",
      "outputs": [
        {
          "name": "",
          "type": "bool"
        }
      ],
      "payable": false,
      "stateMutability": "nonpayable",
      "type": "function"
    },
    {
      "constant": false,
      "inputs": [
        {
          "name": "_proposalId",
          "type": "bytes32"
        },
        {
          "name": "_beneficiary",
          "type": "address"
        }
      ],
      "name": "redeem",
      "outputs": [
        {
          "name": "rewards",
          "type": "uint256[5]"
        }
      ],
      "payable": false,
      "stateMutability": "nonpayable",
      "type": "function"
    },
    {
      "constant": false,
      "inputs": [
        {
          "name": "_proposalId",
          "type": "bytes32"
        },
        {
          "name": "_beneficiary",
          "type": "address"
        }
      ],
      "name": "redeemDaoBounty",
      "outputs": [
        {
          "name": "redeemedAmount",
          "type": "uint256"
        },
        {
          "name": "potentialAmount",
          "type": "uint256"
        }
      ],
      "payable": false,
      "stateMutability": "nonpayable",
      "type": "function"
    },
    {
      "constant": true,
      "inputs": [
        {
          "name": "_proposalId",
          "type": "bytes32"
        }
      ],
      "name": "shouldBoost",
      "outputs": [
        {
          "name": "",
          "type": "bool"
        }
      ],
      "payable": false,
      "stateMutability": "view",
      "type": "function"
    },
    {
      "constant": true,
      "inputs": [
        {
          "name": "_proposalId",
          "type": "bytes32"
        }
      ],
      "name": "score",
      "outputs": [
        {
          "name": "",
          "type": "int256"
        }
      ],
      "payable": false,
      "stateMutability": "view",
      "type": "function"
    },
    {
      "constant": true,
      "inputs": [
        {
          "name": "_organizationId",
          "type": "bytes32"
        }
      ],
      "name": "getBoostedProposalsCount",
      "outputs": [
        {
          "name": "",
          "type": "uint256"
        }
      ],
      "payable": false,
      "stateMutability": "view",
      "type": "function"
    },
    {
      "constant": true,
      "inputs": [
        {
          "name": "_paramsHash",
          "type": "bytes32"
        },
        {
          "name": "_organizationId",
          "type": "bytes32"
        }
      ],
      "name": "threshold",
      "outputs": [
        {
          "name": "",
          "type": "int256"
        }
      ],
      "payable": false,
      "stateMutability": "view",
      "type": "function"
    },
    {
      "constant": false,
      "inputs": [
        {
          "name": "_params",
          "type": "uint256[14]"
        },
        {
          "name": "_voteOnBehalf",
          "type": "address"
        }
      ],
      "name": "setParameters",
      "outputs": [
        {
          "name": "",
          "type": "bytes32"
        }
      ],
      "payable": false,
      "stateMutability": "nonpayable",
      "type": "function"
    },
    {
      "constant": true,
      "inputs": [
        {
          "name": "_params",
          "type": "uint256[14]"
        },
        {
          "name": "_voteOnBehalf",
          "type": "address"
        }
      ],
      "name": "getParametersHash",
      "outputs": [
        {
          "name": "",
          "type": "bytes32"
        }
      ],
      "payable": false,
      "stateMutability": "pure",
      "type": "function"
    },
    {
      "constant": true,
      "inputs": [
        {
          "name": "_paramsHash",
          "type": "bytes32"
        }
      ],
      "name": "getDaoBountyParams",
      "outputs": [
        {
          "name": "",
          "type": "uint256[2]"
        }
      ],
      "payable": false,
      "stateMutability": "view",
      "type": "function"
    }
  ],
  "bytecode": "0x60806040523480156200001157600080fd5b5060405160208062008515833981018060405281019080805190602001909291905050506200006373543ff227f64aa17ea132bf9886cab5db55dcaddf6200010d640100000000026401000000009004565b15620000c45773543ff227f64aa17ea132bf9886cab5db55dcaddf600660006101000a81548173ffffffffffffffffffffffffffffffffffffffff021916908373ffffffffffffffffffffffffffffffffffffffff16021790555062000106565b80600660006101000a81548173ffffffffffffffffffffffffffffffffffffffff021916908373ffffffffffffffffffffffffffffffffffffffff1602179055505b5062000126565b600080823b905060008163ffffffff1611915050919050565b6183df80620001366000396000f3006080604052600436106101f9576000357c0100000000000000000000000000000000000000000000000000000000900463ffffffff16806302506804146101fe5780630d483442146102c3578063119ce91b146102ee57806316db51721461035a5780631702ef0c146103c657806321b4b3dc14610413578063245d775e1461043e5780632d598e58146104cd5780632daedd521461052057806330ca0a531461057d57806332ed5b12146105b0578063339e23d1146106b8578063369847cb1461072b57806337376ca8146107ba57806339500019146108035780633c1338181461088a578063488c65fc146108cf5780635142bc1e1461095857806351d997b21461098a57806361d585da146109b95780636359036b14610a0c5780637074376814610a7857806372f702f314610ac757806376124dac14610b1e57806379a1c1f614610b915780637cb6cf3e14610bf957806380f5e0a114610c89578063848fd3a714610cd257806388737b5e14610d3f5780639525c0cc14610dd65780639bc5689d14610e07578063a003651d14610e32578063b2449d6514610e77578063b451291314610ea2578063ba51b14e14610ef1578063c083510614610f62578063cc3bf9e914610fab578063e5af18c514611038578063e751f2711461107d578063eafd7189146110c6578063fb6c0cbb1461110b575b600080fd5b34801561020a57600080fd5b5061022d6004803603810190808035600019169060200190929190505050611150565b604051808e81526020018d81526020018c81526020018b81526020018a81526020018981526020018881526020018781526020018681526020018581526020018481526020018381526020018273ffffffffffffffffffffffffffffffffffffffff1673ffffffffffffffffffffffffffffffffffffffff1681526020019d505050505050505050505050505060405180910390f35b3480156102cf57600080fd5b506102d86111d6565b6040518082815260200191505060405180910390f35b3480156102fa57600080fd5b5061033d6004803603810190808035600019169060200190929190803573ffffffffffffffffffffffffffffffffffffffff1690602001909291905050506111db565b604051808381526020018281526020019250505060405180910390f35b34801561036657600080fd5b506103a96004803603810190808035600019169060200190929190803573ffffffffffffffffffffffffffffffffffffffff169060200190929190505050611294565b604051808381526020018281526020019250505060405180910390f35b3480156103d257600080fd5b506103f56004803603810190808035600019169060200190929190505050611360565b60405180826000191660001916815260200191505060405180910390f35b34801561041f57600080fd5b50610428611388565b6040518082815260200191505060405180910390f35b34801561044a57600080fd5b506104af600480360381019080806101c00190600e806020026040519081016040528092919082600e6020028082843782019150505050509192919290803573ffffffffffffffffffffffffffffffffffffffff16906020019092919050505061138e565b60405180826000191660001916815260200191505060405180910390f35b3480156104d957600080fd5b5061050a60048036038101908080356000191690602001909291908035600019169060200190929190505050611df3565b6040518082815260200191505060405180910390f35b34801561052c57600080fd5b5061056360048036038101908080356000191690602001909291908035906020019092919080359060200190929190505050612077565b604051808215151515815260200191505060405180910390f35b34801561058957600080fd5b5061059261208e565b60405180826000191660001916815260200191505060405180910390f35b3480156105bc57600080fd5b506105df60048036038101908080356000191690602001909291905050506121d3565b604051808d600019166000191681526020018c73ffffffffffffffffffffffffffffffffffffffff1673ffffffffffffffffffffffffffffffffffffffff1681526020018b81526020018a815260200189815260200188815260200187600581111561064757fe5b60ff1681526020018681526020018573ffffffffffffffffffffffffffffffffffffffff1673ffffffffffffffffffffffffffffffffffffffff16815260200184815260200183600019166000191681526020018281526020019c5050505050505050505050505060405180910390f35b3480156106c457600080fd5b50610711600480360381019080803560001916906020019092919080359060200190929190803573ffffffffffffffffffffffffffffffffffffffff169060200190929190505050612280565b604051808215151515815260200191505060405180910390f35b34801561073757600080fd5b5061079c600480360381019080806101c00190600e806020026040519081016040528092919082600e6020028082843782019150505050509192919290803573ffffffffffffffffffffffffffffffffffffffff16906020019092919050505061228c565b60405180826000191660001916815260200191505060405180910390f35b3480156107c657600080fd5b506107e96004803603810190808035600019169060200190929190505050612556565b604051808215151515815260200191505060405180910390f35b34801561080f57600080fd5b506108706004803603810190808035600019169060200190929190803590602001909291908035906020019092919080359060200190929190803573ffffffffffffffffffffffffffffffffffffffff169060200190929190505050612560565b604051808215151515815260200191505060405180910390f35b34801561089657600080fd5b506108b96004803603810190808035600019169060200190929190505050612780565b6040518082815260200191505060405180910390f35b3480156108db57600080fd5b5061093e6004803603810190808035600019169060200190929190803590602001909291908035906020019092919080359060200190929190803590602001909291908035906020019082018035906020019190919293919293905050506127a8565b604051808215151515815260200191505060405180910390f35b34801561096457600080fd5b5061096d612d9b565b604051808381526020018281526020019250505060405180910390f35b34801561099657600080fd5b5061099f612da9565b604051808215151515815260200191505060405180910390f35b3480156109c557600080fd5b506109e86004803603810190808035600019169060200190929190505050612db1565b604051808260058111156109f857fe5b60ff16815260200191505060405180910390f35b348015610a1857600080fd5b50610a5b6004803603810190808035600019169060200190929190803573ffffffffffffffffffffffffffffffffffffffff169060200190929190505050612de6565b604051808381526020018281526020019250505060405180910390f35b348015610a8457600080fd5b50610ab160048036038101908080356000191690602001909291908035906020019092919050505061356f565b6040518082815260200191505060405180910390f35b348015610ad357600080fd5b50610adc6135a9565b604051808273ffffffffffffffffffffffffffffffffffffffff1673ffffffffffffffffffffffffffffffffffffffff16815260200191505060405180910390f35b348015610b2a57600080fd5b50610b77600480360381019080803560001916906020019092919080359060200190929190803573ffffffffffffffffffffffffffffffffffffffff1690602001909291905050506135cf565b604051808215151515815260200191505060405180910390f35b348015610b9d57600080fd5b50610bc060048036038101908080356000191690602001909291905050506137ee565b60405180878152602001868152602001858152602001848152602001838152602001828152602001965050505050505060405180910390f35b348015610c0557600080fd5b50610c0e61392c565b6040518080602001828103825283818151815260200191508051906020019080838360005b83811015610c4e578082015181840152602081019050610c33565b50505050905090810190601f168015610c7b5780820380516001836020036101000a031916815260200191505b509250505060405180910390f35b348015610c9557600080fd5b50610cb86004803603810190808035600019169060200190929190505050613965565b604051808215151515815260200191505060405180910390f35b348015610cde57600080fd5b50610d016004803603810190808035600019169060200190929190505050613b47565b6040518082600260200280838360005b83811015610d2c578082015181840152602081019050610d11565b5050505090500191505060405180910390f35b348015610d4b57600080fd5b50610db8600480360381019080803590602001909291908035600019169060200190929190803573ffffffffffffffffffffffffffffffffffffffff169060200190929190803573ffffffffffffffffffffffffffffffffffffffff169060200190929190505050613baf565b60405180826000191660001916815260200191505060405180910390f35b348015610de257600080fd5b50610e056004803603810190808035600019169060200190929190505050614265565b005b348015610e1357600080fd5b50610e1c61427e565b6040518082815260200191505060405180910390f35b348015610e3e57600080fd5b50610e616004803603810190808035600019169060200190929190505050614283565b6040518082815260200191505060405180910390f35b348015610e8357600080fd5b50610e8c6142ab565b6040518082815260200191505060405180910390f35b348015610eae57600080fd5b50610edb6004803603810190808035600019169060200190929190803590602001909291905050506142b0565b6040518082815260200191505060405180910390f35b348015610efd57600080fd5b50610f2060048036038101908080356000191690602001909291905050506142ea565b604051808273ffffffffffffffffffffffffffffffffffffffff1673ffffffffffffffffffffffffffffffffffffffff16815260200191505060405180910390f35b348015610f6e57600080fd5b50610f91600480360381019080803560001916906020019092919050505061431d565b604051808215151515815260200191505060405180910390f35b348015610fb757600080fd5b50610ffa6004803603810190808035600019169060200190929190803573ffffffffffffffffffffffffffffffffffffffff16906020019092919050505061432f565b6040518082600560200280838360005b8381101561102557808201518184015260208101905061100a565b5050505090500191505060405180910390f35b34801561104457600080fd5b506110676004803603810190808035600019169060200190929190505050614ed5565b6040518082815260200191505060405180910390f35b34801561108957600080fd5b506110ac6004803603810190808035600019169060200190929190505050614ee7565b604051808215151515815260200191505060405180910390f35b3480156110d257600080fd5b506110f56004803603810190808035600019169060200190929190505050614f0f565b6040518082815260200191505060405180910390f35b34801561111757600080fd5b5061113a6004803603810190808035600019169060200190929190505050614fa4565b6040518082815260200191505060405180910390f35b600060205280600052604060002060009150905080600001549080600101549080600201549080600301549080600401549080600501549080600601549080600701549080600801549080600901549080600a01549080600b01549080600e0160009054906101000a900473ffffffffffffffffffffffffffffffffffffffff1690508d565b600281565b6000806111e6618159565b60016000866000191660001916815260200190815260200160002060100160008573ffffffffffffffffffffffffffffffffffffffff1673ffffffffffffffffffffffffffffffffffffffff1681526020019081526020016000206060604051908101604052908160008201548152602001600182015481526020016002820160009054906101000a900460ff16151515158152505090508060000151816020015192509250509250929050565b60008060016000856000191660001916815260200190815260200160002060120160008473ffffffffffffffffffffffffffffffffffffffff1673ffffffffffffffffffffffffffffffffffffffff1681526020019081526020016000206000015460016000866000191660001916815260200190815260200160002060120160008573ffffffffffffffffffffffffffffffffffffffff1673ffffffffffffffffffffffffffffffffffffffff16815260200190815260200160002060010154915091509250929050565b6000600160008360001916600019168152602001908152602001600020600001549050919050565b60025481565b60008061139961817d565b6064856000600e811015156113aa57fe5b6020020151111580156113d057506000856000600e811015156113c957fe5b6020020151115b151561146a576040517f08c379a000000000000000000000000000000000000000000000000000000000815260040180806020018281038252602b8152602001807f30203c20707265426f6f73746564566f7465526571756972656450657263656e81526020017f74616765203c3d2031303000000000000000000000000000000000000000000081525060400191505060405180910390fd5b6000856004600e8110151561147b57fe5b60200201511180156114a457506305f5e100856004600e8110151561149c57fe5b602002015111155b1515611518576040517f08c379a00000000000000000000000000000000000000000000000000000000081526004018080602001828103825260208152602001807f30203c207468726573686f6c64436f6e737442203c203130303030303030302081525060200191505060405180910390fd5b6a52b7d2dcc80cd2e4000000856003600e8110151561153357fe5b6020020151111515156115ae576040517f08c379a00000000000000000000000000000000000000000000000000000000081526004018080602001828103825260208152602001807f7468726573686f6c64436f6e737441203c3d203130303030303030302077656981525060200191505060405180910390fd5b6064856009600e811015156115bf57fe5b60200201511115151561163a576040517f08c379a000000000000000000000000000000000000000000000000000000000815260040180806020018281038252601e8152602001807f7374616b6572466565526174696f466f72566f74657273203c3d20313030000081525060200191505060405180910390fd5b606485600a600e8110151561164b57fe5b6020020151111515156116c6576040517f08c379a00000000000000000000000000000000000000000000000000000000081526004018080602001828103825260208152602001807f766f7465727352657075746174696f6e4c6f7373526174696f203c3d2031303081525060200191505060405180910390fd5b606485600b600e811015156116d757fe5b602002015111151515611778576040517f08c379a00000000000000000000000000000000000000000000000000000000081526004018080602001828103825260248152602001807f766f746572734761696e526570526174696f46726f6d4c6f7374526570203c3d81526020017f203130300000000000000000000000000000000000000000000000000000000081525060400191505060405180910390fd5b846006600e8110151561178757fe5b6020020151856002600e8110151561179b57fe5b60200201511015151561183c576040517f08c379a000000000000000000000000000000000000000000000000000000000815260040180806020018281038252602b8152602001807f626f6f73746564566f7465506572696f644c696d6974203e3d2071756965744581526020017f6e64696e67506572696f6400000000000000000000000000000000000000000081525060400191505060405180910390fd5b6305f5e100856007600e8110151561185057fe5b6020020151111515156118f1576040517f08c379a00000000000000000000000000000000000000000000000000000000081526004018080602001828103825260258152602001807f70726f706f73696e67526570526577617264436f6e737441203c3d203130303081526020017f303030303000000000000000000000000000000000000000000000000000000081525060400191505060405180910390fd5b6305f5e100856008600e8110151561190557fe5b6020020151111515156119a6576040517f08c379a00000000000000000000000000000000000000000000000000000000081526004018080602001828103825260258152602001807f70726f706f73696e67526570526577617264436f6e737442203c3d203130303081526020017f303030303000000000000000000000000000000000000000000000000000000081525060400191505060405180910390fd5b846009600e811015156119b557fe5b602002015160020285600c600e811015156119cc57fe5b602002015111151515611a6d576040517f08c379a000000000000000000000000000000000000000000000000000000000815260040180806020018281038252602d8152602001807f64616f426f756e7479436f6e7374203c3d2032202a207374616b65724665655281526020017f6174696f466f72566f746572730000000000000000000000000000000000000081525060400191505060405180910390fd5b846009600e81101515611a7c57fe5b602002015185600c600e81101515611a9057fe5b602002015110151515611b31576040517f08c379a00000000000000000000000000000000000000000000000000000000081526004018080602001828103825260298152602001807f64616f426f756e7479436f6e7374203e3d207374616b6572466565526174696f81526020017f466f72566f74657273000000000000000000000000000000000000000000000081525060400191505060405180910390fd5b611b3b858561228c565b915084600c600e81101515611b4c57fe5b6020020151816000600281101515611b6057fe5b60200201818152505084600d600e81101515611b7857fe5b6020020151816001600281101515611b8c57fe5b6020020181815250506101c060405190810160405280866000600e81101515611bb157fe5b60200201518152602001866001600e81101515611bca57fe5b60200201518152602001866002600e81101515611be357fe5b60200201518152602001866003600e81101515611bfc57fe5b60200201518152602001866004600e81101515611c1557fe5b60200201518152602001866005600e81101515611c2e57fe5b60200201518152602001866006600e81101515611c4757fe5b60200201518152602001866007600e81101515611c6057fe5b60200201518152602001866008600e81101515611c7957fe5b60200201518152602001866009600e81101515611c9257fe5b6020020151815260200186600a600e81101515611cab57fe5b6020020151815260200186600b600e81101515611cc457fe5b602002015181526020018281526020018573ffffffffffffffffffffffffffffffffffffffff168152506000808460001916600019168152602001908152602001600020600082015181600001556020820151816001015560408201518160020155606082015181600301556080820151816004015560a0820151816005015560c0820151816006015560e082015181600701556101008201518160080155610120820151816009015561014082015181600a015561016082015181600b015561018082015181600c01906002611d9c92919061819f565b506101a082015181600e0160006101000a81548173ffffffffffffffffffffffffffffffffffffffff021916908373ffffffffffffffffffffffffffffffffffffffff160217905550905050819250505092915050565b6000806000611e006181df565b600080611e0c87614f0f565b94506002935060008089600019166000191681526020019081526020016000206101c0604051908101604052908160008201548152602001600182015481526020016002820154815260200160038201548152602001600482015481526020016005820154815260200160068201548152602001600782015481526020016008820154815260200160098201548152602001600a8201548152602001600b8201548152602001600c8201600280602002604051908101604052809291908260028015611eed576020028201915b815481526020019060010190808311611ed9575b50505050508152602001600e820160009054906101000a900473ffffffffffffffffffffffffffffffffffffffff1673ffffffffffffffffffffffffffffffffffffffff1673ffffffffffffffffffffffffffffffffffffffff1681525050925060008360800151111515611fca576040517f08c379a00000000000000000000000000000000000000000000000000000000081526004018080602001828103825260208152602001807f73686f756c6420626520612076616c696420706172616d65746572206861736881525060200191505060405180910390fd5b611ff7611fdd8460800151601a0b614fbc565b611fe987601a0b614fbc565b614fde90919063ffffffff16565b9150606461200483615009565b601a0b131561201d5761201a6064601a0b614fbc565b91505b61205c61203e8361203087601a0b614fbc565b61503190919063ffffffff16565b61204e8560600151601a0b614fbc565b61511290919063ffffffff16565b905061206781615009565b601a0b9550505050505092915050565b600061208584848433615132565b90509392505050565b60405160200180807f616464726573732047656e6573697350726f746f636f6c416464726573730000815250601e01807f627974657333322050726f706f73616c49640000000000000000000000000000815250601201807f75696e7420566f74650000000000000000000000000000000000000000000000815250600901807f75696e7420416d6f756e74546f5374616b650000000000000000000000000000815250601201807f75696e74204e6f6e636500000000000000000000000000000000000000000000815250600a0190506040516020818303038152906040526040518082805190602001908083835b6020831015156121a3578051825260208201915060208101905060208303925061217e565b6001836020036101000a038019825116818451168082178552505050505050905001915050604051809103902081565b60016020528060005260406000206000915090508060000154908060010160009054906101000a900473ffffffffffffffffffffffffffffffffffffffff16908060020154908060030154908060040154908060050154908060060160009054906101000a900460ff16908060070154908060080160009054906101000a900473ffffffffffffffffffffffffffffffffffffffff169080600901549080600a01549080600b015490508c565b60008090509392505050565b6000826000600e8110151561229d57fe5b6020020151836001600e811015156122b157fe5b6020020151846002600e811015156122c557fe5b6020020151856003600e811015156122d957fe5b6020020151866004600e811015156122ed57fe5b6020020151876005600e8110151561230157fe5b6020020151886006600e8110151561231557fe5b6020020151896007600e8110151561232957fe5b60200201518a6008600e8110151561233d57fe5b60200201518b6009600e8110151561235157fe5b60200201518c600a600e8110151561236557fe5b60200201518d600b600e8110151561237957fe5b60200201518e600c600e8110151561238d57fe5b60200201518f600d600e811015156123a157fe5b6020020151604051602001808f81526020018e81526020018d81526020018c81526020018b81526020018a81526020018981526020018881526020018781526020018681526020018581526020018481526020018381526020018281526020019e5050505050505050505050505050506040516020818303038152906040526040518082805190602001908083835b6020831015156124555780518252602082019150602081019050602083039250612430565b6001836020036101000a0380198251168184511680821785525050505050509050019150506040518091039020826040516020018083600019166000191681526020018273ffffffffffffffffffffffffffffffffffffffff1673ffffffffffffffffffffffffffffffffffffffff166c01000000000000000000000000028152601401925050506040516020818303038152906040526040518082805190602001908083835b60208310151561252157805182526020820191506020810190506020830392506124fc565b6001836020036101000a0380198251168184511680821785525050505050509050019150506040518091039020905092915050565b6000809050919050565b60008061256b6181df565b600088612577816156c0565b151561258257600080fd5b600160008b60001916600019168152602001908152602001600020935060008085600a0154600019166000191681526020019081526020016000206101c0604051908101604052908160008201548152602001600182015481526020016002820154815260200160038201548152602001600482015481526020016005820154815260200160068201548152602001600782015481526020016008820154815260200160098201548152602001600a8201548152602001600b8201548152602001600c820160028060200260405190810160405280929190826002801561267e576020028201915b81548152602001906001019080831161266a575b50505050508152602001600e820160009054906101000a900473ffffffffffffffffffffffffffffffffffffffff1673ffffffffffffffffffffffffffffffffffffffff1673ffffffffffffffffffffffffffffffffffffffff16815250509250600073ffffffffffffffffffffffffffffffffffffffff16836101a0015173ffffffffffffffffffffffffffffffffffffffff1614151561276157826101a0015173ffffffffffffffffffffffffffffffffffffffff163373ffffffffffffffffffffffffffffffffffffffff1614151561275957600080fd5b859150612765565b3391505b6127718a838b8b615754565b94505050505095945050505050565b6000600160008360001916600019168152602001908152602001600020600701549050919050565b60008060008015156007868660405180838380828437820191505092505050908152602001604051809103902060009054906101000a900460ff1615151415156127f157600080fd5b6002861415612ac05760405160200180807f616464726573732047656e6573697350726f746f636f6c416464726573730000815250601e01807f627974657333322050726f706f73616c49640000000000000000000000000000815250601201807f75696e7420566f74650000000000000000000000000000000000000000000000815250600901807f75696e7420416d6f756e74546f5374616b650000000000000000000000000000815250601201807f75696e74204e6f6e636500000000000000000000000000000000000000000000815250600a0190506040516020818303038152906040526040518082805190602001908083835b60208310151561290f57805182526020820191506020810190506020830392506128ea565b6001836020036101000a0380198251168184511680821785525050505050509050019150506040518091039020308b8b8b8b604051602001808673ffffffffffffffffffffffffffffffffffffffff1673ffffffffffffffffffffffffffffffffffffffff166c010000000000000000000000000281526014018560001916600019168152602001848152602001838152602001828152602001955050505050506040516020818303038152906040526040518082805190602001908083835b6020831015156129f457805182526020820191506020810190506020830392506129cf565b6001836020036101000a03801982511681845116808217855250505050505090500191505060405180910390206040516020018083600019166000191681526020018260001916600019168152602001925050506040516020818303038152906040526040518082805190602001908083835b602083101515612a8c5780518252602082019150602081019050602083039250612a67565b6001836020036101000a03801982511681845116808217855250505050505090500191505060405180910390209150612cbb565b6040805190810160405280601c81526020017f19457468657265756d205369676e6564204d6573736167653a0a333200000000815250308b8b8b8b604051602001808673ffffffffffffffffffffffffffffffffffffffff1673ffffffffffffffffffffffffffffffffffffffff166c010000000000000000000000000281526014018560001916600019168152602001848152602001838152602001828152602001955050505050506040516020818303038152906040526040518082805190602001908083835b602083101515612bae5780518252602082019150602081019050602083039250612b89565b6001836020036101000a03801982511681845116808217855250505050505090500191505060405180910390206040516020018083805190602001908083835b602083101515612c135780518252602082019150602081019050602083039250612bee565b6001836020036101000a0380198251168184511680821785525050505050509050018260001916600019168152602001925050506040516020818303038152906040526040518082805190602001908083835b602083101515612c8b5780518252602082019150602081019050602083039250612c66565b6001836020036101000a038019825116818451168082178552505050505050905001915050604051809103902091505b612d0485858080601f01602080910402602001604051908101604052809392919081815260200183838082843782019150505050505083600019166160b890919063ffffffff16565b9050600073ffffffffffffffffffffffffffffffffffffffff168173ffffffffffffffffffffffffffffffffffffffff1614151515612d4257600080fd5b60016007868660405180838380828437820191505092505050908152602001604051809103902060006101000a81548160ff021916908315150217905550612d8c8a8a8a84615132565b92505050979650505050505050565b600080600280915091509091565b600080905090565b600060016000836000191660001916815260200190815260200160002060060160009054906101000a900460ff169050919050565b600080600080612df46181df565b6000600160008960001916600019168152602001908152602001600020935060026005811115612e2057fe5b8460060160009054906101000a900460ff166005811115612e3d57fe5b1480612e70575060016005811115612e5157fe5b8460060160009054906101000a900460ff166005811115612e6e57fe5b145b1515612e7b57600080fd5b8360110160008560070154815260200190815260200160002054925060008460120160008973ffffffffffffffffffffffffffffffffffffffff1673ffffffffffffffffffffffffffffffffffffffff16815260200190815260200160002060020154118015612f32575083600701548460120160008973ffffffffffffffffffffffffffffffffffffffff1673ffffffffffffffffffffffffffffffffffffffff16815260200190815260200160002060000154145b8015612f42575060018460070154145b8015612f4f575060008314155b1561319a5760008085600a0154600019166000191681526020019081526020016000206101c0604051908101604052908160008201548152602001600182015481526020016002820154815260200160038201548152602001600482015481526020016005820154815260200160068201548152602001600782015481526020016008820154815260200160098201548152602001600a8201548152602001600b8201548152602001600c8201600280602002604051908101604052809291908260028015613033576020028201915b81548152602001906001019080831161301f575b50505050508152602001600e820160009054906101000a900473ffffffffffffffffffffffffffffffffffffffff1673ffffffffffffffffffffffffffffffffffffffff1673ffffffffffffffffffffffffffffffffffffffff168152505091508261310483610180015160016002811015156130ac57fe5b60200201518660120160008b73ffffffffffffffffffffffffffffffffffffffff1673ffffffffffffffffffffffffffffffffffffffff168152602001908152602001600020600201546161b090919063ffffffff16565b81151561310d57fe5b04905060646131818560120160008a73ffffffffffffffffffffffffffffffffffffffff1673ffffffffffffffffffffffffffffffffffffffff16815260200190815260200160002060020154846101800151600060028110151561316e57fe5b60200201516161b090919063ffffffff16565b81151561318a57fe5b04945080851115613199578094505b5b600085141580156132d65750848460010160009054906101000a900473ffffffffffffffffffffffffffffffffffffffff1673ffffffffffffffffffffffffffffffffffffffff16636b8eb403600660009054906101000a900473ffffffffffffffffffffffffffffffffffffffff168b6040518363ffffffff167c0100000000000000000000000000000000000000000000000000000000028152600401808373ffffffffffffffffffffffffffffffffffffffff1673ffffffffffffffffffffffffffffffffffffffff168152602001826000191660001916815260200192505050602060405180830381600087803b15801561329857600080fd5b505af11580156132ac573d6000803e3d6000fd5b505050506040513d60208110156132c257600080fd5b810190808051906020019092919050505010155b15613564576132f28585600b01546161e890919063ffffffff16565b84600b01819055508360010160009054906101000a900473ffffffffffffffffffffffffffffffffffffffff1673ffffffffffffffffffffffffffffffffffffffff1663bea75f28600660009054906101000a900473ffffffffffffffffffffffffffffffffffffffff1689888c6040518563ffffffff167c0100000000000000000000000000000000000000000000000000000000028152600401808573ffffffffffffffffffffffffffffffffffffffff1673ffffffffffffffffffffffffffffffffffffffff1681526020018473ffffffffffffffffffffffffffffffffffffffff1673ffffffffffffffffffffffffffffffffffffffff1681526020018381526020018260001916600019168152602001945050505050602060405180830381600087803b15801561342757600080fd5b505af115801561343b573d6000803e3d6000fd5b505050506040513d602081101561345157600080fd5b8101908080519060200190929190505050151561346d57600080fd5b60008460120160008973ffffffffffffffffffffffffffffffffffffffff1673ffffffffffffffffffffffffffffffffffffffff168152602001908152602001600020600201819055508495508673ffffffffffffffffffffffffffffffffffffffff166005600086600001546000191660001916815260200190815260200160002060009054906101000a900473ffffffffffffffffffffffffffffffffffffffff1673ffffffffffffffffffffffffffffffffffffffff1689600019167fb4a37163ec93e05e09b62e52f7f2ea8cfde431802edede7dfebe53d2ad969dbb896040518082815260200191505060405180910390a45b505050509250929050565b6000600160008460001916600019168152602001908152602001600020601101600083815260200190815260200160002054905092915050565b600660009054906101000a900473ffffffffffffffffffffffffffffffffffffffff1681565b6000806135da6181df565b6000866135e6816156c0565b15156135f157600080fd5b600160008960001916600019168152602001908152602001600020935060008085600a0154600019166000191681526020019081526020016000206101c0604051908101604052908160008201548152602001600182015481526020016002820154815260200160038201548152602001600482015481526020016005820154815260200160068201548152602001600782015481526020016008820154815260200160098201548152602001600a8201548152602001600b8201548152602001600c82016002806020026040519081016040528092919082600280156136ed576020028201915b8154815260200190600101908083116136d9575b50505050508152602001600e820160009054906101000a900473ffffffffffffffffffffffffffffffffffffffff1673ffffffffffffffffffffffffffffffffffffffff1673ffffffffffffffffffffffffffffffffffffffff16815250509250600073ffffffffffffffffffffffffffffffffffffffff16836101a0015173ffffffffffffffffffffffffffffffffffffffff161415156137d057826101a0015173ffffffffffffffffffffffffffffffffffffffff163373ffffffffffffffffffffffffffffffffffffffff161415156137c857600080fd5b8591506137d4565b3391505b6137e18883896000615754565b9450505050509392505050565b600080600080600080600160008860001916600019168152602001908152602001600020600f0160006001815260200190815260200160002054600160008960001916600019168152602001908152602001600020600f0160006002815260200190815260200160002054600160008a60001916600019168152602001908152602001600020600c01600060028110151561388557fe5b0154600160008b60001916600019168152602001908152602001600020600c0160016002811015156138b357fe5b0154600160008c6000191660001916815260200190815260200160002060110160006001815260200190815260200160002054600160008d600019166000191681526020019081526020016000206011016000600281526020019081526020016000205495509550955095509550955091939550919395565b6040805190810160405280601c81526020017f19457468657265756d205369676e6564204d6573736167653a0a33320000000081525081565b600061396f61826b565b6001600084600019166000191681526020019081526020016000206101a060405190810160405290816000820154600019166000191681526020016001820160009054906101000a900473ffffffffffffffffffffffffffffffffffffffff1673ffffffffffffffffffffffffffffffffffffffff1673ffffffffffffffffffffffffffffffffffffffff168152602001600282015481526020016003820154815260200160048201548152602001600582015481526020016006820160009054906101000a900460ff166005811115613a4557fe5b6005811115613a5057fe5b8152602001600782015481526020016008820160009054906101000a900473ffffffffffffffffffffffffffffffffffffffff1673ffffffffffffffffffffffffffffffffffffffff1673ffffffffffffffffffffffffffffffffffffffff16815260200160098201548152602001600a82015460001916600019168152602001600b8201548152602001600c8201600280602002604051908101604052809291908260028015613b16576020028201915b815481526020019060010190808311613b02575b5050505050815250509050613b348161014001518260000151611df3565b613b3d84616201565b1215915050919050565b613b4f61817d565b6000808360001916600019168152602001908152602001600020600c01600280602002604051908101604052809291908260028015613ba3576020028201915b815481526020019060010190808311613b8f575b50505050509050919050565b600080613bba61826b565b600287141515613bc957600080fd5b6000806000886000191660001916815260200190815260200160002060000154111515613bf557600080fd5b30600254604051602001808373ffffffffffffffffffffffffffffffffffffffff1673ffffffffffffffffffffffffffffffffffffffff166c01000000000000000000000000028152601401828152602001925050506040516020818303038152906040526040518082805190602001908083835b602083101515613c8f5780518252602082019150602081019050602083039250613c6a565b6001836020036101000a038019825116818451168082178552505050505050905001915050604051809103902091506002600081548092919060010191905055508681604001818152505033816020019073ffffffffffffffffffffffffffffffffffffffff16908173ffffffffffffffffffffffffffffffffffffffff16815250503384604051602001808373ffffffffffffffffffffffffffffffffffffffff1673ffffffffffffffffffffffffffffffffffffffff166c010000000000000000000000000281526014018273ffffffffffffffffffffffffffffffffffffffff1673ffffffffffffffffffffffffffffffffffffffff166c01000000000000000000000000028152601401925050506040516020818303038152906040526040518082805190602001908083835b602083101515613de55780518252602082019150602081019050602083039250613dc0565b6001836020036101000a03801982511681845116808217855250505050505090500191505060405180910390208160000190600019169081600019168152505060038160c001906005811115613e3757fe5b90816005811115613e4457fe5b8152505042816080018181525050600080876000191660001916815260200190815260200160002060020154816101200181815250508481610100019073ffffffffffffffffffffffffffffffffffffffff16908173ffffffffffffffffffffffffffffffffffffffff168152505060028160e0018181525050858161014001906000191690816000191681525050806001600084600019166000191681526020019081526020016000206000820151816000019060001916905560208201518160010160006101000a81548173ffffffffffffffffffffffffffffffffffffffff021916908373ffffffffffffffffffffffffffffffffffffffff16021790555060408201518160020155606082015181600301556080820151816004015560a0820151816005015560c08201518160060160006101000a81548160ff02191690836005811115613f9257fe5b021790555060e082015181600701556101008201518160080160006101000a81548173ffffffffffffffffffffffffffffffffffffffff021916908373ffffffffffffffffffffffffffffffffffffffff160217905550610120820151816009015561014082015181600a019060001916905561016082015181600b015561018082015181600c0190600261402892919061819f565b5090505060006005600083600001516000191660001916815260200190815260200160002060009054906101000a900473ffffffffffffffffffffffffffffffffffffffff1673ffffffffffffffffffffffffffffffffffffffff16141561418257600073ffffffffffffffffffffffffffffffffffffffff168473ffffffffffffffffffffffffffffffffffffffff16141561412257336005600083600001516000191660001916815260200190815260200160002060006101000a81548173ffffffffffffffffffffffffffffffffffffffff021916908373ffffffffffffffffffffffffffffffffffffffff160217905550614181565b836005600083600001516000191660001916815260200190815260200160002060006101000a81548173ffffffffffffffffffffffffffffffffffffffff021916908373ffffffffffffffffffffffffffffffffffffffff1602179055505b5b6005600082600001516000191660001916815260200190815260200160002060009054906101000a900473ffffffffffffffffffffffffffffffffffffffff1673ffffffffffffffffffffffffffffffffffffffff1682600019167f75b4ff136cc5de5957574c797de3334eb1c141271922b825eb071e0487ba2c5c89888a604051808481526020018373ffffffffffffffffffffffffffffffffffffffff1673ffffffffffffffffffffffffffffffffffffffff1681526020018260001916600019168152602001935050505060405180910390a38192505050949350505050565b8061426f816156c0565b151561427a57600080fd5b5050565b600281565b6000600160008360001916600019168152602001908152602001600020600201549050919050565b600181565b6000600160008460001916600019168152602001908152602001600020600e01600083815260200190815260200160002054905092915050565b60056020528060005260406000206000915054906101000a900473ffffffffffffffffffffffffffffffffffffffff1681565b6000614328826156c0565b9050919050565b614337618317565b60006143416181df565b6000806000806000806000600160008d6000191660001916815260200190815260200160002098506002600581111561437657fe5b8960060160009054906101000a900460ff16600581111561439357fe5b14806143c65750600160058111156143a757fe5b8960060160009054906101000a900460ff1660058111156143c457fe5b145b151561443a576040517f08c379a00000000000000000000000000000000000000000000000000000000081526004018080602001828103825260148152602001807f77726f6e672070726f706f73616c20737461746500000000000000000000000081525060200191505060405180910390fd5b6000808a600a0154600019166000191681526020019081526020016000206101c0604051908101604052908160008201548152602001600182015481526020016002820154815260200160038201548152602001600482015481526020016005820154815260200160068201548152602001600782015481526020016008820154815260200160098201548152602001600a8201548152602001600b8201548152602001600c8201600280602002604051908101604052809291908260028015614519576020028201915b815481526020019060010190808311614505575b50505050508152602001600e820160009054906101000a900473ffffffffffffffffffffffffffffffffffffffff1673ffffffffffffffffffffffffffffffffffffffff1673ffffffffffffffffffffffffffffffffffffffff168152505097506001896007015414156145a55788600f016000600281526020019081526020016000205494506145bf565b88600f016000600181526020019081526020016000205494505b606488610140015186028115156145d257fe5b0494508860120160008c73ffffffffffffffffffffffffffffffffffffffff1673ffffffffffffffffffffffffffffffffffffffff168152602001908152602001600020935060008460010154118015614633575088600701548460000154145b15614731578860110160008a60070154815260200190815260200160002054925060008314151561469c578289600c01600060028110151561467157fe5b015485600101540281151561468257fe5b048a600060058110151561469257fe5b6020020181815250505b600160058111156146a957fe5b8960060160009054906101000a900460ff1660058111156146c657fe5b141515614726578860110160008a60070154815260200190815260200160002054606489610160015187028115156146fa57fe5b04860385600101540281151561470c57fe5b048a600160058110151561471c57fe5b6020020181815250505b600084600101819055505b8860100160008c73ffffffffffffffffffffffffffffffffffffffff1673ffffffffffffffffffffffffffffffffffffffff1681526020019081526020016000209150600082600101541415801561479757508160020160009054906101000a900460ff165b156148dd5788600f016000600281526020019081526020016000205489600f01600060018152602001908152602001600020540190506000811115614805578082600101548a60030154028115156147eb57fe5b048a60026005811015156147fb57fe5b6020020181815250505b6001600581111561481257fe5b8960060160009054906101000a900460ff16600581111561482f57fe5b141561486a57606488610140015183600101540281151561484c57fe5b048a600360058110151561485c57fe5b6020020181815250506148d2565b8160000154896007015414156148d157806064896101600151878560010154020281151561489457fe5b0481151561489e57fe5b0460648961014001518460010154028115156148b657fe5b04018a60036005811015156148c757fe5b6020020181815250505b5b600082600101819055505b8a73ffffffffffffffffffffffffffffffffffffffff168960080160009054906101000a900473ffffffffffffffffffffffffffffffffffffffff1673ffffffffffffffffffffffffffffffffffffffff16148015614940575060018960070154145b801561499d5750600073ffffffffffffffffffffffffffffffffffffffff168960080160009054906101000a900473ffffffffffffffffffffffffffffffffffffffff1673ffffffffffffffffffffffffffffffffffffffff1614155b15614a98576103e86149eb8a600e01600060028152602001908152602001600020548b600e0160006001815260200190815260200160002054038a61010001516161b090919063ffffffff16565b614a308b600e01600060028152602001908152602001600020548c600e0160006001815260200190815260200160002054018b60e001516161b090919063ffffffff16565b01811515614a3a57fe5b048a6004600581101515614a4a57fe5b60200201818152505060008960080160006101000a81548173ffffffffffffffffffffffffffffffffffffffff021916908373ffffffffffffffffffffffffffffffffffffffff1602179055505b896002600581101515614aa757fe5b60200201518a6000600581101515614abb57fe5b6020020151019650896004600581101515614ad257fe5b60200201518a6003600581101515614ae657fe5b60200201518b6001600581101515614afa57fe5b602002015101019550600087141515614cff57614b33878a600c016001600281101515614b2357fe5b01546161e890919063ffffffff16565b89600c016001600281101515614b4557fe5b0181905550600660009054906101000a900473ffffffffffffffffffffffffffffffffffffffff1673ffffffffffffffffffffffffffffffffffffffff1663a9059cbb8c896040518363ffffffff167c0100000000000000000000000000000000000000000000000000000000028152600401808373ffffffffffffffffffffffffffffffffffffffff1673ffffffffffffffffffffffffffffffffffffffff16815260200182815260200192505050602060405180830381600087803b158015614c0f57600080fd5b505af1158015614c23573d6000803e3d6000fd5b505050506040513d6020811015614c3957600080fd5b81019080805190602001909291905050501515614c5557600080fd5b8a73ffffffffffffffffffffffffffffffffffffffff16600560008b600001546000191660001916815260200190815260200160002060009054906101000a900473ffffffffffffffffffffffffffffffffffffffff1673ffffffffffffffffffffffffffffffffffffffff168d600019167f6d26871c9f457d104b2122485f659f126f7a0cf6938cf20482c03f49794a2fbf8a6040518082815260200191505060405180910390a45b600086141515614ec6578860010160009054906101000a900473ffffffffffffffffffffffffffffffffffffffff1673ffffffffffffffffffffffffffffffffffffffff1663d29b5d2f878d8f6040518463ffffffff167c0100000000000000000000000000000000000000000000000000000000028152600401808481526020018373ffffffffffffffffffffffffffffffffffffffff1673ffffffffffffffffffffffffffffffffffffffff16815260200182600019166000191681526020019350505050602060405180830381600087803b158015614de057600080fd5b505af1158015614df4573d6000803e3d6000fd5b505050506040513d6020811015614e0a57600080fd5b8101908080519060200190929190505050508a73ffffffffffffffffffffffffffffffffffffffff16600560008b600001546000191660001916815260200190815260200160002060009054906101000a900473ffffffffffffffffffffffffffffffffffffffff1673ffffffffffffffffffffffffffffffffffffffff168d600019167f7419b736daacf66d5c1645948c956fca2b83be1e2e02d486d65713f289d683b8896040518082815260200191505060405180910390a45b50505050505050505092915050565b6000614ee082616201565b9050919050565b600081614ef3816156c0565b1515614efe57600080fd5b614f0783616258565b915050919050565b6000806000614f37600460008660001916600019168152602001908152602001600020616cb1565b141515614f6e57614f6b42600460008660001916600019168152602001908152602001600020616d6790919063ffffffff16565b90505b614f9c81600360008660001916600019168152602001908152602001600020546161e890919063ffffffff16565b915050919050565b60036020528060005260406000206000915090505481565b6000602860016000821215614fcd57fe5b9060020a0282601a0b029050919050565b600081602860016000821215614ff057fe5b9060020a02840281151561500057fe5b05905092915050565b600060286001600082121561501a57fe5b9060020a028281151561502957fe5b059050919050565b6000808214156150565760286001600082121561504a57fe5b9060020a02905061510c565b600083141561507657600082121561506d57600080fd5b6000905061510c565b600061508183616ea4565b14156150e15760008213156150a9576150a28361509d84615009565b616ed4565b905061510c565b6150da6028600160008212156150bb57fe5b9060020a026150d5856150d086600003615009565b616ed4565b614fde565b905061510c565b60008312156150ef57600080fd5b615109615104836150ff86616f55565b615112565b616f69565b90505b92915050565b60006028828402600082121561512457fe5b9060020a9005905092915050565b6000806000806151406181df565b600288111580156151515750600088115b151561515c57600080fd5b60008711151561516b57600080fd5b61517489616258565b1561518257600194506156b4565b600160008a600019166000191681526020019081526020016000209350600360058111156151ac57fe5b8460060160009054906101000a900460ff1660058111156151c957fe5b1415156151d957600094506156b4565b8360120160008773ffffffffffffffffffffffffffffffffffffffff1673ffffffffffffffffffffffffffffffffffffffff168152602001908152602001600020925060008360010154118015615234575087836000015414155b1561524257600094506156b4565b86915060008085600a0154600019166000191681526020019081526020016000206101c0604051908101604052908160008201548152602001600182015481526020016002820154815260200160038201548152602001600482015481526020016005820154815260200160068201548152602001600782015481526020016008820154815260200160098201548152602001600a8201548152602001600b8201548152602001600c8201600280602002604051908101604052809291908260028015615324576020028201915b815481526020019060010190808311615310575b50505050508152602001600e820160009054906101000a900473ffffffffffffffffffffffffffffffffffffffff1673ffffffffffffffffffffffffffffffffffffffff1673ffffffffffffffffffffffffffffffffffffffff168152505090508060a00151821015151561539857600080fd5b600660009054906101000a900473ffffffffffffffffffffffffffffffffffffffff1673ffffffffffffffffffffffffffffffffffffffff166323b872dd8730856040518463ffffffff167c0100000000000000000000000000000000000000000000000000000000028152600401808473ffffffffffffffffffffffffffffffffffffffff1673ffffffffffffffffffffffffffffffffffffffff1681526020018373ffffffffffffffffffffffffffffffffffffffff1673ffffffffffffffffffffffffffffffffffffffff1681526020018281526020019350505050602060405180830381600087803b15801561549157600080fd5b505af11580156154a5573d6000803e3d6000fd5b505050506040513d60208110156154bb57600080fd5b810190808051906020019092919050505015156154d757600080fd5b6154fd8285600c0160016002811015156154ed57fe5b0154616f7d90919063ffffffff16565b84600c01600160028110151561550f57fe5b0181905550818360010160008282540192505081905550826001015483600201819055508783600001819055506064828261012001510281151561554f57fe5b0484600301600082825401925050819055506155898460110160008a81526020019081526020016000205483616f7d90919063ffffffff16565b8460110160008a815260200190815260200160002081905550606482826101200151028115156155b557fe5b04820391506155e084600c0160006002811015156155cf57fe5b015483616f7d90919063ffffffff16565b84600c0160006002811015156155f257fe5b01819055508573ffffffffffffffffffffffffffffffffffffffff166005600086600001546000191660001916815260200190815260200160002060009054906101000a900473ffffffffffffffffffffffffffffffffffffffff1673ffffffffffffffffffffffffffffffffffffffff168a600019167fd0239d7d4acf51def4507fa173be466927de5d75d8b10d840cd6994d6e1023108b8b604051808381526020018281526020019250505060405180910390a46156b189616258565b94505b50505050949350505050565b60008060016000846000191660001916815260200190815260200160002060060160009054906101000a900460ff169050600360058111156156fe57fe5b81600581111561570a57fe5b148061572c57506004600581111561571e57fe5b81600581111561572a57fe5b145b8061574c575060058081111561573e57fe5b81600581111561574a57fe5b145b915050919050565b600061575e6181df565b6000806000806000600289111580156157775750600089115b15156157eb576040517f08c379a000000000000000000000000000000000000000000000000000000000815260040180806020018281038252600e8152602001807f30203c205f766f7465203c3d203200000000000000000000000000000000000081525060200191505060405180910390fd5b6157f48b616258565b1561580257600196506160aa565b600080600160008e60001916600019168152602001908152602001600020600a0154600019166000191681526020019081526020016000206101c0604051908101604052908160008201548152602001600182015481526020016002820154815260200160038201548152602001600482015481526020016005820154815260200160068201548152602001600782015481526020016008820154815260200160098201548152602001600a8201548152602001600b8201548152602001600c82016002806020026040519081016040528092919082600280156158fb576020028201915b8154815260200190600101908083116158e7575b50505050508152602001600e820160009054906101000a900473ffffffffffffffffffffffffffffffffffffffff1673ffffffffffffffffffffffffffffffffffffffff1673ffffffffffffffffffffffffffffffffffffffff16815250509550600160008c6000191660001916815260200190815260200160002094508460010160009054906101000a900473ffffffffffffffffffffffffffffffffffffffff1673ffffffffffffffffffffffffffffffffffffffff16639588378e8b8d6040518363ffffffff167c0100000000000000000000000000000000000000000000000000000000028152600401808373ffffffffffffffffffffffffffffffffffffffff1673ffffffffffffffffffffffffffffffffffffffff168152602001826000191660001916815260200192505050602060405180830381600087803b158015615a4857600080fd5b505af1158015615a5c573d6000803e3d6000fd5b505050506040513d6020811015615a7257600080fd5b81019080805190602001909291905050509350878410151515615afd576040517f08c379a00000000000000000000000000000000000000000000000000000000081526004018080602001828103825260128152602001807f72657075746174696f6e203e3d205f726570000000000000000000000000000081525060200191505060405180910390fd5b8792506000831415615b0d578392505b60008560100160008c73ffffffffffffffffffffffffffffffffffffffff1673ffffffffffffffffffffffffffffffffffffffff16815260200190815260200160002060010154141515615b6457600096506160aa565b615b8c85600e0160008b81526020019081526020016000205484616f7d90919063ffffffff16565b85600e0160008b81526020019081526020016000208190555084600e016000866007015481526020019081526020016000205485600e0160008b8152602001908152602001600020541180615c1f575084600e016000866007015481526020019081526020016000205485600e0160006002815260200190815260200160002054148015615c1e575060018560070154145b5b15615d9257429150600580811115615c3357fe5b8560060160009054906101000a900460ff166005811115615c5057fe5b1480615c9f575060046005811115615c6457fe5b8560060160009054906101000a900460ff166005811115615c8157fe5b148015615c9e57508560c001518660400151038560050154830310155b5b15615d8857615cdf856009015486600501540160046000886000015460001916600019168152602001908152602001600020616f9990919063ffffffff16565b600580811115615ceb57fe5b8560060160009054906101000a900460ff166005811115615d0857fe5b141515615d43578560c00151856009018190555060058560060160006101000a81548160ff02191690836005811115615d3d57fe5b02179055505b818560050181905550615d8785600901548660050154016004600088600001546000191660001916815260200190815260200160002061705d90919063ffffffff16565b5b8885600701819055505b6060604051908101604052808a815260200184815260200160036005811115615db757fe5b8760060160009054906101000a900460ff166005811115615dd457fe5b1415158152508560100160008c73ffffffffffffffffffffffffffffffffffffffff1673ffffffffffffffffffffffffffffffffffffffff168152602001908152602001600020600082015181600001556020820151816001015560408201518160020160006101000a81548160ff02191690831515021790555090505060036005811115615e5f57fe5b8560060160009054906101000a900460ff166005811115615e7c57fe5b1415615fed57615eaa85600f0160008b81526020019081526020016000205484616f7d90919063ffffffff16565b85600f0160008b81526020019081526020016000208190555060648387610140015102811515615ed657fe5b0490508460010160009054906101000a900473ffffffffffffffffffffffffffffffffffffffff1673ffffffffffffffffffffffffffffffffffffffff1663f81f8bf6828c8e6040518463ffffffff167c0100000000000000000000000000000000000000000000000000000000028152600401808481526020018373ffffffffffffffffffffffffffffffffffffffff1673ffffffffffffffffffffffffffffffffffffffff16815260200182600019166000191681526020019350505050602060405180830381600087803b158015615fb057600080fd5b505af1158015615fc4573d6000803e3d6000fd5b505050506040513d6020811015615fda57600080fd5b8101908080519060200190929190505050505b8973ffffffffffffffffffffffffffffffffffffffff166005600087600001546000191660001916815260200190815260200160002060009054906101000a900473ffffffffffffffffffffffffffffffffffffffff1673ffffffffffffffffffffffffffffffffffffffff168c600019167f066c061a3792cb3eb64a441a928655fcbafb4a54b49725fe9cd2951df5e7189e8c87604051808381526020018281526020019250505060405180910390a46160a78b616258565b96505b505050505050949350505050565b600080600080604185511415156160d257600093506161a7565b6020850151925060408501519150606085015160001a9050601b8160ff1610156160fd57601b810190505b601b8160ff16141580156161155750601c8160ff1614155b1561612357600093506161a7565b600186828585604051600081526020016040526040518085600019166000191681526020018460ff1660ff1681526020018360001916600019168152602001826000191660001916815260200194505050505060206040516020810390808403906000865af115801561619a573d6000803e3d6000fd5b5050506020604051035193505b50505092915050565b6000808314156161c357600090506161e2565b81830290508183828115156161d457fe5b041415156161de57fe5b8090505b92915050565b60008282111515156161f657fe5b818303905092915050565b60008060016000846000191660001916815260200190815260200160002090508060110160006002815260200190815260200160002054816011016000600181526020019081526020016000205403915050919050565b6000806162636181df565b61626b61826b565b6000806000808861627b816156c0565b151561628657600080fd5b600160008b60001916600019168152602001908152602001600020975060008089600a0154600019166000191681526020019081526020016000206101c0604051908101604052908160008201548152602001600182015481526020016002820154815260200160038201548152602001600482015481526020016005820154815260200160068201548152602001600782015481526020016008820154815260200160098201548152602001600a8201548152602001600b8201548152602001600c8201600280602002604051908101604052809291908260028015616382576020028201915b81548152602001906001019080831161636e575b50505050508152602001600e820160009054906101000a900473ffffffffffffffffffffffffffffffffffffffff1673ffffffffffffffffffffffffffffffffffffffff1673ffffffffffffffffffffffffffffffffffffffff16815250509650876101a060405190810160405290816000820154600019166000191681526020016001820160009054906101000a900473ffffffffffffffffffffffffffffffffffffffff1673ffffffffffffffffffffffffffffffffffffffff1673ffffffffffffffffffffffffffffffffffffffff168152602001600282015481526020016003820154815260200160048201548152602001600582015481526020016006820160009054906101000a900460ff16600581111561649f57fe5b60058111156164aa57fe5b8152602001600782015481526020016008820160009054906101000a900473ffffffffffffffffffffffffffffffffffffffff1673ffffffffffffffffffffffffffffffffffffffff1673ffffffffffffffffffffffffffffffffffffffff16815260200160098201548152602001600a82015460001916600019168152602001600b8201548152602001600c8201600280602002604051908101604052809291908260028015616570576020028201915b81548152602001906001019080831161655c575b50505050508152505095508760010160009054906101000a900473ffffffffffffffffffffffffffffffffffffffff1673ffffffffffffffffffffffffffffffffffffffff1663b551c3738b6040518263ffffffff167c0100000000000000000000000000000000000000000000000000000000028152600401808260001916600019168152602001915050602060405180830381600087803b15801561661657600080fd5b505af115801561662a573d6000803e3d6000fd5b505050506040513d602081101561664057600080fd5b8101908080519060200190929190505050945060648760000151860281151561666557fe5b049350600092506003600581111561667957fe5b8860060160009054906101000a900460ff16600581111561669657fe5b14156167e3578660200151886004015442031015156166e85760018860060160006101000a81548160ff021916908360058111156166d057fe5b021790555060028860070181905550600192506167e2565b8388600e0160008a6007015481526020019081526020016000205411156167385760028860060160006101000a81548160ff0219169083600581111561672a57fe5b0217905550600292506167e1565b6167418a613965565b156167e05760048860060160006101000a81548160ff0219169083600581111561676757fe5b02179055504288600501819055506167b08860090154896005015401600460008b600001546000191660001916815260200190815260200160002061705d90919063ffffffff16565b60036000896000015460001916600019168152602001908152602001600020600081548092919060010191905055505b5b5b5b600460058111156167f057fe5b8860060160009054906101000a900460ff16600581111561680d57fe5b148061683f575060058081111561682057fe5b8860060160009054906101000a900460ff16600581111561683d57fe5b145b156169f657876009015488600501544203101515616917576168928860090154896005015401600460008b6000015460001916600019168152602001908152602001600020616f9990919063ffffffff16565b60028860060160006101000a81548160ff021916908360058111156168b357fe5b02179055506168eb600160036000896000015160001916600019168152602001908152602001600020546161e890919063ffffffff16565b6003600088600001516000191660001916815260200190815260200160002081905550600392506169f5565b8388600e0160008a6007015481526020019081526020016000205411156169f45761696b600160036000896000015160001916600019168152602001908152602001600020546161e890919063ffffffff16565b60036000886000015160001916600019168152602001908152602001600020819055506169c98860090154896005015401600460008b6000015460001916600019168152602001908152602001600020616f9990919063ffffffff16565b60028860060160006101000a81548160ff021916908360058111156169ea57fe5b0217905550600492505b5b5b60006004811115616a0357fe5b836004811115616a0f57fe5b141515616c8757600188600701541415616abb576064616a698960110160008b600701548152602001908152602001600020548961018001516000600281101515616a5657fe5b60200201516161b090919063ffffffff16565b811515616a7257fe5b0491508661018001516001600281101515616a8957fe5b6020020151821115616ab1578661018001516001600281101515616aa957fe5b602002015191505b8188600b01819055505b6005600089600001546000191660001916815260200190815260200160002060009054906101000a900473ffffffffffffffffffffffffffffffffffffffff1673ffffffffffffffffffffffffffffffffffffffff168a600019167f37471b9c9d295ffb1309ad070b8964700bfb7b555e8e8292d0b6cbc7dba35d108a6007015488604051808381526020018281526020019250505060405180910390a389600019167f46a713b994c752c68fbefa9048bec9a0010cc7d933ad95a3c3dbb25931a167e78460405180826004811115616b9057fe5b60ff16815260200191505060405180910390a28760010160009054906101000a900473ffffffffffffffffffffffffffffffffffffffff1673ffffffffffffffffffffffffffffffffffffffff16639d4c162d8b8a600701546040518363ffffffff167c010000000000000000000000000000000000000000000000000000000002815260040180836000191660001916815260200182815260200192505050602060405180830381600087803b158015616c4a57600080fd5b505af1158015616c5e573d6000803e3d6000fd5b505050506040513d6020811015616c7457600080fd5b8101908080519060200190929190505050505b60006004811115616c9457fe5b836004811115616ca057fe5b141598505050505050505050919050565b600080616cbc61833a565b8360000160008081526020019081526020016000209150836000016000836000016000600115151515815260200190815260200160002054815260200190815260200160002060a06040519081016040529081600182015481526020016002820160009054906101000a900460ff1615151515815260200160038201548152602001600482015481526020016005820154815250509050806060015182600501540192505050919050565b600080600080600085141515616e9b578560000160008081526020019081526020016000206005015493508560000160008081526020019081526020016000206000016000600115151515815260200190815260200160002054925085600001600084815260200190815260200160002091505b600115616e9a578483111515616e455784831015616e00578160050154600185010193505b81600001600080151515158152602001908152602001600020549050600081141515616e445785600001600082815260200190815260200160002060040154840193505b5b84831415616e5257616e9a565b8160000160008685101515151581526020019081526020016000205492506000831415616e7e57616e9a565b8560000160008481526020019081526020016000209150616ddb565b5b50505092915050565b6000602860016000821215616eb557fe5b9060020a02616ec3836170a6565b811515616ecc57fe5b079050919050565b600080600080600085601a0b1215616eeb57600080fd5b85925084601a0b9150602860016000821215616f0357fe5b9060020a0290505b600082141515616f495760018083161415616f2d57616f2a8184615112565b90505b6001829060020a90059150616f428384615112565b9250616f0b565b80935050505092915050565b6000616f628260646170c4565b9050919050565b6000616f768260646171f3565b9050919050565b60008183019050828110151515616f9057fe5b80905092915050565b600082600001600083815260200190815260200160002090506000821415616fd257600081600501541415616fcd57617058565b616fe5565b600081600401541415616fe457617058565b5b60008160050154111561704c57806005016000815480929190600190039190505550600082141515617027578060040160008154809291906001900391905055505b6170478382600101548360020160009054906101000a900460ff1661726f565b617057565b617056838361729e565b5b5b505050565b600081141561709357816000016000828152602001908152602001600020600501600081548092919060010191905055506170a2565b6170a1826000600184617423565b5b5050565b6000808213156170b8578190506170bf565b8160000390505b919050565b600080600080600080600080891315156170dd57600080fd5b6028600160008212156170ec57fe5b9060020a0289141561710157600096506171e7565b61710a8961754e565b809650819750505061714660286001600082121561712457fe5b9060020a02870360286001600082121561713a57fe5b9060020a028801614fde565b935060009250600091505b8782601a0b12156171a55761718361716f8560018560020201616ed4565b61717e60018560020201614fbc565b614fde565b905080830192506000811415617198576171a5565b8180600101925050617151565b6171c98360016028600160008212156171ba57fe5b9060020a029060020a02615112565b9250826171e36171d887614fbc565b64b17217f7d2615112565b0196505b50505050505092915050565b6000806000806000925060286001600082121561720c57fe5b9060020a029150600090505b8481601a0b1215617263578183019250617246826172418861723c60018601614fbc565b614fde565b615112565b9150600082141561725657617263565b8080600101915050617218565b82935050505092915050565b6000821415156172995761728383836175d5565b61728d838361766a565b6172988383836176c1565b5b505050565b6000806000806000806000808960000160008a81526020019081526020016000209750876001015496508760020160009054906101000a900460ff169550896000016000888152602001908152602001600020945087600001600080151515158152602001908152602001600020549350876000016000600115151515815260200190815260200160002054925060008414801561733c5750600083145b1561737a576000856000016000881515151581526020019081526020016000208190555061736a8a8a61784b565b6173758a888861726f565b617417565b6000841415801561738c575060008314155b156173a15761739c8a8a866178ed565b617416565b82840191508960000160008381526020019081526020016000209050818560000160008815151515815260200190815260200160002081905550868160010181905550858160020160006101000a81548160ff02191690831515021790555061740a8a8a61784b565b6174158a888861726f565b5b5b50505050505050505050565b600080600086600001600087815260200190815260200160002092508260000160008615151515815260200190815260200160002054915060008214156174eb578383600001600087151515158152602001908152602001600020819055508660000160008581526020019081526020016000209050858160010181905550848160020160006101000a81548160ff02191690831515021790555060018160030181905550600181600401819055506174dc878561766a565b6174e68785617ad9565b617545565b83821415617534578660000160008381526020019081526020016000206005016000815480929190600101919050555061752587856175d5565b61752f878561766a565b617544565b61754387838487101587617423565b5b5b50505050505050565b6000806000808413151561756157600080fd5b61757261756d85617be1565b617c62565b60ff169050602881039150600082601a0b12156175a85781600003601a0b84600082121561759c57fe5b9060020a0292506175cf565b600082601a0b1215156175ce5781601a0b8460008212156175c557fe5b9060020a900592505b5b50915091565b600082600001600083815260200190815260200160002090508060050154836000016000836000016000600115151515815260200190815260200160002054815260200190815260200160002060040154846000016000846000016000801515151581526020019081526020016000205481526020019081526020016000206004015460010101018160040181905550505050565b60008260000160008381526020019081526020016000206001015490505b6000811415156176bc5761769c83826175d5565b826000016000828152602001908152602001600020600101549050617688565b505050565b600080600080600080600088141515617840576176de8989617e04565b6176e88989617eb6565b955086156176f9576001945061771d565b7fffffffffffffffffffffffffffffffffffffffffffffffffffffffffffffffff94505b6177278989617eb6565b9350846002028414156177fd57886000016000898152602001908152602001600020925082600001600088151515151581526020019081526020016000205491506177728983617eb6565b9050847fffffffffffffffffffffffffffffffffffffffffffffffffffffffffffffffff028114156177ab576177aa89838915617f3f565b5b6177b6898989617f3f565b6000811415156177f85788600001600089815260200190815260200160002092506177f78984600101548560020160009054906101000a900460ff166176c1565b5b61783f565b848614151561783e57886000016000898152602001908152602001600020925061783d8984600101548560020160009054906101000a900460ff166176c1565b5b5b5b505050505050505050565b600082600001600083815260200190815260200160002090506000816001018190555060008160020160006101000a81548160ff021916908315150217905550600081600001600080151515158152602001908152602001600020819055506000816000016000600115151515815260200190815260200160002081905550600081600401819055506000816003018190555060008160050181905550505050565b60008060008060008060008060008060006179088e8d6180ff565b9a508d60000160008c81526020019081526020016000209950896005015498506179328e8c61729e565b8d60000160008e81526020019081526020016000209750876001015496508d60000160008881526020019081526020016000209550876003015494508760020160009054906101000a900460ff169350876004015492508760000160006001151515158152602001908152602001600020549150876000016000801515151581526020019081526020016000205490508a8660000160008615151515815260200190815260200160002081905550868a60010181905550838a60020160006101000a81548160ff0219169083151502179055508760050154898401038a60040181905550848a60030181905550888a60050181905550600081141515617a6e57808a600001600080151515158152602001908152602001600020819055508a8e6000016000838152602001908152602001600020600101819055505b600082141515617ab557818a60000160006001151515158152602001908152602001600020819055508a8e6000016000848152602001908152602001600020600101819055505b617abf8e8e61784b565b617ac98e8c61766a565b5050505050505050505050505050565b6000806000806000617aeb8787617e04565b866000016000878152602001908152602001600020945084600101549350600084141515617bd857617b1d8785617eb6565b92508460020160009054906101000a900460ff1691508115617b61577fffffffffffffffffffffffffffffffffffffffffffffffffffffffffffffffff9050617b66565b600190505b60028102831415617bc157807fffffffffffffffffffffffffffffffffffffffffffffffffffffffffffffffff02617b9e8888617eb6565b1415617bb057617baf878784617f3f565b5b617bbc87858415617f3f565b617bd7565b600083141515617bd657617bd58785617ad9565b5b5b5b50505050505050565b6000808290506001819060020a9004811790506002819060020a9004811790506004819060020a9004811790506008819060020a9004811790506010819060020a9004811790506020819060020a9004811790506040819060020a9004811790506080819060020a9004811790506001819060020a90048118915050919050565b600080905060007faaaaaaaaaaaaaaaaaaaaaaaaaaaaaaaaaaaaaaaaaaaaaaaaaaaaaaaaaaaaaaaa8316141515617c9a576001811790505b60007fcccccccccccccccccccccccccccccccccccccccccccccccccccccccccccccccc8316141515617ccd576002811790505b60007ff0f0f0f0f0f0f0f0f0f0f0f0f0f0f0f0f0f0f0f0f0f0f0f0f0f0f0f0f0f0f0f08316141515617d00576004811790505b60007fff00ff00ff00ff00ff00ff00ff00ff00ff00ff00ff00ff00ff00ff00ff00ff008316141515617d33576008811790505b60007fffff0000ffff0000ffff0000ffff0000ffff0000ffff0000ffff0000ffff00008316141515617d66576010811790505b60007fffffffff00000000ffffffff00000000ffffffff00000000ffffffff000000008316141515617d99576020811790505b60007fffffffffffffffff0000000000000000ffffffffffffffff00000000000000008316141515617dcc576040811790505b60007fffffffffffffffffffffffffffffffff000000000000000000000000000000008316141515617dff576080811790505b919050565b6000806000846000016000858152602001908152602001600020925084600001600084600001600080151515158152602001908152602001600020548152602001908152602001600020600301549150846000016000846000016000600115151515815260200190815260200160002054815260200190815260200160002060030154905080821115617ea257600182018360030181905550617eaf565b6001810183600301819055505b5050505050565b600080836000016000848152602001908152602001600020905083600001600082600001600060011515151581526020019081526020016000205481526020019081526020016000206003015484600001600083600001600080151515158152602001908152602001600020548152602001908152602001600020600301540391505092915050565b6000806000806000806000806000891598508b60000160008c815260200190815260200160002097508760020160009054906101000a900460ff169650876001015495508760000160008a1515151581526020019081526020016000205494508b600001600086815260200190815260200160002093508360000160008b1515151581526020019081526020016000205492508b600001600087815260200190815260200160002091508b60000160008481526020019081526020016000209050848260000160008915151515815260200190815260200160002081905550868460020160006101000a81548160ff0219169083151502179055508584600101819055508a8460000160008c15151515815260200190815260200160002081905550848860010181905550898860020160006101000a81548160ff021916908315150217905550828860000160008b151515158152602001908152602001600020819055508a8160010181905550888160020160006101000a81548160ff0219169083151502179055506180d38c8c617e04565b6180dd8c86617e04565b6180e78c8c6175d5565b6180f18c866175d5565b505050505050505050505050565b6000808360000160008481526020019081526020016000206000016000600115151515815260200190815260200160002054905060008114151561814e5761814784826180ff565b9150618152565b8291505b5092915050565b60606040519081016040528060008152602001600081526020016000151581525090565b6040805190810160405280600290602082028038833980820191505090505090565b82600281019282156181ce579160200282015b828111156181cd5782518255916020019190600101906181b2565b5b5090506181db919061836c565b5090565b6101e060405190810160405280600081526020016000815260200160008152602001600081526020016000815260200160008152602001600081526020016000815260200160008152602001600081526020016000815260200160008152602001618248618391565b8152602001600073ffffffffffffffffffffffffffffffffffffffff1681525090565b6101c06040519081016040528060008019168152602001600073ffffffffffffffffffffffffffffffffffffffff16815260200160008152602001600081526020016000815260200160008152602001600060058111156182c857fe5b815260200160008152602001600073ffffffffffffffffffffffffffffffffffffffff168152602001600081526020016000801916815260200160008152602001618311618391565b81525090565b60a060405190810160405280600590602082028038833980820191505090505090565b60a060405190810160405280600081526020016000151581526020016000815260200160008152602001600081525090565b61838e91905b8082111561838a576000816000905550600101618372565b5090565b90565b60408051908101604052806002906020820280388339808201915050905050905600a165627a7a723058202adb0d79c61ad4bb8e28970edfda3f5f5ba8a31de6135e5c64016163a7e46b820029",
  "source": "pragma solidity ^0.4.25;\n\nimport \"./IntVoteInterface.sol\";\nimport { RealMath } from \"../libs/RealMath.sol\";\nimport \"./VotingMachineCallbacksInterface.sol\";\nimport \"./ProposalExecuteInterface.sol\";\nimport \"openzeppelin-solidity/contracts/math/SafeMath.sol\";\nimport \"openzeppelin-solidity/contracts/token/ERC20/StandardToken.sol\";\nimport \"openzeppelin-solidity/contracts/ECRecovery.sol\";\nimport { OrderStatisticTree } from \"../libs/OrderStatisticTree.sol\";\n\n\n/**\n * @title GenesisProtocol implementation -an organization's voting machine scheme.\n */\ncontract GenesisProtocol is IntVoteInterface {\n    using SafeMath for uint;\n    using RealMath for int216;\n    using RealMath for int256;\n    using ECRecovery for bytes32;\n    using OrderStatisticTree for OrderStatisticTree.Tree;\n\n    enum ProposalState { None ,Closed, Executed, PreBoosted,Boosted,QuietEndingPeriod }\n    enum ExecutionState { None, PreBoostedTimeOut, PreBoostedBarCrossed, BoostedTimeOut,BoostedBarCrossed }\n\n    //Organization's parameters\n    struct Parameters {\n        uint preBoostedVoteRequiredPercentage; // the absolute vote percentages bar.\n        uint preBoostedVotePeriodLimit; //the time limit for a proposal to be in an absolute voting mode.\n        uint boostedVotePeriodLimit; //the time limit for a proposal to be in an relative voting mode.\n        uint thresholdConstA;//constant A for threshold calculation . threshold =A * (e ** (numberOfBoostedProposals/B))\n        uint thresholdConstB;//constant B for threshold calculation . threshold =A * (e ** (numberOfBoostedProposals/B))\n        uint minimumStakingFee; //minimum staking fee allowed.\n        uint quietEndingPeriod; //quite ending period\n        uint proposingRepRewardConstA;//constant A for calculate proposer reward. proposerReward =(A*(RTotal) +B*(R+ - R-))/1000\n        uint proposingRepRewardConstB;//constant B for calculate proposing reward.proposerReward =(A*(RTotal) +B*(R+ - R-))/1000\n        uint stakerFeeRatioForVoters; // The ratio of stake to be paid to voters.\n                                      // All stakers pay a portion of their stake to all voters, stakerFeeRatioForVoters * (s+ + s-).\n                                      //All voters (pre and during boosting period) divide this portion in proportion to their reputation.\n        uint votersReputationLossRatio;//Unsuccessful pre booster voters lose votersReputationLossRatio% of their reputation.\n        uint votersGainRepRatioFromLostRep; //the percentages of the lost reputation which is divided by the successful pre boosted voters,\n                                            //in proportion to their reputation.\n                                            //The rest (100-votersGainRepRatioFromLostRep)% of lost reputation is divided between the successful wagers,\n                                            //in proportion to their stake.\n        uint[2] daoBountyParams; //daoBountyParams[0] = daoBountyConst //The DAO adds up a bounty for successful staker.\n                                //The bounty formula is: s * daoBountyConst, where s+ is the wager staked for the proposal,\n                                //and  daoBountyConst is a constant factor that is configurable and changeable by the DAO given.\n                                //  daoBountyConst should be greater than stakerFeeRatioForVoters and less than 2 * stakerFeeRatioForVoters.\n                                //daoBountyParams[1] = daoBountyLimit The daoBounty cannot be greater than daoBountyLimit.\n        address voteOnBehalf; //this address is allowed to vote of behalf of someone else.\n    }\n    struct Voter {\n        uint vote; // YES(1) ,NO(2)\n        uint reputation; // amount of voter's reputation\n        bool preBoosted;\n    }\n\n    struct Staker {\n        uint vote; // YES(1) ,NO(2)\n        uint amount; // amount of staker's stake\n        uint amountForBounty; // amount of staker's stake which will be use for bounty calculation\n    }\n\n    struct Proposal {\n        bytes32 organizationId; // the organization unique identifier the proposal is target to.\n        address callbacks;    // should fulfill voting callbacks interface.\n        uint numOfChoices;\n        uint votersStakes;\n        uint submittedTime;\n        uint boostedPhaseTime; //the time the proposal shift to relative mode.\n        ProposalState state;\n        uint winningVote; //the winning vote.\n        address proposer;\n        uint currentBoostedVotePeriodLimit;\n        bytes32 paramsHash;\n        uint daoBountyRemain;\n        uint[2] totalStakes;// totalStakes[0] - (amount staked minus fee) - Total number of tokens staked which can be redeemable by stakers.\n                           // totalStakes[1] - (amount staked) - Total number of redeemable tokens.\n        //      vote      reputation\n        mapping(uint    =>  uint     ) votes;\n        //      vote      reputation\n        mapping(uint    =>  uint     ) preBoostedVotes;\n        //      address     voter\n        mapping(address =>  Voter    ) voters;\n        //      vote        stakes\n        mapping(uint    =>  uint     ) stakes;\n        //      address  staker\n        mapping(address  => Staker   ) stakers;\n    }\n\n    event Stake(bytes32 indexed _proposalId, address indexed _organization, address indexed _staker,uint _vote,uint _amount);\n    event Redeem(bytes32 indexed _proposalId, address indexed _organization, address indexed _beneficiary,uint _amount);\n    event RedeemDaoBounty(bytes32 indexed _proposalId, address indexed _organization, address indexed _beneficiary,uint _amount);\n    event RedeemReputation(bytes32 indexed _proposalId, address indexed _organization, address indexed _beneficiary,uint _amount);\n    event GPExecuteProposal(bytes32 indexed _proposalId, ExecutionState _executionState);\n\n    mapping(bytes32=>Parameters) public parameters;  // A mapping from hashes to parameters\n    mapping(bytes32=>Proposal) public proposals; // Mapping from the ID of the proposal to the proposal itself.\n\n    uint constant public NUM_OF_CHOICES = 2;\n    uint constant public NO = 2;\n    uint constant public YES = 1;\n    uint public proposalsCnt; // Total number of proposals\n    mapping(bytes32=>uint) public orgBoostedProposalsCnt;\n    mapping(bytes32=>OrderStatisticTree.Tree) proposalsExpiredTimes; //proposals expired times\n          //organizationId => organization\n    mapping(bytes32        => address     ) public organizations;\n    StandardToken public stakingToken;\n    mapping(bytes=>bool) stakeSignatures; //stake signatures\n    address constant GEN_TOKEN_ADDRESS = 0x543Ff227F64Aa17eA132Bf9886cAb5DB55DCAddf;\n    // Digest describing the data the user signs according EIP 712.\n    // Needs to match what is passed to Metamask.\n    bytes32 public constant DELEGATION_HASH_EIP712 =\n    keccak256(abi.encodePacked(\"address GenesisProtocolAddress\",\"bytes32 ProposalId\", \"uint Vote\",\"uint AmountToStake\",\"uint Nonce\"));\n    // web3.eth.sign prefix\n    string public constant ETH_SIGN_PREFIX= \"\\x19Ethereum Signed Message:\\n32\";\n    /**\n     * @dev Constructor\n     */\n    constructor(StandardToken _stakingToken) public\n    {\n      //The GEN token (staking token) address is hard coded in the contract by GEN_TOKEN_ADDRESS .\n      //This will work for a network which already hosted the GEN token on this address (e.g mainnet).\n      //If such contract address does not exist in the network (e.g ganache) the contract will use the _stakingToken param as the\n      //staking token address.\n        if (isContract(address(GEN_TOKEN_ADDRESS))) {\n            stakingToken = StandardToken(GEN_TOKEN_ADDRESS);\n        } else {\n            stakingToken = _stakingToken;\n        }\n    }\n\n  /**\n   * @dev Check that the proposal is votable (open and not executed yet)\n   */\n    modifier votable(bytes32 _proposalId) {\n        require(_isVotable(_proposalId));\n        _;\n    }\n\n    /**\n     * @dev register a new proposal with the given parameters. Every proposal has a unique ID which is being\n     * generated by calculating keccak256 of a incremented counter.\n     * @param _numOfChoices number of voting choices\n     * @param _paramsHash parameters hash\n     * @param _proposer address\n     * @param _organization address\n     */\n    function propose(uint _numOfChoices, bytes32 _paramsHash,address _proposer,address _organization)\n        external\n        returns(bytes32)\n    {\n              // Check valid params and number of choices:\n        require(_numOfChoices == NUM_OF_CHOICES);\n         //Check parameters existence.\n        require(parameters[_paramsHash].preBoostedVoteRequiredPercentage > 0);\n            // Generate a unique ID:\n        bytes32 proposalId = keccak256(abi.encodePacked(this, proposalsCnt));\n        proposalsCnt++;\n         // Open proposal:\n        Proposal memory proposal;\n        proposal.numOfChoices = _numOfChoices;\n        proposal.callbacks = msg.sender;\n        proposal.organizationId = keccak256(abi.encodePacked(msg.sender,_organization));\n\n        proposal.state = ProposalState.PreBoosted;\n        // solium-disable-next-line security/no-block-members\n        proposal.submittedTime = now;\n        proposal.currentBoostedVotePeriodLimit = parameters[_paramsHash].boostedVotePeriodLimit;\n        proposal.proposer = _proposer;\n        proposal.winningVote = NO;\n        proposal.paramsHash = _paramsHash;\n        proposals[proposalId] = proposal;\n        if (organizations[proposal.organizationId] == 0) {\n            if (_organization == address(0)) {\n                organizations[proposal.organizationId] = msg.sender;\n            } else {\n                organizations[proposal.organizationId] = _organization;\n            }\n        }\n        emit NewProposal(proposalId, organizations[proposal.organizationId], _numOfChoices, _proposer, _paramsHash);\n        return proposalId;\n    }\n\n  /**\n   * @dev Cancel a proposal, only the owner can call this function and only if allowOwner flag is true.\n   */\n    function cancelProposal(bytes32 ) external returns(bool) {\n        //This is not allowed.\n        return false;\n    }\n\n    /**\n     * @dev staking function\n     * @param _proposalId id of the proposal\n     * @param _vote  NO(2) or YES(1).\n     * @param _amount the betting amount\n     * @return bool true - the proposal has been executed\n     *              false - otherwise.\n     */\n    function stake(bytes32 _proposalId, uint _vote, uint _amount) external returns(bool) {\n        return _stake(_proposalId,_vote,_amount,msg.sender);\n    }\n\n    /**\n     * @dev stakeWithSignature function\n     * @param _proposalId id of the proposal\n     * @param _vote  NO(2) or YES(1).\n     * @param _amount the betting amount\n     * @param _nonce nonce value ,it is part of the signature to ensure that\n              a signature can be received only once.\n     * @param _signatureType signature type\n              1 - for web3.eth.sign\n              2 - for eth_signTypedData according to EIP #712.\n     * @param _signature  - signed data by the staker\n     * @return bool true - the proposal has been executed\n     *              false - otherwise.\n     */\n    function stakeWithSignature(\n        bytes32 _proposalId,\n        uint _vote,\n        uint _amount,\n        uint _nonce,\n        uint _signatureType,\n        bytes _signature\n        )\n        external\n        returns(bool)\n        {\n        require(stakeSignatures[_signature] == false);\n        // Recreate the digest the user signed\n        bytes32 delegationDigest;\n        if (_signatureType == 2) {\n            delegationDigest = keccak256(\n                abi.encodePacked(\n                    DELEGATION_HASH_EIP712, keccak256(\n                        abi.encodePacked(\n                           address(this),\n                          _proposalId,\n                          _vote,\n                          _amount,\n                          _nonce)))\n            );\n        } else {\n            delegationDigest = keccak256(\n                abi.encodePacked(\n                    ETH_SIGN_PREFIX, keccak256(\n                        abi.encodePacked(\n                            address(this),\n                           _proposalId,\n                           _vote,\n                           _amount,\n                           _nonce)))\n            );\n        }\n        address staker = delegationDigest.recover(_signature);\n        //a garbage staker address due to wrong signature will revert due to lack of approval and funds.\n        require(staker!=address(0));\n        stakeSignatures[_signature] = true;\n        return _stake(_proposalId,_vote,_amount,staker);\n    }\n\n    /**\n     * @dev voting function\n     * @param _proposalId id of the proposal\n     * @param _vote NO(2) or YES(1).\n     * @return bool true - the proposal has been executed\n     *              false - otherwise.\n     */\n    function vote(bytes32 _proposalId, uint _vote,address _voter) external votable(_proposalId) returns(bool) {\n        Proposal storage proposal = proposals[_proposalId];\n        Parameters memory params = parameters[proposal.paramsHash];\n        address voter;\n        if (params.voteOnBehalf != address(0)) {\n            require(msg.sender == params.voteOnBehalf);\n            voter = _voter;\n        } else {\n            voter = msg.sender;\n        }\n        return internalVote(_proposalId, voter, _vote, 0);\n    }\n\n  /**\n   * @dev voting function with owner functionality (can vote on behalf of someone else)\n   * @return bool true - the proposal has been executed\n   *              false - otherwise.\n   */\n    function ownerVote(bytes32 , uint , address ) external returns(bool) {\n      //This is not allowed.\n        return false;\n    }\n\n    function voteWithSpecifiedAmounts(bytes32 _proposalId,uint _vote,uint _rep,uint,address _voter) external votable(_proposalId) returns(bool) {\n        Proposal storage proposal = proposals[_proposalId];\n        Parameters memory params = parameters[proposal.paramsHash];\n        address voter;\n        if (params.voteOnBehalf != address(0)) {\n            require(msg.sender == params.voteOnBehalf);\n            voter = _voter;\n        } else {\n            voter = msg.sender;\n        }\n        return internalVote(_proposalId,voter,_vote,_rep);\n    }\n\n  /**\n   * @dev Cancel the vote of the msg.sender.\n   * cancel vote is not allow in genesisProtocol so this function doing nothing.\n   * This function is here in order to comply to the IntVoteInterface .\n   */\n    function cancelVote(bytes32 _proposalId) external votable(_proposalId) {\n       //this is not allowed\n        return;\n    }\n\n  /**\n    * @dev getNumberOfChoices returns the number of choices possible in this proposal\n    * @param _proposalId the ID of the proposals\n    * @return uint that contains number of choices\n    */\n    function getNumberOfChoices(bytes32 _proposalId) external view returns(uint) {\n        return proposals[_proposalId].numOfChoices;\n    }\n\n    /**\n     * @dev voteInfo returns the vote and the amount of reputation of the user committed to this proposal\n     * @param _proposalId the ID of the proposal\n     * @param _voter the address of the voter\n     * @return uint vote - the voters vote\n     *        uint reputation - amount of reputation committed by _voter to _proposalId\n     */\n    function voteInfo(bytes32 _proposalId, address _voter) external view returns(uint, uint) {\n        Voter memory voter = proposals[_proposalId].voters[_voter];\n        return (voter.vote, voter.reputation);\n    }\n\n    /**\n    * @dev voteStatus returns the reputation voted for a proposal for a specific voting choice.\n    * @param _proposalId the ID of the proposal\n    * @param _choice the index in the\n    * @return voted reputation for the given choice\n    */\n    function voteStatus(bytes32 _proposalId,uint _choice) external view returns(uint) {\n        return proposals[_proposalId].votes[_choice];\n    }\n\n    /**\n    * @dev isVotable check if the proposal is votable\n    * @param _proposalId the ID of the proposal\n    * @return bool true or false\n    */\n    function isVotable(bytes32 _proposalId) external view returns(bool) {\n        return _isVotable(_proposalId);\n    }\n\n    /**\n    * @dev proposalStatus return the total votes and stakes for a given proposal\n    * @param _proposalId the ID of the proposal\n    * @return uint preBoostedVotes YES\n    * @return uint preBoostedVotes NO\n    * @return uint stakersStakes\n    * @return uint totalRedeemableStakes\n    * @return uint total stakes YES\n    * @return uint total stakes NO\n    */\n    function proposalStatus(bytes32 _proposalId) external view returns(uint, uint, uint ,uint, uint ,uint) {\n        return (\n                proposals[_proposalId].preBoostedVotes[YES],\n                proposals[_proposalId].preBoostedVotes[NO],\n                proposals[_proposalId].totalStakes[0],\n                proposals[_proposalId].totalStakes[1],\n                proposals[_proposalId].stakes[YES],\n                proposals[_proposalId].stakes[NO]\n        );\n    }\n\n  /**\n    * @dev getProposalOrganization return the organizationId for a given proposal\n    * @param _proposalId the ID of the proposal\n    * @return bytes32 organization identifier\n    */\n    function getProposalOrganization(bytes32 _proposalId) external view returns(bytes32) {\n        return (proposals[_proposalId].organizationId);\n    }\n\n    /**\n      * @dev getStaker return the vote and stake amount for a given proposal and staker\n      * @param _proposalId the ID of the proposal\n      * @param _staker staker address\n      * @return uint vote\n      * @return uint amount\n    */\n    function getStaker(bytes32 _proposalId,address _staker) external view returns(uint,uint) {\n        return (proposals[_proposalId].stakers[_staker].vote,proposals[_proposalId].stakers[_staker].amount);\n    }\n\n    /**\n      * @dev voteStake return the amount stakes for a given proposal and vote\n      * @param _proposalId the ID of the proposal\n      * @param _vote vote number\n      * @return uint stake amount\n    */\n    function voteStake(bytes32 _proposalId,uint _vote) external view returns(uint) {\n        return proposals[_proposalId].stakes[_vote];\n    }\n\n  /**\n    * @dev voteStake return the winningVote for a given proposal\n    * @param _proposalId the ID of the proposal\n    * @return uint winningVote\n    */\n    function winningVote(bytes32 _proposalId) external view returns(uint) {\n        return proposals[_proposalId].winningVote;\n    }\n\n    /**\n      * @dev voteStake return the state for a given proposal\n      * @param _proposalId the ID of the proposal\n      * @return ProposalState proposal state\n    */\n    function state(bytes32 _proposalId) external view returns(ProposalState) {\n        return proposals[_proposalId].state;\n    }\n\n   /**\n    * @dev isAbstainAllow returns if the voting machine allow abstain (0)\n    * @return bool true or false\n    */\n    function isAbstainAllow() external pure returns(bool) {\n        return false;\n    }\n\n    /**\n     * @dev getAllowedRangeOfChoices returns the allowed range of choices for a voting machine.\n     * @return min - minimum number of choices\n               max - maximum number of choices\n     */\n    function getAllowedRangeOfChoices() external pure returns(uint min,uint max) {\n        return (NUM_OF_CHOICES,NUM_OF_CHOICES);\n    }\n\n    /**\n      * @dev execute check if the proposal has been decided, and if so, execute the proposal\n      * @param _proposalId the id of the proposal\n      * @return bool true - the proposal has been executed\n      *              false - otherwise.\n     */\n    function execute(bytes32 _proposalId) external votable(_proposalId) returns(bool) {\n        return _execute(_proposalId);\n    }\n\n    /**\n     * @dev redeem a reward for a successful stake, vote or proposing.\n     * The function use a beneficiary address as a parameter (and not msg.sender) to enable\n     * users to redeem on behalf of someone else.\n     * @param _proposalId the ID of the proposal\n     * @param _beneficiary - the beneficiary address\n     * @return rewards -\n     *         rewards[0] - stakerTokenAmount\n     *         rewards[1] - stakerReputationAmount\n     *         rewards[2] - voterTokenAmount\n     *         rewards[3] - voterReputationAmount\n     *         rewards[4] - proposerReputationAmount\n     * @return reputation - redeem reputation\n     */\n    function redeem(bytes32 _proposalId,address _beneficiary) public returns (uint[5] rewards) {\n        Proposal storage proposal = proposals[_proposalId];\n        require((proposal.state == ProposalState.Executed) || (proposal.state == ProposalState.Closed),\"wrong proposal state\");\n        Parameters memory params = parameters[proposal.paramsHash];\n        uint amount;\n        uint reputation;\n        uint lostReputation;\n        if (proposal.winningVote == YES) {\n            lostReputation = proposal.preBoostedVotes[NO];\n        } else {\n            lostReputation = proposal.preBoostedVotes[YES];\n        }\n        lostReputation = (lostReputation * params.votersReputationLossRatio)/100;\n        //as staker\n        Staker storage staker = proposal.stakers[_beneficiary];\n        if ((staker.amount>0) &&\n             (staker.vote == proposal.winningVote)) {\n            uint totalWinningStakes = proposal.stakes[proposal.winningVote];\n            if (totalWinningStakes != 0) {\n                rewards[0] = (staker.amount * proposal.totalStakes[0]) / totalWinningStakes;\n            }\n            if (proposal.state != ProposalState.Closed) {\n                rewards[1] = (staker.amount * ( lostReputation - ((lostReputation * params.votersGainRepRatioFromLostRep)/100)))/proposal.stakes[proposal.winningVote];\n            }\n            staker.amount = 0;\n        }\n        //as voter\n        Voter storage voter = proposal.voters[_beneficiary];\n        if ((voter.reputation != 0 ) && (voter.preBoosted)) {\n            uint preBoostedVotes = proposal.preBoostedVotes[YES] + proposal.preBoostedVotes[NO];\n            if (preBoostedVotes>0) {\n                rewards[2] = ((proposal.votersStakes * voter.reputation) / preBoostedVotes);\n            }\n            if (proposal.state == ProposalState.Closed) {\n              //give back reputation for the voter\n                rewards[3] = ((voter.reputation * params.votersReputationLossRatio)/100);\n            } else if (proposal.winningVote == voter.vote ) {\n                rewards[3] = (((voter.reputation * params.votersReputationLossRatio)/100) +\n                (((voter.reputation * lostReputation * params.votersGainRepRatioFromLostRep)/100)/preBoostedVotes));\n            }\n            voter.reputation = 0;\n        }\n        //as proposer\n        if ((proposal.proposer == _beneficiary)&&(proposal.winningVote == YES)&&(proposal.proposer != address(0))) {\n            rewards[4] = (params.proposingRepRewardConstA.mul(proposal.votes[YES]+proposal.votes[NO]) + params.proposingRepRewardConstB.mul(proposal.votes[YES]-proposal.votes[NO]))/1000;\n            proposal.proposer = 0;\n        }\n        amount = rewards[0] + rewards[2];\n        reputation = rewards[1] + rewards[3] + rewards[4];\n        if (amount != 0) {\n            proposal.totalStakes[1] = proposal.totalStakes[1].sub(amount);\n            require(stakingToken.transfer(_beneficiary, amount));\n            emit Redeem(_proposalId,organizations[proposal.organizationId],_beneficiary,amount);\n        }\n        if (reputation != 0 ) {\n            VotingMachineCallbacksInterface(proposal.callbacks).mintReputation(reputation,_beneficiary,_proposalId);\n            emit RedeemReputation(_proposalId,organizations[proposal.organizationId],_beneficiary,reputation);\n        }\n    }\n\n    /**\n     * @dev redeemDaoBounty a reward for a successful stake, vote or proposing.\n     * The function use a beneficiary address as a parameter (and not msg.sender) to enable\n     * users to redeem on behalf of someone else.\n     * @param _proposalId the ID of the proposal\n     * @param _beneficiary - the beneficiary address\n     * @return redeemedAmount - redeem token amount\n     * @return potentialAmount - potential redeem token amount(if there is enough tokens bounty at the organization )\n     */\n    function redeemDaoBounty(bytes32 _proposalId,address _beneficiary) public returns(uint redeemedAmount,uint potentialAmount) {\n        Proposal storage proposal = proposals[_proposalId];\n        require((proposal.state == ProposalState.Executed) || (proposal.state == ProposalState.Closed));\n        uint totalWinningStakes = proposal.stakes[proposal.winningVote];\n        if (\n          // solium-disable-next-line operator-whitespace\n            (proposal.stakers[_beneficiary].amountForBounty>0)&&\n            (proposal.stakers[_beneficiary].vote == proposal.winningVote)&&\n            (proposal.winningVote == YES)&&\n            (totalWinningStakes != 0))\n        {\n            //as staker\n            Parameters memory params = parameters[proposal.paramsHash];\n            uint beneficiaryLimit = (proposal.stakers[_beneficiary].amountForBounty.mul(params.daoBountyParams[1])) / totalWinningStakes;\n            potentialAmount = (params.daoBountyParams[0].mul(proposal.stakers[_beneficiary].amountForBounty))/100;\n            if (potentialAmount > beneficiaryLimit) {\n                potentialAmount = beneficiaryLimit;\n            }\n        }\n        if ((potentialAmount != 0)&&\n            (VotingMachineCallbacksInterface(proposal.callbacks).balanceOfStakingToken(stakingToken,_proposalId) >= potentialAmount))\n        {\n            proposal.daoBountyRemain = proposal.daoBountyRemain.sub(potentialAmount);\n            require(VotingMachineCallbacksInterface(proposal.callbacks).stakingTokenTransfer(stakingToken,_beneficiary,potentialAmount,_proposalId));\n            proposal.stakers[_beneficiary].amountForBounty = 0;\n            redeemedAmount = potentialAmount;\n            emit RedeemDaoBounty(_proposalId,organizations[proposal.organizationId],_beneficiary,redeemedAmount);\n        }\n    }\n\n    /**\n     * @dev shouldBoost check if a proposal should be shifted to boosted phase.\n     * @param _proposalId the ID of the proposal\n     * @return bool true or false.\n     */\n    function shouldBoost(bytes32 _proposalId) public view returns(bool) {\n        Proposal memory proposal = proposals[_proposalId];\n        return (_score(_proposalId) >= threshold(proposal.paramsHash,proposal.organizationId));\n    }\n\n    /**\n     * @dev score return the proposal score\n     * @param _proposalId the ID of the proposal\n     * @return uint proposal score.\n     */\n    function score(bytes32 _proposalId) public view returns(int) {\n        return _score(_proposalId);\n    }\n\n    /**\n     * @dev getBoostedProposalsCount return the number of boosted proposal for an organization\n     * @param _organizationId the organization identifier\n     * @return uint number of boosted proposals\n     */\n    function getBoostedProposalsCount(bytes32 _organizationId) public view returns(uint) {\n        uint expiredProposals;\n        if (proposalsExpiredTimes[_organizationId].count() != 0) {\n          // solium-disable-next-line security/no-block-members\n            expiredProposals = proposalsExpiredTimes[_organizationId].rank(now);\n        }\n        return orgBoostedProposalsCnt[_organizationId].sub(expiredProposals);\n    }\n\n    /**\n     * @dev threshold return the organization's score threshold which required by\n     * a proposal to shift to boosted state.\n     * This threshold is dynamically set and it depend on the number of boosted proposal.\n     * @param _organizationId the organization identifier\n     * @param _paramsHash the organization parameters hash\n     * @return int organization's score threshold.\n     */\n    function threshold(bytes32 _paramsHash,bytes32 _organizationId) public view returns(int) {\n        uint boostedProposals = getBoostedProposalsCount(_organizationId);\n        int216 e = 2;\n\n        Parameters memory params = parameters[_paramsHash];\n        require(params.thresholdConstB > 0,\"should be a valid parameter hash\");\n        int256 power = int216(boostedProposals).toReal().div(int216(params.thresholdConstB).toReal());\n\n        if (power.fromReal() > 100 ) {\n            power = int216(100).toReal();\n        }\n        int256 res = int216(params.thresholdConstA).toReal().mul(e.toReal().pow(power));\n        return res.fromReal();\n    }\n\n    /**\n     * @dev hash the parameters, save them if necessary, and return the hash value\n     * @param _params a parameters array\n     *    _params[0] - _preBoostedVoteRequiredPercentage,\n     *    _params[1] - _preBoostedVotePeriodLimit, //the time limit for a proposal to be in an absolute voting mode.\n     *    _params[2] -_boostedVotePeriodLimit, //the time limit for a proposal to be in an relative voting mode.\n     *    _params[3] -_thresholdConstA\n     *    _params[4] -_thresholdConstB\n     *    _params[5] -_minimumStakingFee\n     *    _params[6] -_quietEndingPeriod\n     *    _params[7] -_proposingRepRewardConstA\n     *    _params[8] -_proposingRepRewardConstB\n     *    _params[9] -_stakerFeeRatioForVoters\n     *    _params[10] -_votersReputationLossRatio\n     *    _params[11] -_votersGainRepRatioFromLostRep\n     *    _params[12] - _daoBountyConst\n     *    _params[13] - _daoBountyLimit\n     * @param _voteOnBehalf - authorized to vote on behalf of others.\n    */\n    function setParameters(\n        uint[14] _params, //use array here due to stack too deep issue.\n        address _voteOnBehalf\n    )\n    public\n    returns(bytes32)\n    {\n        require(_params[0] <= 100 && _params[0] > 0,\"0 < preBoostedVoteRequiredPercentage <= 100\");\n        require(_params[4] > 0 && _params[4] <= 100000000,\"0 < thresholdConstB < 100000000 \");\n        require(_params[3] <= 100000000 ether,\"thresholdConstA <= 100000000 wei\");\n        require(_params[9] <= 100,\"stakerFeeRatioForVoters <= 100\");\n        require(_params[10] <= 100,\"votersReputationLossRatio <= 100\");\n        require(_params[11] <= 100,\"votersGainRepRatioFromLostRep <= 100\");\n        require(_params[2] >= _params[6],\"boostedVotePeriodLimit >= quietEndingPeriod\");\n        require(_params[7] <= 100000000,\"proposingRepRewardConstA <= 100000000\");\n        require(_params[8] <= 100000000,\"proposingRepRewardConstB <= 100000000\");\n        require(_params[12] <= (2 * _params[9]),\"daoBountyConst <= 2 * stakerFeeRatioForVoters\");\n        require(_params[12] >= _params[9],\"daoBountyConst >= stakerFeeRatioForVoters\");\n\n        bytes32 paramsHash = getParametersHash(_params, _voteOnBehalf);\n\n        uint[2] memory _daoBountyParams;\n        _daoBountyParams[0] = _params[12];\n        _daoBountyParams[1] = _params[13];\n\n        parameters[paramsHash] = Parameters({\n            preBoostedVoteRequiredPercentage: _params[0],\n            preBoostedVotePeriodLimit: _params[1],\n            boostedVotePeriodLimit: _params[2],\n            thresholdConstA:_params[3],\n            thresholdConstB:_params[4],\n            minimumStakingFee: _params[5],\n            quietEndingPeriod: _params[6],\n            proposingRepRewardConstA: _params[7],\n            proposingRepRewardConstB:_params[8],\n            stakerFeeRatioForVoters:_params[9],\n            votersReputationLossRatio:_params[10],\n            votersGainRepRatioFromLostRep:_params[11],\n            daoBountyParams:_daoBountyParams,\n            voteOnBehalf:_voteOnBehalf\n        });\n        return paramsHash;\n    }\n\n  /**\n   * @dev hashParameters returns a hash of the given parameters\n   */\n    function getParametersHash(\n        uint[14] _params,//use array here due to stack too deep issue.\n        address _voteOnBehalf\n    )\n        public\n        pure\n        returns(bytes32)\n        {\n        //double call to keccak256 to avoid deep stack issue when call with too many params.\n        return keccak256(\n            abi.encodePacked(\n             keccak256(\n              abi.encodePacked(\n                _params[0],\n                _params[1],\n                _params[2],\n                _params[3],\n                _params[4],\n                _params[5],\n                _params[6],\n                _params[7],\n                _params[8],\n                _params[9],\n                _params[10],\n                _params[11],\n                _params[12],\n                _params[13]\n             )),\n            _voteOnBehalf\n        ));\n    }\n\n    /**\n     * @dev getDaoBountyParams returns the daoBountyParams\n     * @param  _paramsHash - parameters hash\n     * @return daoBountyConst\n     *         daoBountyLimit\n     */\n    function getDaoBountyParams(bytes32 _paramsHash) public view returns(uint[2]) {\n        return parameters[_paramsHash].daoBountyParams;\n    }\n\n    /**\n      * @dev execute check if the proposal has been decided, and if so, execute the proposal\n      * @param _proposalId the id of the proposal\n      * @return bool true - the proposal has been executed\n      *              false - otherwise.\n     */\n    function _execute(bytes32 _proposalId) internal votable(_proposalId) returns(bool) {\n        Proposal storage proposal = proposals[_proposalId];\n        Parameters memory params = parameters[proposal.paramsHash];\n        Proposal memory tmpProposal = proposal;\n        uint totalReputation = VotingMachineCallbacksInterface(proposal.callbacks).getTotalReputationSupply(_proposalId);\n        uint executionBar = totalReputation * params.preBoostedVoteRequiredPercentage/100;\n        ExecutionState executionState = ExecutionState.None;\n\n        if (proposal.state == ProposalState.PreBoosted) {\n            // solium-disable-next-line security/no-block-members\n            if ((now - proposal.submittedTime) >= params.preBoostedVotePeriodLimit) {\n                proposal.state = ProposalState.Closed;\n                proposal.winningVote = NO;\n                executionState = ExecutionState.PreBoostedTimeOut;\n             } else if (proposal.votes[proposal.winningVote] > executionBar) {\n              // someone crossed the absolute vote execution bar.\n                proposal.state = ProposalState.Executed;\n                executionState = ExecutionState.PreBoostedBarCrossed;\n               } else if ( shouldBoost(_proposalId)) {\n                //the proposal crossed its absolutePhaseScoreLimit or preBoostedVotePeriodLimit\n                //change proposal mode to boosted mode.\n                proposal.state = ProposalState.Boosted;\n                // solium-disable-next-line security/no-block-members\n                proposal.boostedPhaseTime = now;\n                proposalsExpiredTimes[proposal.organizationId].insert(proposal.boostedPhaseTime + proposal.currentBoostedVotePeriodLimit);\n                orgBoostedProposalsCnt[proposal.organizationId]++;\n              }\n           }\n\n        if ((proposal.state == ProposalState.Boosted) ||\n            (proposal.state == ProposalState.QuietEndingPeriod)) {\n            // solium-disable-next-line security/no-block-members\n            if ((now - proposal.boostedPhaseTime) >= proposal.currentBoostedVotePeriodLimit) {\n                proposalsExpiredTimes[proposal.organizationId].remove(proposal.boostedPhaseTime + proposal.currentBoostedVotePeriodLimit);\n                proposal.state = ProposalState.Executed;\n                orgBoostedProposalsCnt[tmpProposal.organizationId] = orgBoostedProposalsCnt[tmpProposal.organizationId].sub(1);\n                executionState = ExecutionState.BoostedTimeOut;\n             } else if (proposal.votes[proposal.winningVote] > executionBar) {\n               // someone crossed the absolute vote execution bar.\n                orgBoostedProposalsCnt[tmpProposal.organizationId] = orgBoostedProposalsCnt[tmpProposal.organizationId].sub(1);\n                proposalsExpiredTimes[proposal.organizationId].remove(proposal.boostedPhaseTime + proposal.currentBoostedVotePeriodLimit);\n                proposal.state = ProposalState.Executed;\n                executionState = ExecutionState.BoostedBarCrossed;\n            }\n       }\n        if (executionState != ExecutionState.None) {\n            if (proposal.winningVote == YES) {\n                uint daoBountyRemain = (params.daoBountyParams[0].mul(proposal.stakes[proposal.winningVote]))/100;\n                if (daoBountyRemain > params.daoBountyParams[1]) {\n                    daoBountyRemain = params.daoBountyParams[1];\n                }\n                proposal.daoBountyRemain = daoBountyRemain;\n            }\n            emit ExecuteProposal(_proposalId, organizations[proposal.organizationId], proposal.winningVote, totalReputation);\n            emit GPExecuteProposal(_proposalId, executionState);\n            ProposalExecuteInterface(proposal.callbacks).executeProposal(_proposalId,int(proposal.winningVote));\n        }\n        return (executionState != ExecutionState.None);\n    }\n\n    /**\n     * @dev staking function\n     * @param _proposalId id of the proposal\n     * @param _vote  NO(2) or YES(1).\n     * @param _amount the betting amount\n     * @return bool true - the proposal has been executed\n     *              false - otherwise.\n     */\n    function _stake(bytes32 _proposalId, uint _vote, uint _amount,address _staker) internal returns(bool) {\n        // 0 is not a valid vote.\n        require(_vote <= NUM_OF_CHOICES && _vote > 0);\n        require(_amount > 0);\n        if (_execute(_proposalId)) {\n            return true;\n        }\n\n        Proposal storage proposal = proposals[_proposalId];\n\n        if (proposal.state != ProposalState.PreBoosted) {\n            return false;\n        }\n\n        // enable to increase stake only on the previous stake vote\n        Staker storage staker = proposal.stakers[_staker];\n        if ((staker.amount > 0) && (staker.vote != _vote)) {\n            return false;\n        }\n\n        uint amount = _amount;\n        Parameters memory params = parameters[proposal.paramsHash];\n        require(amount >= params.minimumStakingFee);\n        require(stakingToken.transferFrom(_staker, address(this), amount));\n        proposal.totalStakes[1] = proposal.totalStakes[1].add(amount); //update totalRedeemableStakes\n        staker.amount += amount;\n        staker.amountForBounty = staker.amount;\n        staker.vote = _vote;\n\n        proposal.votersStakes += (params.stakerFeeRatioForVoters * amount)/100;\n        proposal.stakes[_vote] = amount.add(proposal.stakes[_vote]);\n        amount = amount - ((params.stakerFeeRatioForVoters*amount)/100);\n        proposal.totalStakes[0] = amount.add(proposal.totalStakes[0]);\n      // Event:\n        emit Stake(_proposalId, organizations[proposal.organizationId], _staker, _vote, _amount);\n      // execute the proposal if this vote was decisive:\n        return _execute(_proposalId);\n    }\n\n    /**\n     * @dev Vote for a proposal, if the voter already voted, cancel the last vote and set a new one instead\n     * @param _proposalId id of the proposal\n     * @param _voter used in case the vote is cast for someone else\n     * @param _vote a value between 0 to and the proposal's number of choices.\n     * @param _rep how many reputation the voter would like to stake for this vote.\n     *         if  _rep==0 so the voter full reputation will be use.\n     * @return true in case of proposal execution otherwise false\n     * throws if proposal is not open or if it has been executed\n     * NB: executes the proposal if a decision has been reached\n     */\n    function internalVote(bytes32 _proposalId, address _voter, uint _vote, uint _rep) private returns(bool) {\n        // 0 is not a valid vote.\n        require(_vote <= NUM_OF_CHOICES && _vote > 0,\"0 < _vote <= 2\");\n        if (_execute(_proposalId)) {\n            return true;\n        }\n\n        Parameters memory params = parameters[proposals[_proposalId].paramsHash];\n        Proposal storage proposal = proposals[_proposalId];\n\n        // Check voter has enough reputation:\n        uint reputation = VotingMachineCallbacksInterface(proposal.callbacks).reputationOf(_voter,_proposalId);\n        require(reputation >= _rep,\"reputation >= _rep\");\n        uint rep = _rep;\n        if (rep == 0) {\n            rep = reputation;\n        }\n        // If this voter has already voted, return false.\n        if (proposal.voters[_voter].reputation != 0) {\n            return false;\n        }\n        // The voting itself:\n        proposal.votes[_vote] = rep.add(proposal.votes[_vote]);\n        //check if the current winningVote changed or there is a tie.\n                //for the case there is a tie the current winningVote set to NO.\n        if ((proposal.votes[_vote] > proposal.votes[proposal.winningVote]) ||\n           ((proposal.votes[NO] == proposal.votes[proposal.winningVote]) &&\n             proposal.winningVote == YES))\n        {\n            // solium-disable-next-line security/no-block-members\n            uint _now = now;\n            if ((proposal.state == ProposalState.QuietEndingPeriod) ||\n               ((proposal.state == ProposalState.Boosted) && ((_now - proposal.boostedPhaseTime) >= (params.boostedVotePeriodLimit - params.quietEndingPeriod)))) {\n                //quietEndingPeriod\n                proposalsExpiredTimes[proposal.organizationId].remove(proposal.boostedPhaseTime + proposal.currentBoostedVotePeriodLimit);\n                if (proposal.state != ProposalState.QuietEndingPeriod) {\n                    proposal.currentBoostedVotePeriodLimit = params.quietEndingPeriod;\n                    proposal.state = ProposalState.QuietEndingPeriod;\n                }\n                proposal.boostedPhaseTime = _now;\n                proposalsExpiredTimes[proposal.organizationId].insert(proposal.boostedPhaseTime + proposal.currentBoostedVotePeriodLimit);\n            }\n            proposal.winningVote = _vote;\n        }\n        proposal.voters[_voter] = Voter({\n            reputation: rep,\n            vote: _vote,\n            preBoosted:(proposal.state == ProposalState.PreBoosted)\n        });\n        if (proposal.state == ProposalState.PreBoosted) {\n            proposal.preBoostedVotes[_vote] = rep.add(proposal.preBoostedVotes[_vote]);\n            uint reputationDeposit = (params.votersReputationLossRatio * rep)/100;\n            VotingMachineCallbacksInterface(proposal.callbacks).burnReputation(reputationDeposit,_voter,_proposalId);\n        }\n        // Event:\n        emit VoteProposal(_proposalId, organizations[proposal.organizationId], _voter, _vote, rep);\n        // execute the proposal if this vote was decisive:\n        return _execute(_proposalId);\n    }\n\n    /**\n     * @dev _score return the proposal score\n     * For dual choice proposal S = (S+) - (S-)\n     * @param _proposalId the ID of the proposal\n     * @return int proposal score.\n     */\n    function _score(bytes32 _proposalId) private view returns(int) {\n        Proposal storage proposal = proposals[_proposalId];\n        return int(proposal.stakes[YES]) - int(proposal.stakes[NO]);\n    }\n\n    /**\n      * @dev _isVotable check if the proposal is votable\n      * @param _proposalId the ID of the proposal\n      * @return bool true or false\n    */\n    function _isVotable(bytes32 _proposalId) private view returns(bool) {\n        ProposalState pState = proposals[_proposalId].state;\n        return ((pState == ProposalState.PreBoosted)||(pState == ProposalState.Boosted)||(pState == ProposalState.QuietEndingPeriod));\n    }\n\n    /**\n      * @dev isContract check if a given address is a contract address\n      * @param _addr the address to check.\n      * @return bool true or false\n    */\n    function isContract(address _addr) private view returns (bool) {\n        uint32 size;\n        // solium-disable-next-line security/no-inline-assembly\n        assembly {\n          size := extcodesize(_addr)\n        }\n        return (size > 0);\n    }\n\n}\n",
  "sourcePath": "@daostack/infra/contracts/votingMachines/GenesisProtocol.sol",
  "compiler": {
    "name": "solc",
    "version": "0.4.25+commit.59dbf8f1.Emscripten.clang"
  },
  "schemaVersion": "3.0.0-beta.1",
  "updatedAt": "2019-06-15T11:27:26.743Z"
}